{
  "_format": "hh-sol-artifact-1",
  "contractName": "Ownable",
  "sourceName": "root/Ownable.sol",
  "abi": [
    {
      "constant": true,
      "inputs": [
        {
          "name": "addr",
          "type": "address"
        }
      ],
      "name": "isOwner",
      "outputs": [
        {
          "name": "",
          "type": "bool"
        }
      ],
      "payable": false,
      "stateMutability": "view",
      "type": "function"
    },
    {
      "constant": true,
      "inputs": [],
      "name": "owner",
      "outputs": [
        {
          "name": "",
          "type": "address"
        }
      ],
      "payable": false,
      "stateMutability": "view",
      "type": "function"
    },
    {
      "constant": false,
      "inputs": [
        {
          "name": "newOwner",
          "type": "address"
        }
      ],
      "name": "transferOwnership",
      "outputs": [],
      "payable": false,
      "stateMutability": "nonpayable",
      "type": "function"
    },
    {
      "inputs": [],
      "payable": false,
      "stateMutability": "nonpayable",
      "type": "constructor"
    }
  ],
  "bytecode": "0x608060405234801561001057600080fd5b5060008054600160a060020a031916331790556101c4806100326000396000f3006080604052600436106100565763ffffffff7c01000000000000000000000000000000000000000000000000000000006000350416632f54bf6e811461005b5780638da5cb5b1461009d578063f2fde38b146100db575b600080fd5b34801561006757600080fd5b5061008973ffffffffffffffffffffffffffffffffffffffff6004351661010b565b604080519115158252519081900360200190f35b3480156100a957600080fd5b506100b261012c565b6040805173ffffffffffffffffffffffffffffffffffffffff9092168252519081900360200190f35b3480156100e757600080fd5b5061010973ffffffffffffffffffffffffffffffffffffffff60043516610148565b005b60005473ffffffffffffffffffffffffffffffffffffffff91821691161490565b60005473ffffffffffffffffffffffffffffffffffffffff1681565b6101513361010b565b151561015c57600080fd5b6000805473ffffffffffffffffffffffffffffffffffffffff191673ffffffffffffffffffffffffffffffffffffffff929092169190911790555600a165627a7a72305820b9ae810152d95e10a9ca0c297af3d3d5dda94f308001c2cf317c84e9a3bc9b6e0029",
  "linkReferences": {},
  "deployedLinkReferences": {}
}