{
  "_format": "hh-sol-artifact-1",
  "contractName": "PaymentForwarder",
  "sourceName": "utils/PaymentForwarder.sol",
  "abi": [
    {
      "inputs": [
        {
          "internalType": "contract TNS",
          "name": "_tns",
          "type": "address"
        }
      ],
      "stateMutability": "nonpayable",
      "type": "constructor"
    },
    {
      "inputs": [
        {
          "internalType": "string",
          "name": "name",
          "type": "string"
        }
      ],
      "name": "DomainNotRegistered",
      "type": "error"
    },
    {
      "inputs": [
        {
          "internalType": "string",
          "name": "name",
          "type": "string"
        }
      ],
      "name": "NoAddressSet",
      "type": "error"
    },
    {
      "inputs": [
        {
          "internalType": "string",
          "name": "name",
          "type": "string"
        }
      ],
      "name": "NoResolverSet",
      "type": "error"
    },
    {
      "inputs": [],
      "name": "PaymentFailed",
      "type": "error"
    },
    {
      "anonymous": false,
      "inputs": [
        {
          "indexed": true,
          "internalType": "string",
          "name": "name",
          "type": "string"
        },
        {
          "indexed": true,
          "internalType": "address",
          "name": "from",
          "type": "address"
        },
        {
          "indexed": true,
          "internalType": "address",
          "name": "to",
          "type": "address"
        },
        {
          "indexed": false,
          "internalType": "uint256",
          "name": "amount",
          "type": "uint256"
        }
      ],
      "name": "PaymentForwarded",
      "type": "event"
    },
    {
      "inputs": [
        {
          "internalType": "string",
          "name": "name",
          "type": "string"
        }
      ],
      "name": "namehash",
      "outputs": [
        {
          "internalType": "bytes32",
          "name": "",
          "type": "bytes32"
        }
      ],
      "stateMutability": "pure",
      "type": "function"
    },
    {
      "inputs": [
        {
          "internalType": "string",
          "name": "name",
          "type": "string"
        }
      ],
      "name": "resolve",
      "outputs": [
        {
          "internalType": "address",
          "name": "",
          "type": "address"
        }
      ],
      "stateMutability": "view",
      "type": "function"
    },
    {
      "inputs": [
        {
          "internalType": "string",
          "name": "name",
          "type": "string"
        }
      ],
      "name": "sendTo",
      "outputs": [],
      "stateMutability": "payable",
      "type": "function"
    },
    {
      "inputs": [],
      "name": "tns",
      "outputs": [
        {
          "internalType": "contract TNS",
          "name": "",
          "type": "address"
        }
      ],
      "stateMutability": "view",
      "type": "function"
    }
  ],
  "bytecode": "0x60a060405234801561001057600080fd5b5060405161074638038061074683398101604081905261002f91610040565b6001600160a01b0316608052610070565b60006020828403121561005257600080fd5b81516001600160a01b038116811461006957600080fd5b9392505050565b6080516106ae6100986000396000818160c1015281816101f0015261037301526106ae6000f3fe60806040526004361061003f5760003560e01c80630987996214610044578063461a4478146100775780636c7a8d7e146100af5780639a8335e0146100e3575b600080fd5b34801561005057600080fd5b5061006461005f36600461058b565b6100f8565b6040519081526020015b60405180910390f35b34801561008357600080fd5b5061009761009236600461058b565b610166565b6040516001600160a01b03909116815260200161006e565b3480156100bb57600080fd5b506100977f000000000000000000000000000000000000000000000000000000000000000081565b6100f66100f136600461058b565b6102ea565b005b600080838360405161010b9291906105fd565b604080519182900382207fe16bcebb9fdd78a351d48e8b8c0efa4a4d222509da29d80bcbb1e2b64eac498560208401529082018190529150606001604051602081830303815290604052805190602001209150505b92915050565b60008083836040516101799291906105fd565b604080519182900382207fe16bcebb9fdd78a351d48e8b8c0efa4a4d222509da29d80bcbb1e2b64eac49856020840152908201819052915060009060600160408051601f19818403018152908290528051602090910120630178b8bf60e01b82526004820181905291506000906001600160a01b037f00000000000000000000000000000000000000000000000000000000000000001690630178b8bf90602401602060405180830381865afa158015610237573d6000803e3d6000fd5b505050506040513d601f19601f8201168201806040525081019061025b9190610625565b90506001600160a01b0381166102775760009350505050610160565b604051631d9dabef60e11b8152600481018390526001600160a01b03821690633b3b57de90602401602060405180830381865afa1580156102bc573d6000803e3d6000fd5b505050506040513d601f19601f820116820180604052508101906102e09190610625565b9695505050505050565b600082826040516102fc9291906105fd565b604080519182900382207fe16bcebb9fdd78a351d48e8b8c0efa4a4d222509da29d80bcbb1e2b64eac49856020840152908201819052915060009060600160408051601f19818403018152908290528051602090910120630178b8bf60e01b82526004820181905291506000906001600160a01b037f00000000000000000000000000000000000000000000000000000000000000001690630178b8bf90602401602060405180830381865afa1580156103ba573d6000803e3d6000fd5b505050506040513d601f19601f820116820180604052508101906103de9190610625565b90506001600160a01b0381166104145784846040516365005edf60e01b815260040161040b929190610649565b60405180910390fd5b604051631d9dabef60e11b81526004810183905281906000906001600160a01b03831690633b3b57de90602401602060405180830381865afa15801561045e573d6000803e3d6000fd5b505050506040513d601f19601f820116820180604052508101906104829190610625565b90506001600160a01b0381166104af578686604051632ad5cf1f60e21b815260040161040b929190610649565b6000816001600160a01b03163460405160006040518083038185875af1925050503d80600081146104fc576040519150601f19603f3d011682016040523d82523d6000602084013e610501565b606091505b5050905080610523576040516307a4ced160e51b815260040160405180910390fd5b816001600160a01b0316336001600160a01b031689896040516105479291906105fd565b604051908190038120348252907fc6ae215cea4cc7b40b659a5d17ea87380b4d2a825129aea976986c82f9b18bd59060200160405180910390a45050505050505050565b6000806020838503121561059e57600080fd5b823567ffffffffffffffff808211156105b657600080fd5b818501915085601f8301126105ca57600080fd5b8135818111156105d957600080fd5b8660208285010111156105eb57600080fd5b60209290920196919550909350505050565b8183823760009101908152919050565b6001600160a01b038116811461062257600080fd5b50565b60006020828403121561063757600080fd5b81516106428161060d565b9392505050565b60208152816020820152818360408301376000818301604090810191909152601f909201601f1916010191905056fea2646970667358221220f246f0fe9695966c7efbec0283116104baf1213e2aa680b9df6da801bc5505db64736f6c63430008110033",
  "linkReferences": {},
  "deployedLinkReferences": {}
}