{
  "_format": "hh-sol-artifact-1",
  "contractName": "StablePriceOracle",
  "sourceName": "ethregistrar/StablePriceOracle.sol",
  "abi": [
    {
      "inputs": [
        {
          "internalType": "uint256[]",
          "name": "_rentPrices",
          "type": "uint256[]"
        }
      ],
      "stateMutability": "nonpayable",
      "type": "constructor"
    },
    {
      "anonymous": false,
      "inputs": [
        {
          "indexed": true,
          "internalType": "address",
          "name": "previousOwner",
          "type": "address"
        },
        {
          "indexed": true,
          "internalType": "address",
          "name": "newOwner",
          "type": "address"
        }
      ],
      "name": "OwnershipTransferred",
      "type": "event"
    },
    {
      "anonymous": false,
      "inputs": [
        {
          "indexed": false,
          "internalType": "uint256[]",
          "name": "prices",
          "type": "uint256[]"
        }
      ],
      "name": "RentPriceChanged",
      "type": "event"
    },
    {
      "inputs": [],
      "name": "owner",
      "outputs": [
        {
          "internalType": "address",
          "name": "",
          "type": "address"
        }
      ],
      "stateMutability": "view",
      "type": "function"
    },
    {
      "inputs": [
        {
          "internalType": "string",
          "name": "name",
          "type": "string"
        },
        {
          "internalType": "uint256",
          "name": "expires",
          "type": "uint256"
        },
        {
          "internalType": "uint256",
          "name": "duration",
          "type": "uint256"
        }
      ],
      "name": "price",
      "outputs": [
        {
          "components": [
            {
              "internalType": "uint256",
              "name": "base",
              "type": "uint256"
            },
            {
              "internalType": "uint256",
              "name": "premium",
              "type": "uint256"
            }
          ],
          "internalType": "struct IPriceOracle.Price",
          "name": "",
          "type": "tuple"
        }
      ],
      "stateMutability": "view",
      "type": "function"
    },
    {
      "inputs": [],
      "name": "price1Letter",
      "outputs": [
        {
          "internalType": "uint256",
          "name": "",
          "type": "uint256"
        }
      ],
      "stateMutability": "view",
      "type": "function"
    },
    {
      "inputs": [],
      "name": "price2Letter",
      "outputs": [
        {
          "internalType": "uint256",
          "name": "",
          "type": "uint256"
        }
      ],
      "stateMutability": "view",
      "type": "function"
    },
    {
      "inputs": [],
      "name": "price3Letter",
      "outputs": [
        {
          "internalType": "uint256",
          "name": "",
          "type": "uint256"
        }
      ],
      "stateMutability": "view",
      "type": "function"
    },
    {
      "inputs": [],
      "name": "price4Letter",
      "outputs": [
        {
          "internalType": "uint256",
          "name": "",
          "type": "uint256"
        }
      ],
      "stateMutability": "view",
      "type": "function"
    },
    {
      "inputs": [],
      "name": "price5Letter",
      "outputs": [
        {
          "internalType": "uint256",
          "name": "",
          "type": "uint256"
        }
      ],
      "stateMutability": "view",
      "type": "function"
    },
    {
      "inputs": [],
      "name": "renounceOwnership",
      "outputs": [],
      "stateMutability": "nonpayable",
      "type": "function"
    },
    {
      "inputs": [
        {
          "internalType": "uint256[]",
          "name": "_rentPrices",
          "type": "uint256[]"
        }
      ],
      "name": "setPrices",
      "outputs": [],
      "stateMutability": "nonpayable",
      "type": "function"
    },
    {
      "inputs": [
        {
          "internalType": "bytes4",
          "name": "interfaceID",
          "type": "bytes4"
        }
      ],
      "name": "supportsInterface",
      "outputs": [
        {
          "internalType": "bool",
          "name": "",
          "type": "bool"
        }
      ],
      "stateMutability": "view",
      "type": "function"
    },
    {
      "inputs": [
        {
          "internalType": "address",
          "name": "newOwner",
          "type": "address"
        }
      ],
      "name": "transferOwnership",
      "outputs": [],
      "stateMutability": "nonpayable",
      "type": "function"
    }
  ],
  "bytecode": "0x60806040523480156200001157600080fd5b5060405162000b3d38038062000b3d833981016040819052620000349162000160565b6200003f33620000fa565b8060008151811062000055576200005562000229565b60200260200101516001819055508060018151811062000079576200007962000229565b6020026020010151600281905550806002815181106200009d576200009d62000229565b602002602001015160038190555080600381518110620000c157620000c162000229565b602002602001015160048190555080600481518110620000e557620000e562000229565b6020026020010151600581905550506200023f565b600080546001600160a01b038381166001600160a01b0319831681178455604051919092169283917f8be0079c531659141344cd1fd0a4f28419497f9722a3daafe3b4186f6b6457e09190a35050565b634e487b7160e01b600052604160045260246000fd5b600060208083850312156200017457600080fd5b82516001600160401b03808211156200018c57600080fd5b818501915085601f830112620001a157600080fd5b815181811115620001b657620001b66200014a565b8060051b604051601f19603f83011681018181108582111715620001de57620001de6200014a565b604052918252848201925083810185019188831115620001fd57600080fd5b938501935b828510156200021d5784518452938501939285019262000202565b98975050505050505050565b634e487b7160e01b600052603260045260246000fd5b6108ee806200024f6000396000f3fe608060405234801561001057600080fd5b50600436106100a95760003560e01c806379cf92d31161007157806379cf92d31461013f5780638da5cb5b14610152578063a200e1531461016d578063cd5d2c7414610176578063d820ed421461017f578063f2fde38b1461018857600080fd5b806301ffc9a7146100ae5780632c0fd74c146100e757806350e9a715146100fe57806359b6b86c1461012c578063715018a614610135575b600080fd5b6100d26100bc366004610630565b6001600160e01b0319166350e9a71560e01b1490565b60405190151581526020015b60405180910390f35b6100f060015481565b6040519081526020016100de565b61011161010c366004610661565b61019b565b604080518251815260209283015192810192909252016100de565b6100f060055481565b61013d6102b8565b005b61013d61014d3660046106f6565b6102cc565b6000546040516001600160a01b0390911681526020016100de565b6100f060035481565b6100f060025481565b6100f060045481565b61013d6101963660046107b4565b610401565b604080518082019091526000808252602082015260006101f086868080601f01602080910402602001604051908101604052809392919081815260200183838082843760009201919091525061047a92505050565b9050600060058210610205575060055461023d565b81600403610216575060045461023d565b81600303610227575060035461023d565b81600203610238575060025461023d565b506001545b60405180604001604052806301e13380868461025991906107f3565b6102639190610810565b81526020016102ab89898080601f0160208091040260200160405190810160405280939291908181526020018383808284376000920191909152508b92508a915061057d9050565b9052979650505050505050565b6102c0610586565b6102ca60006105e0565b565b6102d4610586565b80516005146103225760405162461bcd60e51b81526020600482015260156024820152744d7573742070726f7669646520352070726963657360581b60448201526064015b60405180910390fd5b8060008151811061033557610335610832565b60200260200101516001819055508060018151811061035657610356610832565b60200260200101516002819055508060028151811061037757610377610832565b60200260200101516003819055508060038151811061039857610398610832565b6020026020010151600481905550806004815181106103b9576103b9610832565b60200260200101516005819055507f73422d94aedd596c2d4d39f27a01033adc390a9054efaf259afefd95ef7331df816040516103f69190610848565b60405180910390a150565b610409610586565b6001600160a01b03811661046e5760405162461bcd60e51b815260206004820152602660248201527f4f776e61626c653a206e6577206f776e657220697320746865207a65726f206160448201526564647265737360d01b6064820152608401610319565b610477816105e0565b50565b8051600090819081905b808210156105745760008583815181106104a0576104a0610832565b01602001516001600160f81b0319169050600160ff1b8110156104cf576104c860018461088c565b9250610561565b600760fd1b6001600160f81b0319821610156104f0576104c860028461088c565b600f60fc1b6001600160f81b031982161015610511576104c860038461088c565b601f60fb1b6001600160f81b031982161015610532576104c860048461088c565b603f60fa1b6001600160f81b031982161015610553576104c860058461088c565b61055e60068461088c565b92505b508261056c8161089f565b935050610484565b50909392505050565b60009392505050565b6000546001600160a01b031633146102ca5760405162461bcd60e51b815260206004820181905260248201527f4f776e61626c653a2063616c6c6572206973206e6f7420746865206f776e65726044820152606401610319565b600080546001600160a01b038381166001600160a01b0319831681178455604051919092169283917f8be0079c531659141344cd1fd0a4f28419497f9722a3daafe3b4186f6b6457e09190a35050565b60006020828403121561064257600080fd5b81356001600160e01b03198116811461065a57600080fd5b9392505050565b6000806000806060858703121561067757600080fd5b843567ffffffffffffffff8082111561068f57600080fd5b818701915087601f8301126106a357600080fd5b8135818111156106b257600080fd5b8860208285010111156106c457600080fd5b6020928301999098509187013596604001359550909350505050565b634e487b7160e01b600052604160045260246000fd5b6000602080838503121561070957600080fd5b823567ffffffffffffffff8082111561072157600080fd5b818501915085601f83011261073557600080fd5b813581811115610747576107476106e0565b8060051b604051601f19603f8301168101818110858211171561076c5761076c6106e0565b60405291825284820192508381018501918883111561078a57600080fd5b938501935b828510156107a85784358452938501939285019261078f565b98975050505050505050565b6000602082840312156107c657600080fd5b81356001600160a01b038116811461065a57600080fd5b634e487b7160e01b600052601160045260246000fd5b808202811582820484141761080a5761080a6107dd565b92915050565b60008261082d57634e487b7160e01b600052601260045260246000fd5b500490565b634e487b7160e01b600052603260045260246000fd5b6020808252825182820181905260009190848201906040850190845b8181101561088057835183529284019291840191600101610864565b50909695505050505050565b8082018082111561080a5761080a6107dd565b6000600182016108b1576108b16107dd565b506001019056fea2646970667358221220e63e99cac288b2b819d85bfd278541ce8a867398d03043620d55e298c5c492b564736f6c63430008110033",
  "linkReferences": {},
  "deployedLinkReferences": {}
}