{
  "_format": "hh-sol-artifact-1",
  "contractName": "TNSRegistrarController",
  "sourceName": "ethregistrar/TNSRegistrarController.sol",
  "abi": [
    {
      "inputs": [
        {
          "internalType": "contract BaseRegistrarImplementation",
          "name": "_base",
          "type": "address"
        },
        {
          "internalType": "contract IPriceOracle",
          "name": "_prices",
          "type": "address"
        },
        {
          "internalType": "uint256",
          "name": "_minCommitmentAge",
          "type": "uint256"
        },
        {
          "internalType": "uint256",
          "name": "_maxCommitmentAge",
          "type": "uint256"
        },
        {
          "internalType": "contract ReverseRegistrar",
          "name": "_reverseRegistrar",
          "type": "address"
        },
        {
          "internalType": "contract INameWrapper",
          "name": "_nameWrapper",
          "type": "address"
        },
        {
          "internalType": "contract TNS",
          "name": "_tns",
          "type": "address"
        },
        {
          "internalType": "address",
          "name": "_treasury",
          "type": "address"
        }
      ],
      "stateMutability": "nonpayable",
      "type": "constructor"
    },
    {
      "inputs": [
        {
          "internalType": "bytes32",
          "name": "commitment",
          "type": "bytes32"
        }
      ],
      "name": "CommitmentTooNew",
      "type": "error"
    },
    {
      "inputs": [
        {
          "internalType": "bytes32",
          "name": "commitment",
          "type": "bytes32"
        }
      ],
      "name": "CommitmentTooOld",
      "type": "error"
    },
    {
      "inputs": [
        {
          "internalType": "uint256",
          "name": "duration",
          "type": "uint256"
        }
      ],
      "name": "DurationTooShort",
      "type": "error"
    },
    {
      "inputs": [],
      "name": "InsufficientValue",
      "type": "error"
    },
    {
      "inputs": [],
      "name": "MaxCommitmentAgeTooHigh",
      "type": "error"
    },
    {
      "inputs": [],
      "name": "MaxCommitmentAgeTooLow",
      "type": "error"
    },
    {
      "inputs": [
        {
          "internalType": "string",
          "name": "name",
          "type": "string"
        }
      ],
      "name": "NameNotAvailable",
      "type": "error"
    },
    {
      "inputs": [],
      "name": "ResolverRequiredWhenDataSupplied",
      "type": "error"
    },
    {
      "inputs": [
        {
          "internalType": "bytes32",
          "name": "commitment",
          "type": "bytes32"
        }
      ],
      "name": "UnexpiredCommitmentExists",
      "type": "error"
    },
    {
      "anonymous": false,
      "inputs": [
        {
          "indexed": false,
          "internalType": "string",
          "name": "name",
          "type": "string"
        },
        {
          "indexed": true,
          "internalType": "bytes32",
          "name": "label",
          "type": "bytes32"
        },
        {
          "indexed": true,
          "internalType": "address",
          "name": "owner",
          "type": "address"
        },
        {
          "indexed": false,
          "internalType": "uint256",
          "name": "baseCost",
          "type": "uint256"
        },
        {
          "indexed": false,
          "internalType": "uint256",
          "name": "premium",
          "type": "uint256"
        },
        {
          "indexed": false,
          "internalType": "uint256",
          "name": "expires",
          "type": "uint256"
        }
      ],
      "name": "NameRegistered",
      "type": "event"
    },
    {
      "anonymous": false,
      "inputs": [
        {
          "indexed": false,
          "internalType": "string",
          "name": "name",
          "type": "string"
        },
        {
          "indexed": true,
          "internalType": "bytes32",
          "name": "label",
          "type": "bytes32"
        },
        {
          "indexed": false,
          "internalType": "uint256",
          "name": "cost",
          "type": "uint256"
        },
        {
          "indexed": false,
          "internalType": "uint256",
          "name": "expires",
          "type": "uint256"
        }
      ],
      "name": "NameRenewed",
      "type": "event"
    },
    {
      "anonymous": false,
      "inputs": [
        {
          "indexed": true,
          "internalType": "address",
          "name": "previousOwner",
          "type": "address"
        },
        {
          "indexed": true,
          "internalType": "address",
          "name": "newOwner",
          "type": "address"
        }
      ],
      "name": "OwnershipTransferred",
      "type": "event"
    },
    {
      "inputs": [],
      "name": "MIN_REGISTRATION_DURATION",
      "outputs": [
        {
          "internalType": "uint256",
          "name": "",
          "type": "uint256"
        }
      ],
      "stateMutability": "view",
      "type": "function"
    },
    {
      "inputs": [
        {
          "internalType": "string",
          "name": "name",
          "type": "string"
        }
      ],
      "name": "available",
      "outputs": [
        {
          "internalType": "bool",
          "name": "",
          "type": "bool"
        }
      ],
      "stateMutability": "view",
      "type": "function"
    },
    {
      "inputs": [
        {
          "internalType": "bytes32",
          "name": "commitment",
          "type": "bytes32"
        }
      ],
      "name": "commit",
      "outputs": [],
      "stateMutability": "nonpayable",
      "type": "function"
    },
    {
      "inputs": [
        {
          "internalType": "bytes32",
          "name": "",
          "type": "bytes32"
        }
      ],
      "name": "commitments",
      "outputs": [
        {
          "internalType": "uint256",
          "name": "",
          "type": "uint256"
        }
      ],
      "stateMutability": "view",
      "type": "function"
    },
    {
      "inputs": [
        {
          "internalType": "string",
          "name": "name",
          "type": "string"
        },
        {
          "internalType": "address",
          "name": "owner",
          "type": "address"
        },
        {
          "internalType": "uint256",
          "name": "duration",
          "type": "uint256"
        },
        {
          "internalType": "bytes32",
          "name": "secret",
          "type": "bytes32"
        },
        {
          "internalType": "address",
          "name": "resolver",
          "type": "address"
        },
        {
          "internalType": "bytes[]",
          "name": "data",
          "type": "bytes[]"
        },
        {
          "internalType": "bool",
          "name": "reverseRecord",
          "type": "bool"
        },
        {
          "internalType": "uint16",
          "name": "ownerControlledFuses",
          "type": "uint16"
        }
      ],
      "name": "makeCommitment",
      "outputs": [
        {
          "internalType": "bytes32",
          "name": "",
          "type": "bytes32"
        }
      ],
      "stateMutability": "pure",
      "type": "function"
    },
    {
      "inputs": [],
      "name": "maxCommitmentAge",
      "outputs": [
        {
          "internalType": "uint256",
          "name": "",
          "type": "uint256"
        }
      ],
      "stateMutability": "view",
      "type": "function"
    },
    {
      "inputs": [],
      "name": "minCommitmentAge",
      "outputs": [
        {
          "internalType": "uint256",
          "name": "",
          "type": "uint256"
        }
      ],
      "stateMutability": "view",
      "type": "function"
    },
    {
      "inputs": [],
      "name": "nameWrapper",
      "outputs": [
        {
          "internalType": "contract INameWrapper",
          "name": "",
          "type": "address"
        }
      ],
      "stateMutability": "view",
      "type": "function"
    },
    {
      "inputs": [],
      "name": "owner",
      "outputs": [
        {
          "internalType": "address",
          "name": "",
          "type": "address"
        }
      ],
      "stateMutability": "view",
      "type": "function"
    },
    {
      "inputs": [],
      "name": "prices",
      "outputs": [
        {
          "internalType": "contract IPriceOracle",
          "name": "",
          "type": "address"
        }
      ],
      "stateMutability": "view",
      "type": "function"
    },
    {
      "inputs": [
        {
          "internalType": "address",
          "name": "_token",
          "type": "address"
        },
        {
          "internalType": "address",
          "name": "_to",
          "type": "address"
        },
        {
          "internalType": "uint256",
          "name": "_amount",
          "type": "uint256"
        }
      ],
      "name": "recoverFunds",
      "outputs": [],
      "stateMutability": "nonpayable",
      "type": "function"
    },
    {
      "inputs": [
        {
          "internalType": "string",
          "name": "name",
          "type": "string"
        },
        {
          "internalType": "address",
          "name": "owner",
          "type": "address"
        },
        {
          "internalType": "uint256",
          "name": "duration",
          "type": "uint256"
        },
        {
          "internalType": "bytes32",
          "name": "secret",
          "type": "bytes32"
        },
        {
          "internalType": "address",
          "name": "resolver",
          "type": "address"
        },
        {
          "internalType": "bytes[]",
          "name": "data",
          "type": "bytes[]"
        },
        {
          "internalType": "bool",
          "name": "reverseRecord",
          "type": "bool"
        },
        {
          "internalType": "uint16",
          "name": "ownerControlledFuses",
          "type": "uint16"
        }
      ],
      "name": "register",
      "outputs": [],
      "stateMutability": "payable",
      "type": "function"
    },
    {
      "inputs": [
        {
          "internalType": "string",
          "name": "name",
          "type": "string"
        },
        {
          "internalType": "uint256",
          "name": "duration",
          "type": "uint256"
        }
      ],
      "name": "renew",
      "outputs": [],
      "stateMutability": "payable",
      "type": "function"
    },
    {
      "inputs": [],
      "name": "renounceOwnership",
      "outputs": [],
      "stateMutability": "nonpayable",
      "type": "function"
    },
    {
      "inputs": [
        {
          "internalType": "string",
          "name": "name",
          "type": "string"
        },
        {
          "internalType": "uint256",
          "name": "duration",
          "type": "uint256"
        }
      ],
      "name": "rentPrice",
      "outputs": [
        {
          "components": [
            {
              "internalType": "uint256",
              "name": "base",
              "type": "uint256"
            },
            {
              "internalType": "uint256",
              "name": "premium",
              "type": "uint256"
            }
          ],
          "internalType": "struct IPriceOracle.Price",
          "name": "price",
          "type": "tuple"
        }
      ],
      "stateMutability": "view",
      "type": "function"
    },
    {
      "inputs": [],
      "name": "reverseRegistrar",
      "outputs": [
        {
          "internalType": "contract ReverseRegistrar",
          "name": "",
          "type": "address"
        }
      ],
      "stateMutability": "view",
      "type": "function"
    },
    {
      "inputs": [
        {
          "internalType": "address",
          "name": "_treasury",
          "type": "address"
        }
      ],
      "name": "setTreasury",
      "outputs": [],
      "stateMutability": "nonpayable",
      "type": "function"
    },
    {
      "inputs": [
        {
          "internalType": "bytes4",
          "name": "interfaceID",
          "type": "bytes4"
        }
      ],
      "name": "supportsInterface",
      "outputs": [
        {
          "internalType": "bool",
          "name": "",
          "type": "bool"
        }
      ],
      "stateMutability": "pure",
      "type": "function"
    },
    {
      "inputs": [
        {
          "internalType": "address",
          "name": "newOwner",
          "type": "address"
        }
      ],
      "name": "transferOwnership",
      "outputs": [],
      "stateMutability": "nonpayable",
      "type": "function"
    },
    {
      "inputs": [],
      "name": "treasury",
      "outputs": [
        {
          "internalType": "address",
          "name": "",
          "type": "address"
        }
      ],
      "stateMutability": "view",
      "type": "function"
    },
    {
      "inputs": [
        {
          "internalType": "string",
          "name": "name",
          "type": "string"
        }
      ],
      "name": "valid",
      "outputs": [
        {
          "internalType": "bool",
          "name": "",
          "type": "bool"
        }
      ],
      "stateMutability": "pure",
      "type": "function"
    },
    {
      "inputs": [],
      "name": "withdraw",
      "outputs": [],
      "stateMutability": "nonpayable",
      "type": "function"
    }
  ],
  "bytecode": "0x6101406040523480156200001257600080fd5b50604051620022f3380380620022f383398101604081905262000035916200024a565b81336200004281620001e1565b6040516302571be360e01b81527f91d1777781884d03a6757a803996e38de2a42967fb37eeaca72729271025a9e260048201526000906001600160a01b038416906302571be390602401602060405180830381865afa158015620000aa573d6000803e3d6000fd5b505050506040513d601f19601f82011682018060405250810190620000d09190620002f4565b90506001600160a01b038116156200015357604051630f41a04d60e11b81526001600160a01b038381166004830152821690631e83409a906024016020604051808303816000875af11580156200012b573d6000803e3d6000fd5b505050506040513d601f19601f820116820180604052508101906200015191906200031b565b505b50505085851162000177576040516307cb550760e31b815260040160405180910390fd5b428511156200019957604051630b4319e560e21b815260040160405180910390fd5b6001600160a01b0397881660805295871660a0525060c09390935260e091909152831661010052821661012052600180546001600160a01b0319169190921617905562000335565b600080546001600160a01b038381166001600160a01b0319831681178455604051919092169283917f8be0079c531659141344cd1fd0a4f28419497f9722a3daafe3b4186f6b6457e09190a35050565b6001600160a01b03811681146200024757600080fd5b50565b600080600080600080600080610100898b0312156200026857600080fd5b8851620002758162000231565b60208a0151909850620002888162000231565b8097505060408901519550606089015194506080890151620002aa8162000231565b60a08a0151909450620002bd8162000231565b60c08a0151909350620002d08162000231565b60e08a0151909250620002e38162000231565b809150509295985092959890939650565b6000602082840312156200030757600080fd5b8151620003148162000231565b9392505050565b6000602082840312156200032e57600080fd5b5051919050565b60805160a05160c05160e0516101005161012051611f1a620003d96000396000818161036b01528181610793015281816107d701528181610d080152610d5201526000818161024601526113e40152600081816103d201528181611081015261126f0152600081816102f901526112110152600081816104060152610b620152600081816108aa01528181610b9701528181610deb0152610fc60152611f1a6000f3fe6080604052600436106101355760003560e01c80638d839ffe116100ab578063aeb8ce9b1161006f578063aeb8ce9b146103a0578063ce1e09c0146103c0578063d3419bf3146103f4578063f0f4426014610428578063f14fcbc814610448578063f2fde38b1461046857600080fd5b80638d839ffe146102e75780638da5cb5b1461031b5780639791c09714610339578063a8e5fbc014610359578063acf1a8411461038d57600080fd5b8063715018a6116100fd578063715018a61461020c57806374694a2b146102215780638086985314610234578063839df9451461026857806383e7f6ff146102955780638a95b09f146102d057600080fd5b806301ffc9a71461013a5780633ccfd60b1461016f5780635d3590d51461018657806361d027b3146101a657806365a69dcf146101de575b600080fd5b34801561014657600080fd5b5061015a610155366004611599565b610488565b60405190151581526020015b60405180910390f35b34801561017b57600080fd5b506101846104bf565b005b34801561019257600080fd5b506101846101a13660046115df565b61055c565b3480156101b257600080fd5b506001546101c6906001600160a01b031681565b6040516001600160a01b039091168152602001610166565b3480156101ea57600080fd5b506101fe6101f936600461174c565b6105dd565b604051908152602001610166565b34801561021857600080fd5b50610184610662565b61018461022f36600461184f565b610676565b34801561024057600080fd5b506101c67f000000000000000000000000000000000000000000000000000000000000000081565b34801561027457600080fd5b506101fe610283366004611919565b60026020526000908152604090205481565b3480156102a157600080fd5b506102b56102b0366004611932565b610b31565b60408051825181526020928301519281019290925201610166565b3480156102dc57600080fd5b506101fe6224ea0081565b3480156102f357600080fd5b506101fe7f000000000000000000000000000000000000000000000000000000000000000081565b34801561032757600080fd5b506000546001600160a01b03166101c6565b34801561034557600080fd5b5061015a610354366004611977565b610c6b565b34801561036557600080fd5b506101c67f000000000000000000000000000000000000000000000000000000000000000081565b61018461039b3660046119ac565b610c80565b3480156103ac57600080fd5b5061015a6103bb366004611977565b610f96565b3480156103cc57600080fd5b506101fe7f000000000000000000000000000000000000000000000000000000000000000081565b34801561040057600080fd5b506101c67f000000000000000000000000000000000000000000000000000000000000000081565b34801561043457600080fd5b506101846104433660046119f8565b611040565b34801561045457600080fd5b50610184610463366004611919565b61106a565b34801561047457600080fd5b506101846104833660046119f8565b6110da565b60006001600160e01b031982166301ffc9a760e01b14806104b957506001600160e01b0319821663612e8c0960e01b145b92915050565b6001546040516000916001600160a01b03169047908381818185875af1925050503d806000811461050c576040519150601f19603f3d011682016040523d82523d6000602084013e610511565b606091505b50509050806105595760405162461bcd60e51b815260206004820152600f60248201526e15da5d1a191c985dc819985a5b1959608a1b60448201526064015b60405180910390fd5b50565b610564611150565b60405163a9059cbb60e01b81526001600160a01b0383811660048301526024820183905284169063a9059cbb906044016020604051808303816000875af11580156105b3573d6000803e3d6000fd5b505050506040513d601f19601f820116820180604052508101906105d79190611a13565b50505050565b885160208a012060009084158015906105fd57506001600160a01b038716155b1561061b576040516334fd817160e21b815260040160405180910390fd5b808a8a8a8a8a8a8a8a60405160200161063c99989796959493929190611ae8565b604051602081830303815290604052805190602001209150509998505050505050505050565b61066a611150565b61067460006111aa565b565b60006106b98b8b8080601f0160208091040260200160405190810160405280939291908181526020018383808284376000920191909152508c9250610b31915050565b602081015181519192506106cc91611b62565b3410156106ec5760405163044044a560e21b815260040160405180910390fd5b61078f8b8b8080601f016020809104026020016040519081016040528093929190818152602001838380828437600081840152601f19601f820116905080830192505050505050508961078a8e8e8080601f016020809104026020016040519081016040528093929190818152602001838380828437600081840152601f19601f820116905080830192505050505050508d8d8d8d8d8d8d8d6105dd565b6111fa565b60007f00000000000000000000000000000000000000000000000000000000000000006001600160a01b03161561086057604051635200a4c160e11b81526001600160a01b037f0000000000000000000000000000000000000000000000000000000000000000169063a401498290610816908f908f908f908f908e908b90600401611b75565b6020604051808303816000875af1158015610835573d6000803e3d6000fd5b505050506040513d601f19601f820116820180604052508101906108599190611bc0565b905061091e565b60008c8c604051610872929190611bd9565b604051908190038120633f2891eb60e21b8252600482018190526001600160a01b038d81166024840152604483018d905290925082917f00000000000000000000000000000000000000000000000000000000000000009091169063fca247ac906064016020604051808303816000875af11580156108f5573d6000803e3d6000fd5b505050506040513d601f19601f820116820180604052508101906109199190611bc0565b925050505b841561094757610947878d8d604051610938929190611bd9565b60405180910390208888611318565b8315610990576109908c8c8080601f0160208091040260200160405190810160405280939291908181526020018383808284376000920191909152508b92503391506113e29050565b896001600160a01b03168c8c6040516109aa929190611bd9565b60405180910390207f69e37f151eb98a09618ddaa80c8cfaf1ce5996867c489f45b555b412271ebf278e8e86600001518760200151876040516109f1959493929190611be9565b60405180910390a360208201518251600091610a0c91611b62565b1115610ac057600154602083015183516000926001600160a01b031691610a3291611b62565b604051600081818185875af1925050503d8060008114610a6e576040519150601f19603f3d011682016040523d82523d6000602084013e610a73565b606091505b5050905080610abe5760405162461bcd60e51b8152602060048201526017602482015276151c99585cdd5c9e481c185e5b595b9d0819985a5b1959604a1b6044820152606401610550565b505b60208201518251610ad19190611b62565b341115610b23576020820151825133916108fc91610aef9190611b62565b610af99034611c1a565b6040518115909202916000818181858888f19350505050158015610b21573d6000803e3d6000fd5b505b505050505050505050505050565b604080518082019091526000808252602082015282516020840120604051636b727d4360e11b8152600481018290527f00000000000000000000000000000000000000000000000000000000000000006001600160a01b03908116916350e9a7159187917f00000000000000000000000000000000000000000000000000000000000000009091169063d6e4fa8690602401602060405180830381865afa158015610be0573d6000803e3d6000fd5b505050506040513d601f19601f82011682018060405250810190610c049190611bc0565b866040518463ffffffff1660e01b8152600401610c2393929190611c7d565b6040805180830381865afa158015610c3f573d6000803e3d6000fd5b505050506040513d601f19601f82011682018060405250810190610c639190611ca2565b949350505050565b60006003610c7883611496565b101592915050565b60008383604051610c92929190611bd9565b604080519182900382206020601f870181900481028401810190925285835292508291600091610cdf91908890889081908401838280828437600092019190915250889250610b31915050565b8051909150341015610d045760405163044044a560e21b815260040160405180910390fd5b60007f00000000000000000000000000000000000000000000000000000000000000006001600160a01b031615610dce5760405163c475abff60e01b815260048101849052602481018690527f00000000000000000000000000000000000000000000000000000000000000006001600160a01b03169063c475abff906044016020604051808303816000875af1158015610da3573d6000803e3d6000fd5b505050506040513d601f19601f82011682018060405250810190610dc79190611bc0565b9050610e63565b60405163c475abff60e01b815260048101849052602481018690527f00000000000000000000000000000000000000000000000000000000000000006001600160a01b03169063c475abff906044016020604051808303816000875af1158015610e3c573d6000803e3d6000fd5b505050506040513d601f19601f82011682018060405250810190610e609190611bc0565b90505b815115610f0a5760015482516040516000926001600160a01b031691908381818185875af1925050503d8060008114610eb8576040519150601f19603f3d011682016040523d82523d6000602084013e610ebd565b606091505b5050905080610f085760405162461bcd60e51b8152602060048201526017602482015276151c99585cdd5c9e481c185e5b595b9d0819985a5b1959604a1b6044820152606401610550565b505b8151341115610f4f57815133906108fc90610f259034611c1a565b6040518115909202916000818181858888f19350505050158015610f4d573d6000803e3d6000fd5b505b837f3da24c024582931cfaf8267d8ed24d13a82a8068d5bd337d30ec45cea4e506ae88883485604051610f859493929190611cf1565b60405180910390a250505050505050565b80516020820120600090610fa983610c6b565b801561103957506040516312dc929d60e31b8152600481018290527f00000000000000000000000000000000000000000000000000000000000000006001600160a01b0316906396e494e890602401602060405180830381865afa158015611015573d6000803e3d6000fd5b505050506040513d601f19601f820116820180604052508101906110399190611a13565b9392505050565b611048611150565b600180546001600160a01b0319166001600160a01b0392909216919091179055565b60008181526002602052604090205442906110a6907f000000000000000000000000000000000000000000000000000000000000000090611b62565b106110c757604051630a059d7160e01b815260048101829052602401610550565b6000908152600260205260409020429055565b6110e2611150565b6001600160a01b0381166111475760405162461bcd60e51b815260206004820152602660248201527f4f776e61626c653a206e6577206f776e657220697320746865207a65726f206160448201526564647265737360d01b6064820152608401610550565b610559816111aa565b6000546001600160a01b031633146106745760405162461bcd60e51b815260206004820181905260248201527f4f776e61626c653a2063616c6c6572206973206e6f7420746865206f776e65726044820152606401610550565b600080546001600160a01b038381166001600160a01b0319831681178455604051919092169283917f8be0079c531659141344cd1fd0a4f28419497f9722a3daafe3b4186f6b6457e09190a35050565b6000818152600260205260409020544290611236907f000000000000000000000000000000000000000000000000000000000000000090611b62565b111561125857604051635320bcf960e01b815260048101829052602401610550565b6000818152600260205260409020544290611294907f000000000000000000000000000000000000000000000000000000000000000090611b62565b116112b55760405163cb7690d760e01b815260048101829052602401610550565b6112be83610f96565b6112dd57826040516308eee0fd60e31b81526004016105509190611d18565b6000818152600260205260408120556224ea0082101561131357604051639a71997b60e01b815260048101839052602401610550565b505050565b604080517fe16bcebb9fdd78a351d48e8b8c0efa4a4d222509da29d80bcbb1e2b64eac49856020808301919091528183018690528251808303840181526060830193849052805191012063e32954eb60e01b90925285906001600160a01b0382169063e32954eb9061139290859088908890606401611d2b565b6000604051808303816000875af11580156113b1573d6000803e3d6000fd5b505050506040513d6000823e601f3d908101601f191682016040526113d99190810190611d4e565b50505050505050565b7f00000000000000000000000000000000000000000000000000000000000000006001600160a01b0316637a806d6b338385876040516020016114259190611e4d565b6040516020818303038152906040526040518563ffffffff1660e01b81526004016114539493929190611e77565b6020604051808303816000875af1158015611472573d6000803e3d6000fd5b505050506040513d601f19601f820116820180604052508101906105d79190611bc0565b8051600090819081905b808210156115905760008583815181106114bc576114bc611eb5565b01602001516001600160f81b0319169050600160ff1b8110156114eb576114e4600184611b62565b925061157d565b600760fd1b6001600160f81b03198216101561150c576114e4600284611b62565b600f60fc1b6001600160f81b03198216101561152d576114e4600384611b62565b601f60fb1b6001600160f81b03198216101561154e576114e4600484611b62565b603f60fa1b6001600160f81b03198216101561156f576114e4600584611b62565b61157a600684611b62565b92505b508261158881611ecb565b9350506114a0565b50909392505050565b6000602082840312156115ab57600080fd5b81356001600160e01b03198116811461103957600080fd5b80356001600160a01b03811681146115da57600080fd5b919050565b6000806000606084860312156115f457600080fd5b6115fd846115c3565b925061160b602085016115c3565b9150604084013590509250925092565b634e487b7160e01b600052604160045260246000fd5b604051601f8201601f1916810167ffffffffffffffff8111828210171561165a5761165a61161b565b604052919050565b600067ffffffffffffffff82111561167c5761167c61161b565b50601f01601f191660200190565b600082601f83011261169b57600080fd5b81356116ae6116a982611662565b611631565b8181528460208386010111156116c357600080fd5b816020850160208301376000918101602001919091529392505050565b60008083601f8401126116f257600080fd5b50813567ffffffffffffffff81111561170a57600080fd5b6020830191508360208260051b850101111561172557600080fd5b9250929050565b801515811461055957600080fd5b803561ffff811681146115da57600080fd5b60008060008060008060008060006101008a8c03121561176b57600080fd5b893567ffffffffffffffff8082111561178357600080fd5b61178f8d838e0161168a565b9a5061179d60208d016115c3565b995060408c0135985060608c013597506117b960808d016115c3565b965060a08c01359150808211156117cf57600080fd5b506117dc8c828d016116e0565b90955093505060c08a01356117f08161172c565b91506117fe60e08b0161173a565b90509295985092959850929598565b60008083601f84011261181f57600080fd5b50813567ffffffffffffffff81111561183757600080fd5b60208301915083602082850101111561172557600080fd5b6000806000806000806000806000806101008b8d03121561186f57600080fd5b8a3567ffffffffffffffff8082111561188757600080fd5b6118938e838f0161180d565b909c509a508a91506118a760208e016115c3565b995060408d0135985060608d013597506118c360808e016115c3565b965060a08d01359150808211156118d957600080fd5b506118e68d828e016116e0565b90955093505060c08b01356118fa8161172c565b915061190860e08c0161173a565b90509295989b9194979a5092959850565b60006020828403121561192b57600080fd5b5035919050565b6000806040838503121561194557600080fd5b823567ffffffffffffffff81111561195c57600080fd5b6119688582860161168a565b95602094909401359450505050565b60006020828403121561198957600080fd5b813567ffffffffffffffff8111156119a057600080fd5b610c638482850161168a565b6000806000604084860312156119c157600080fd5b833567ffffffffffffffff8111156119d857600080fd5b6119e48682870161180d565b909790965060209590950135949350505050565b600060208284031215611a0a57600080fd5b611039826115c3565b600060208284031215611a2557600080fd5b81516110398161172c565b81835281816020850137506000828201602090810191909152601f909101601f19169091010190565b818352600060208085019450848460051b86018460005b87811015611adb5783830389528135601e19883603018112611a9157600080fd5b8701858101903567ffffffffffffffff811115611aad57600080fd5b803603821315611abc57600080fd5b611ac7858284611a30565b9a87019a9450505090840190600101611a70565b5090979650505050505050565b8981526001600160a01b03898116602083015260408201899052606082018890528616608082015261010060a08201819052600090611b2a8382018789611a59565b94151560c0840152505061ffff9190911660e090910152979650505050505050565b634e487b7160e01b600052601160045260246000fd5b808201808211156104b9576104b9611b4c565b60a081526000611b8960a08301888a611a30565b6001600160a01b03968716602084015260408301959095525091909316606082015261ffff90921660809092019190915292915050565b600060208284031215611bd257600080fd5b5051919050565b8183823760009101908152919050565b608081526000611bfd608083018789611a30565b602083019590955250604081019290925260609091015292915050565b818103818111156104b9576104b9611b4c565b60005b83811015611c48578181015183820152602001611c30565b50506000910152565b60008151808452611c69816020860160208601611c2d565b601f01601f19169290920160200192915050565b606081526000611c906060830186611c51565b60208301949094525060400152919050565b600060408284031215611cb457600080fd5b6040516040810181811067ffffffffffffffff82111715611cd757611cd761161b565b604052825181526020928301519281019290925250919050565b606081526000611d05606083018688611a30565b6020830194909452506040015292915050565b6020815260006110396020830184611c51565b838152604060208201526000611d45604083018486611a59565b95945050505050565b60006020808385031215611d6157600080fd5b825167ffffffffffffffff80821115611d7957600080fd5b818501915085601f830112611d8d57600080fd5b815181811115611d9f57611d9f61161b565b8060051b611dae858201611631565b9182528381018501918581019089841115611dc857600080fd5b86860192505b83831015611e4057825185811115611de65760008081fd5b8601603f81018b13611df85760008081fd5b878101516040611e0a6116a983611662565b8281528d82848601011115611e1f5760008081fd5b611e2e838c8301848701611c2d565b85525050509186019190860190611dce565b9998505050505050505050565b60008251611e5f818460208701611c2d565b650b9d1c9d5cdd60d21b920191825250600601919050565b6001600160a01b038581168252848116602083015283166040820152608060608201819052600090611eab90830184611c51565b9695505050505050565b634e487b7160e01b600052603260045260246000fd5b600060018201611edd57611edd611b4c565b506001019056fea264697066735822122043dfba496edf0aa96f31b5bb9bb6ad15b2d9014d2787ccea0c76881e29b6a15564736f6c63430008110033",
  "linkReferences": {},
  "deployedLinkReferences": {}
}