{
  "_format": "hh-sol-artifact-1",
  "contractName": "NameWrapper",
  "sourceName": "wrapper/NameWrapper.sol",
  "abi": [
    {
      "inputs": [
        {
          "internalType": "contract TNS",
          "name": "_tns",
          "type": "address"
        },
        {
          "internalType": "contract IBaseRegistrar",
          "name": "_registrar",
          "type": "address"
        },
        {
          "internalType": "string",
          "name": "_metadataUrl",
          "type": "string"
        }
      ],
      "stateMutability": "nonpayable",
      "type": "constructor"
    },
    {
      "anonymous": false,
      "inputs": [
        {
          "indexed": true,
          "internalType": "address",
          "name": "account",
          "type": "address"
        },
        {
          "indexed": true,
          "internalType": "address",
          "name": "operator",
          "type": "address"
        },
        {
          "indexed": false,
          "internalType": "bool",
          "name": "approved",
          "type": "bool"
        }
      ],
      "name": "ApprovalForAll",
      "type": "event"
    },
    {
      "anonymous": false,
      "inputs": [
        {
          "indexed": true,
          "internalType": "address",
          "name": "controller",
          "type": "address"
        },
        {
          "indexed": false,
          "internalType": "bool",
          "name": "active",
          "type": "bool"
        }
      ],
      "name": "ControllerChanged",
      "type": "event"
    },
    {
      "anonymous": false,
      "inputs": [
        {
          "indexed": true,
          "internalType": "bytes32",
          "name": "node",
          "type": "bytes32"
        },
        {
          "indexed": false,
          "internalType": "uint64",
          "name": "expiry",
          "type": "uint64"
        }
      ],
      "name": "ExpiryExtended",
      "type": "event"
    },
    {
      "anonymous": false,
      "inputs": [
        {
          "indexed": true,
          "internalType": "bytes32",
          "name": "node",
          "type": "bytes32"
        },
        {
          "indexed": false,
          "internalType": "uint32",
          "name": "fuses",
          "type": "uint32"
        }
      ],
      "name": "FusesSet",
      "type": "event"
    },
    {
      "anonymous": false,
      "inputs": [
        {
          "indexed": true,
          "internalType": "bytes32",
          "name": "node",
          "type": "bytes32"
        },
        {
          "indexed": false,
          "internalType": "address",
          "name": "owner",
          "type": "address"
        }
      ],
      "name": "NameUnwrapped",
      "type": "event"
    },
    {
      "anonymous": false,
      "inputs": [
        {
          "indexed": true,
          "internalType": "bytes32",
          "name": "node",
          "type": "bytes32"
        },
        {
          "indexed": false,
          "internalType": "bytes",
          "name": "name",
          "type": "bytes"
        },
        {
          "indexed": false,
          "internalType": "address",
          "name": "owner",
          "type": "address"
        },
        {
          "indexed": false,
          "internalType": "uint32",
          "name": "fuses",
          "type": "uint32"
        },
        {
          "indexed": false,
          "internalType": "uint64",
          "name": "expiry",
          "type": "uint64"
        }
      ],
      "name": "NameWrapped",
      "type": "event"
    },
    {
      "anonymous": false,
      "inputs": [
        {
          "indexed": true,
          "internalType": "address",
          "name": "previousOwner",
          "type": "address"
        },
        {
          "indexed": true,
          "internalType": "address",
          "name": "newOwner",
          "type": "address"
        }
      ],
      "name": "OwnershipTransferred",
      "type": "event"
    },
    {
      "anonymous": false,
      "inputs": [
        {
          "indexed": true,
          "internalType": "address",
          "name": "operator",
          "type": "address"
        },
        {
          "indexed": true,
          "internalType": "address",
          "name": "from",
          "type": "address"
        },
        {
          "indexed": true,
          "internalType": "address",
          "name": "to",
          "type": "address"
        },
        {
          "indexed": false,
          "internalType": "uint256[]",
          "name": "ids",
          "type": "uint256[]"
        },
        {
          "indexed": false,
          "internalType": "uint256[]",
          "name": "values",
          "type": "uint256[]"
        }
      ],
      "name": "TransferBatch",
      "type": "event"
    },
    {
      "anonymous": false,
      "inputs": [
        {
          "indexed": true,
          "internalType": "address",
          "name": "operator",
          "type": "address"
        },
        {
          "indexed": true,
          "internalType": "address",
          "name": "from",
          "type": "address"
        },
        {
          "indexed": true,
          "internalType": "address",
          "name": "to",
          "type": "address"
        },
        {
          "indexed": false,
          "internalType": "uint256",
          "name": "id",
          "type": "uint256"
        },
        {
          "indexed": false,
          "internalType": "uint256",
          "name": "value",
          "type": "uint256"
        }
      ],
      "name": "TransferSingle",
      "type": "event"
    },
    {
      "anonymous": false,
      "inputs": [
        {
          "indexed": false,
          "internalType": "string",
          "name": "value",
          "type": "string"
        },
        {
          "indexed": true,
          "internalType": "uint256",
          "name": "id",
          "type": "uint256"
        }
      ],
      "name": "URI",
      "type": "event"
    },
    {
      "inputs": [
        {
          "internalType": "bytes32",
          "name": "",
          "type": "bytes32"
        }
      ],
      "name": "allFusesBurned",
      "outputs": [
        {
          "internalType": "uint32",
          "name": "",
          "type": "uint32"
        }
      ],
      "stateMutability": "view",
      "type": "function"
    },
    {
      "inputs": [
        {
          "internalType": "address",
          "name": "account",
          "type": "address"
        },
        {
          "internalType": "uint256",
          "name": "id",
          "type": "uint256"
        }
      ],
      "name": "balanceOf",
      "outputs": [
        {
          "internalType": "uint256",
          "name": "",
          "type": "uint256"
        }
      ],
      "stateMutability": "view",
      "type": "function"
    },
    {
      "inputs": [
        {
          "internalType": "address[]",
          "name": "accounts",
          "type": "address[]"
        },
        {
          "internalType": "uint256[]",
          "name": "ids",
          "type": "uint256[]"
        }
      ],
      "name": "balanceOfBatch",
      "outputs": [
        {
          "internalType": "uint256[]",
          "name": "",
          "type": "uint256[]"
        }
      ],
      "stateMutability": "view",
      "type": "function"
    },
    {
      "inputs": [
        {
          "internalType": "address",
          "name": "",
          "type": "address"
        }
      ],
      "name": "controllers",
      "outputs": [
        {
          "internalType": "bool",
          "name": "",
          "type": "bool"
        }
      ],
      "stateMutability": "view",
      "type": "function"
    },
    {
      "inputs": [
        {
          "internalType": "bytes32",
          "name": "",
          "type": "bytes32"
        }
      ],
      "name": "expiryOf",
      "outputs": [
        {
          "internalType": "uint64",
          "name": "",
          "type": "uint64"
        }
      ],
      "stateMutability": "view",
      "type": "function"
    },
    {
      "inputs": [
        {
          "internalType": "address",
          "name": "account",
          "type": "address"
        },
        {
          "internalType": "address",
          "name": "operator",
          "type": "address"
        }
      ],
      "name": "isApprovedForAll",
      "outputs": [
        {
          "internalType": "bool",
          "name": "",
          "type": "bool"
        }
      ],
      "stateMutability": "view",
      "type": "function"
    },
    {
      "inputs": [],
      "name": "owner",
      "outputs": [
        {
          "internalType": "address",
          "name": "",
          "type": "address"
        }
      ],
      "stateMutability": "view",
      "type": "function"
    },
    {
      "inputs": [
        {
          "internalType": "string",
          "name": "label",
          "type": "string"
        },
        {
          "internalType": "address",
          "name": "wrappedOwner",
          "type": "address"
        },
        {
          "internalType": "uint256",
          "name": "duration",
          "type": "uint256"
        },
        {
          "internalType": "address",
          "name": "resolver",
          "type": "address"
        },
        {
          "internalType": "uint16",
          "name": "ownerControlledFuses",
          "type": "uint16"
        }
      ],
      "name": "registerAndWrapETH2LD",
      "outputs": [
        {
          "internalType": "uint256",
          "name": "registrarExpiry",
          "type": "uint256"
        }
      ],
      "stateMutability": "nonpayable",
      "type": "function"
    },
    {
      "inputs": [],
      "name": "registrar",
      "outputs": [
        {
          "internalType": "contract IBaseRegistrar",
          "name": "",
          "type": "address"
        }
      ],
      "stateMutability": "view",
      "type": "function"
    },
    {
      "inputs": [
        {
          "internalType": "uint256",
          "name": "tokenId",
          "type": "uint256"
        },
        {
          "internalType": "uint256",
          "name": "duration",
          "type": "uint256"
        }
      ],
      "name": "renew",
      "outputs": [
        {
          "internalType": "uint256",
          "name": "expires",
          "type": "uint256"
        }
      ],
      "stateMutability": "nonpayable",
      "type": "function"
    },
    {
      "inputs": [],
      "name": "renounceOwnership",
      "outputs": [],
      "stateMutability": "nonpayable",
      "type": "function"
    },
    {
      "inputs": [
        {
          "internalType": "address",
          "name": "from",
          "type": "address"
        },
        {
          "internalType": "address",
          "name": "to",
          "type": "address"
        },
        {
          "internalType": "uint256[]",
          "name": "ids",
          "type": "uint256[]"
        },
        {
          "internalType": "uint256[]",
          "name": "amounts",
          "type": "uint256[]"
        },
        {
          "internalType": "bytes",
          "name": "data",
          "type": "bytes"
        }
      ],
      "name": "safeBatchTransferFrom",
      "outputs": [],
      "stateMutability": "nonpayable",
      "type": "function"
    },
    {
      "inputs": [
        {
          "internalType": "address",
          "name": "from",
          "type": "address"
        },
        {
          "internalType": "address",
          "name": "to",
          "type": "address"
        },
        {
          "internalType": "uint256",
          "name": "id",
          "type": "uint256"
        },
        {
          "internalType": "uint256",
          "name": "amount",
          "type": "uint256"
        },
        {
          "internalType": "bytes",
          "name": "data",
          "type": "bytes"
        }
      ],
      "name": "safeTransferFrom",
      "outputs": [],
      "stateMutability": "nonpayable",
      "type": "function"
    },
    {
      "inputs": [
        {
          "internalType": "address",
          "name": "operator",
          "type": "address"
        },
        {
          "internalType": "bool",
          "name": "approved",
          "type": "bool"
        }
      ],
      "name": "setApprovalForAll",
      "outputs": [],
      "stateMutability": "nonpayable",
      "type": "function"
    },
    {
      "inputs": [
        {
          "internalType": "address",
          "name": "controller",
          "type": "address"
        },
        {
          "internalType": "bool",
          "name": "active",
          "type": "bool"
        }
      ],
      "name": "setController",
      "outputs": [],
      "stateMutability": "nonpayable",
      "type": "function"
    },
    {
      "inputs": [
        {
          "internalType": "bytes32",
          "name": "node",
          "type": "bytes32"
        },
        {
          "internalType": "uint16",
          "name": "ownerControlledFuses",
          "type": "uint16"
        }
      ],
      "name": "setFuses",
      "outputs": [
        {
          "internalType": "uint32",
          "name": "newFuses",
          "type": "uint32"
        }
      ],
      "stateMutability": "nonpayable",
      "type": "function"
    },
    {
      "inputs": [
        {
          "internalType": "bytes32",
          "name": "node",
          "type": "bytes32"
        },
        {
          "internalType": "address",
          "name": "resolver",
          "type": "address"
        }
      ],
      "name": "setResolver",
      "outputs": [],
      "stateMutability": "nonpayable",
      "type": "function"
    },
    {
      "inputs": [
        {
          "internalType": "bytes32",
          "name": "parentNode",
          "type": "bytes32"
        },
        {
          "internalType": "string",
          "name": "label",
          "type": "string"
        },
        {
          "internalType": "address",
          "name": "owner",
          "type": "address"
        },
        {
          "internalType": "uint32",
          "name": "fuses",
          "type": "uint32"
        },
        {
          "internalType": "uint64",
          "name": "expiry",
          "type": "uint64"
        }
      ],
      "name": "setSubnodeOwner",
      "outputs": [
        {
          "internalType": "bytes32",
          "name": "node",
          "type": "bytes32"
        }
      ],
      "stateMutability": "nonpayable",
      "type": "function"
    },
    {
      "inputs": [
        {
          "internalType": "bytes32",
          "name": "parentNode",
          "type": "bytes32"
        },
        {
          "internalType": "string",
          "name": "label",
          "type": "string"
        },
        {
          "internalType": "address",
          "name": "owner",
          "type": "address"
        },
        {
          "internalType": "address",
          "name": "resolver",
          "type": "address"
        },
        {
          "internalType": "uint64",
          "name": "ttl",
          "type": "uint64"
        },
        {
          "internalType": "uint32",
          "name": "fuses",
          "type": "uint32"
        },
        {
          "internalType": "uint64",
          "name": "expiry",
          "type": "uint64"
        }
      ],
      "name": "setSubnodeRecord",
      "outputs": [
        {
          "internalType": "bytes32",
          "name": "node",
          "type": "bytes32"
        }
      ],
      "stateMutability": "nonpayable",
      "type": "function"
    },
    {
      "inputs": [
        {
          "internalType": "bytes4",
          "name": "interfaceId",
          "type": "bytes4"
        }
      ],
      "name": "supportsInterface",
      "outputs": [
        {
          "internalType": "bool",
          "name": "",
          "type": "bool"
        }
      ],
      "stateMutability": "view",
      "type": "function"
    },
    {
      "inputs": [],
      "name": "tns",
      "outputs": [
        {
          "internalType": "contract TNS",
          "name": "",
          "type": "address"
        }
      ],
      "stateMutability": "view",
      "type": "function"
    },
    {
      "inputs": [
        {
          "internalType": "address",
          "name": "newOwner",
          "type": "address"
        }
      ],
      "name": "transferOwnership",
      "outputs": [],
      "stateMutability": "nonpayable",
      "type": "function"
    },
    {
      "inputs": [
        {
          "internalType": "bytes32",
          "name": "node",
          "type": "bytes32"
        },
        {
          "internalType": "address",
          "name": "newOwner",
          "type": "address"
        }
      ],
      "name": "unwrap",
      "outputs": [],
      "stateMutability": "nonpayable",
      "type": "function"
    },
    {
      "inputs": [
        {
          "internalType": "bytes32",
          "name": "parentNode",
          "type": "bytes32"
        },
        {
          "internalType": "string",
          "name": "label",
          "type": "string"
        },
        {
          "internalType": "address",
          "name": "wrappedOwner",
          "type": "address"
        },
        {
          "internalType": "address",
          "name": "resolver",
          "type": "address"
        }
      ],
      "name": "upgrade",
      "outputs": [],
      "stateMutability": "nonpayable",
      "type": "function"
    },
    {
      "inputs": [
        {
          "internalType": "uint256",
          "name": "",
          "type": "uint256"
        }
      ],
      "name": "uri",
      "outputs": [
        {
          "internalType": "string",
          "name": "",
          "type": "string"
        }
      ],
      "stateMutability": "view",
      "type": "function"
    }
  ],
  "bytecode": "0x60c06040523480156200001157600080fd5b5060405162002bd738038062002bd78339810160408190526200003491620000f8565b80620000408162000065565b506200004c3362000077565b506001600160a01b039182166080521660a05262000353565b600262000073828262000287565b5050565b600380546001600160a01b038381166001600160a01b0319831681179093556040519116919082907f8be0079c531659141344cd1fd0a4f28419497f9722a3daafe3b4186f6b6457e090600090a35050565b6001600160a01b0381168114620000df57600080fd5b50565b634e487b7160e01b600052604160045260246000fd5b6000806000606084860312156200010e57600080fd5b83516200011b81620000c9565b809350506020808501516200013081620000c9565b60408601519093506001600160401b03808211156200014e57600080fd5b818701915087601f8301126200016357600080fd5b815181811115620001785762000178620000e2565b604051601f8201601f19908116603f01168101908382118183101715620001a357620001a3620000e2565b816040528281528a86848701011115620001bc57600080fd5b600093505b82841015620001e05784840186015181850187015292850192620001c1565b60008684830101528096505050505050509250925092565b600181811c908216806200020d57607f821691505b6020821081036200022e57634e487b7160e01b600052602260045260246000fd5b50919050565b601f8211156200028257600081815260208120601f850160051c810160208610156200025d5750805b601f850160051c820191505b818110156200027e5782815560010162000269565b5050505b505050565b81516001600160401b03811115620002a357620002a3620000e2565b620002bb81620002b48454620001f8565b8462000234565b602080601f831160018114620002f35760008415620002da5750858301515b600019600386901b1c1916600185901b1785556200027e565b600085815260208120601f198616915b82811015620003245788860151825594840194600190910190840162000303565b5085821015620003435787850151600019600388901b60f8161c191681555b5050505050600190811b01905550565b60805160a05161282d620003aa6000396000818161020d015281816109ef0152610d710152600081816102e8015281816105d9015281816106d501528181610b4501528181610c650152610f41015261282d6000f3fe608060405234801561001057600080fd5b50600436106101725760003560e01c80638da5cb5b116100de578063d12aecd211610097578063e985e9c511610071578063e985e9c5146103de578063ee7eba781461041a578063f242432a1461042f578063f2fde38b1461044257600080fd5b8063d12aecd214610382578063da8c229e146103a8578063e0dba60f146103cb57600080fd5b80638da5cb5b14610312578063a22cb46514610323578063a401498214610336578063b978167814610349578063c475abff1461035c578063c658e0861461036f57600080fd5b80632eb2c2d6116101305780632eb2c2d614610247578063402906fc1461025a57806340711fb0146102825780634e1273f4146102c35780636c7a8d7e146102e3578063715018a61461030a57600080fd5b8062fdd58e1461017757806301ffc9a71461019d5780630e89341c146101c05780631896f70a146101e057806324c1af44146101f55780632b20e39714610208575b600080fd5b61018a610185366004611ba6565b610455565b6040519081526020015b60405180910390f35b6101b06101ab366004611be6565b6104ee565b6040519015158152602001610194565b6101d36101ce366004611c03565b6104f9565b6040516101949190611c62565b6101f36101ee366004611c75565b61058d565b005b61018a610203366004611d14565b610639565b61022f7f000000000000000000000000000000000000000000000000000000000000000081565b6040516001600160a01b039091168152602001610194565b6101f3610255366004611efc565b61073f565b61026d610268366004611fb7565b610784565b60405163ffffffff9091168152602001610194565b6102ab610290366004611c03565b6005602052600090815260409020546001600160401b031681565b6040516001600160401b039091168152602001610194565b6102d66102d1366004611fda565b610814565b60405161019491906120df565b61022f7f000000000000000000000000000000000000000000000000000000000000000081565b6101f361093d565b6003546001600160a01b031661022f565b6101f36103313660046120f2565b610951565b61018a61034436600461212e565b610960565b6101f3610357366004611c75565b610bee565b61018a61036a3660046121ab565b610d04565b61018a61037d3660046121cd565b610ea8565b61026d610390366004611c03565b60046020526000908152604090205463ffffffff1681565b6101b06103b636600461223e565b60066020526000908152604090205460ff1681565b6101f36103d93660046120f2565b611068565b6101b06103ec366004612259565b6001600160a01b03918216600090815260016020908152604080832093909416825291909152205460ff1690565b6101f3610428366004612283565b5050505050565b6101f361043d3660046122f1565b6110c8565b6101f361045036600461223e565b61110d565b60006001600160a01b0383166104c55760405162461bcd60e51b815260206004820152602a60248201527f455243313135353a2061646472657373207a65726f206973206e6f742061207660448201526930b634b21037bbb732b960b11b60648201526084015b60405180910390fd5b506000818152602081815260408083206001600160a01b03861684529091529020545b92915050565b60006104e882611186565b60606002805461050890612355565b80601f016020809104026020016040519081016040528092919081815260200182805461053490612355565b80156105815780601f1061055657610100808354040283529160200191610581565b820191906000526020600020905b81548152906001019060200180831161056457829003601f168201915b50505050509050919050565b61059782336111d6565b6105b35760405162461bcd60e51b81526004016104bc9061238f565b604051630c4b7b8560e11b8152600481018390526001600160a01b0382811660248301527f00000000000000000000000000000000000000000000000000000000000000001690631896f70a90604401600060405180830381600087803b15801561061d57600080fd5b505af1158015610631573d6000803e3d6000fd5b505050505050565b60405163632c704360e11b8152600090309063c658e08690610669908c908c908c908c908a908a906004016123de565b6020604051808303816000875af1158015610688573d6000803e3d6000fd5b505050506040513d601f19601f820116820180604052508101906106ac919061242e565b604051630c4b7b8560e11b8152600481018290526001600160a01b0387811660248301529192507f000000000000000000000000000000000000000000000000000000000000000090911690631896f70a90604401600060405180830381600087803b15801561071b57600080fd5b505af115801561072f573d6000803e3d6000fd5b5050505098975050505050505050565b6001600160a01b03851633148061075b575061075b85336103ec565b6107775760405162461bcd60e51b81526004016104bc90612447565b610428858585858561120e565b600061079083336111d6565b6107ac5760405162461bcd60e51b81526004016104bc9061238f565b50600082815260046020908152604091829020805461ffff851663ffffffff82161763ffffffff199091168117909155915182815284917f39873f00c80f4f94b7bd1594aebcf650f003545b74824d57ddf4939e3ff3a34b910160405180910390a292915050565b606081518351146108795760405162461bcd60e51b815260206004820152602960248201527f455243313135353a206163636f756e747320616e6420696473206c656e677468604482015268040dad2e6dac2e8c6d60bb1b60648201526084016104bc565b600083516001600160401b0381111561089457610894611db3565b6040519080825280602002602001820160405280156108bd578160200160208202803683370190505b50905060005b8451811015610935576109088582815181106108e1576108e1612495565b60200260200101518583815181106108fb576108fb612495565b6020026020010151610455565b82828151811061091a5761091a612495565b602090810291909101015261092e816124c1565b90506108c3565b509392505050565b6109456113e3565b61094f600061143d565b565b61095c33838361148f565b5050565b3360009081526006602052604081205460ff166109b05760405162461bcd60e51b815260206004820152600e60248201526d2737ba1031b7b73a3937b63632b960911b60448201526064016104bc565b600087876040516109c29291906124da565b604051908190038120633f2891eb60e21b82526004820181905230602483015260448201879052915081907f00000000000000000000000000000000000000000000000000000000000000006001600160a01b03169063fca247ac906064016020604051808303816000875af1158015610a40573d6000803e3d6000fd5b505050506040513d601f19601f82011682018060405250810190610a64919061242e565b92506000610ab97fe16bcebb9fdd78a351d48e8b8c0efa4a4d222509da29d80bcbb1e2b64eac498584604080516020808201949094528082019290925280518083038201815260609092019052805191012090565b9050610ada888260001c60016040518060200160405280600081525061156f565b6000818152600460208181526040808420805461ffff8b1663ffffffff19909116179055600590915291829020805467ffffffffffffffff19166001600160401b0388161790559051630c4b7b8560e11b81529081018290526001600160a01b0387811660248301527f00000000000000000000000000000000000000000000000000000000000000001690631896f70a90604401600060405180830381600087803b158015610b8957600080fd5b505af1158015610b9d573d6000803e3d6000fd5b50505050807f8ce7013e8abebc55c3890a68f5a27c67c3f7efa64e584de5fb22363c606fd3408b8b8b8989604051610bd99594939291906124ea565b60405180910390a25050509695505050505050565b6000610bfa3384610455565b11610c335760405162461bcd60e51b81526020600482015260096024820152682737ba1037bbb732b960b91b60448201526064016104bc565b610c3f33836001611683565b604051635b0fc9c360e01b8152600481018390526001600160a01b0382811660248301527f00000000000000000000000000000000000000000000000000000000000000001690635b0fc9c390604401600060405180830381600087803b158015610ca957600080fd5b505af1158015610cbd573d6000803e3d6000fd5b50506040516001600160a01b03841681528492507fee2ba1195c65bcf218a83d874335c6bf9d9067b4c672f3c3bf16cf40de7586c491506020015b60405180910390a25050565b3360009081526006602052604081205460ff16610d545760405162461bcd60e51b815260206004820152600e60248201526d2737ba1031b7b73a3937b63632b960911b60448201526064016104bc565b60405163c475abff60e01b815260048101849052602481018390527f00000000000000000000000000000000000000000000000000000000000000006001600160a01b03169063c475abff906044016020604051808303816000875af1158015610dc2573d6000803e3d6000fd5b505050506040513d601f19601f82011682018060405250810190610de6919061242e565b9050826000610e3c7fe16bcebb9fdd78a351d48e8b8c0efa4a4d222509da29d80bcbb1e2b64eac498583604080516020808201949094528082019290925280518083038201815260609092019052805191012090565b600081815260056020908152604091829020805467ffffffffffffffff19166001600160401b038816908117909155915191825291925082917ff675815a0817338f93a7da433f6bd5f5542f1029b11b455191ac96c7f6a9b132910160405180910390a2505092915050565b6000808686604051610ebb9291906124da565b60405180910390209050610ef68882604080516020808201949094528082019290925280518083038201815260609092019052805191012090565b9150610f0288336111d6565b610f1e5760405162461bcd60e51b81526004016104bc9061238f565b6040516306ab592360e01b815260048101899052602481018290523060448201527f00000000000000000000000000000000000000000000000000000000000000006001600160a01b0316906306ab5923906064016020604051808303816000875af1158015610f92573d6000803e3d6000fd5b505050506040513d601f19601f82011682018060405250810190610fb6919061242e565b50610fd6858360001c60016040518060200160405280600081525061156f565b6000828152600460209081526040808320805463ffffffff191663ffffffff8916179055600590915290819020805467ffffffffffffffff19166001600160401b0386161790555182907f8ce7013e8abebc55c3890a68f5a27c67c3f7efa64e584de5fb22363c606fd34090611055908a908a908a908a908a90612531565b60405180910390a2509695505050505050565b6110706113e3565b6001600160a01b038216600081815260066020908152604091829020805460ff191685151590811790915591519182527f4c97694570a07277810af7e5669ffd5f6a2d6b74b6e9a274b8b870fd5114cf879101610cf8565b6001600160a01b0385163314806110e457506110e485336103ec565b6111005760405162461bcd60e51b81526004016104bc90612447565b61042885858585856117ff565b6111156113e3565b6001600160a01b03811661117a5760405162461bcd60e51b815260206004820152602660248201527f4f776e61626c653a206e6577206f776e657220697320746865207a65726f206160448201526564647265737360d01b60648201526084016104bc565b6111838161143d565b50565b60006001600160e01b03198216636cdb3d1360e11b14806111b757506001600160e01b031982166303a24d0760e21b145b806104e857506301ffc9a760e01b6001600160e01b03198316146104e8565b6000806111e38385610455565b118061120757506001600160a01b03821660009081526006602052604090205460ff165b9392505050565b81518351146112705760405162461bcd60e51b815260206004820152602860248201527f455243313135353a2069647320616e6420616d6f756e7473206c656e677468206044820152670dad2e6dac2e8c6d60c31b60648201526084016104bc565b6001600160a01b0384166112965760405162461bcd60e51b81526004016104bc9061257a565b3360005b845181101561137d5760008582815181106112b7576112b7612495565b6020026020010151905060008583815181106112d5576112d5612495565b602090810291909101810151600084815280835260408082206001600160a01b038e1683529093529190912054909150818110156113255760405162461bcd60e51b81526004016104bc906125bf565b6000838152602081815260408083206001600160a01b038e8116855292528083208585039055908b16825281208054849290611362908490612609565b9250508190555050505080611376906124c1565b905061129a565b50846001600160a01b0316866001600160a01b0316826001600160a01b03167f4a39dc06d4c0dbc64b70af90fd698a233a518aa5d07e595d983b8c0526c8f7fb87876040516113cd92919061261c565b60405180910390a4610631818787878787611929565b6003546001600160a01b0316331461094f5760405162461bcd60e51b815260206004820181905260248201527f4f776e61626c653a2063616c6c6572206973206e6f7420746865206f776e657260448201526064016104bc565b600380546001600160a01b038381166001600160a01b0319831681179093556040519116919082907f8be0079c531659141344cd1fd0a4f28419497f9722a3daafe3b4186f6b6457e090600090a35050565b816001600160a01b0316836001600160a01b0316036115025760405162461bcd60e51b815260206004820152602960248201527f455243313135353a2073657474696e6720617070726f76616c20737461747573604482015268103337b91039b2b63360b91b60648201526084016104bc565b6001600160a01b03838116600081815260016020908152604080832094871680845294825291829020805460ff191686151590811790915591519182527f17307eab39ab6107e8899845ad3d59bd9653f200f220920489ca2b5937696c31910160405180910390a3505050565b6001600160a01b0384166115cf5760405162461bcd60e51b815260206004820152602160248201527f455243313135353a206d696e7420746f20746865207a65726f206164647265736044820152607360f81b60648201526084016104bc565b3360006115db85611a84565b905060006115e885611a84565b90506000868152602081815260408083206001600160a01b038b1684529091528120805487929061161a908490612609565b909155505060408051878152602081018790526001600160a01b03808a1692600092918716917fc3d58168c5ae7397731d063d5bbf3d657854427343f4c083240f7aacaa2d0f62910160405180910390a461167a83600089898989611acf565b50505050505050565b6001600160a01b0383166116e55760405162461bcd60e51b815260206004820152602360248201527f455243313135353a206275726e2066726f6d20746865207a65726f206164647260448201526265737360e81b60648201526084016104bc565b3360006116f184611a84565b905060006116fe84611a84565b60408051602080820183526000918290528882528181528282206001600160a01b038b16835290522054909150848110156117875760405162461bcd60e51b8152602060048201526024808201527f455243313135353a206275726e20616d6f756e7420657863656564732062616c604482015263616e636560e01b60648201526084016104bc565b6000868152602081815260408083206001600160a01b038b81168086529184528285208a8703905582518b81529384018a90529092908816917fc3d58168c5ae7397731d063d5bbf3d657854427343f4c083240f7aacaa2d0f62910160405180910390a460408051602081019091526000905261167a565b6001600160a01b0384166118255760405162461bcd60e51b81526004016104bc9061257a565b33600061183185611a84565b9050600061183e85611a84565b90506000868152602081815260408083206001600160a01b038c168452909152902054858110156118815760405162461bcd60e51b81526004016104bc906125bf565b6000878152602081815260408083206001600160a01b038d8116855292528083208985039055908a168252812080548892906118be908490612609565b909155505060408051888152602081018890526001600160a01b03808b16928c821692918816917fc3d58168c5ae7397731d063d5bbf3d657854427343f4c083240f7aacaa2d0f62910160405180910390a461191e848a8a8a8a8a611acf565b505050505050505050565b6001600160a01b0384163b156106315760405163bc197c8160e01b81526001600160a01b0385169063bc197c819061196d908990899088908890889060040161264a565b6020604051808303816000875af19250505080156119a8575060408051601f3d908101601f191682019092526119a5918101906126a8565b60015b611a54576119b46126c5565b806308c379a0036119ed57506119c86126e1565b806119d357506119ef565b8060405162461bcd60e51b81526004016104bc9190611c62565b505b60405162461bcd60e51b815260206004820152603460248201527f455243313135353a207472616e7366657220746f206e6f6e2d455243313135356044820152732932b1b2b4bb32b91034b6b83632b6b2b73a32b960611b60648201526084016104bc565b6001600160e01b0319811663bc197c8160e01b1461167a5760405162461bcd60e51b81526004016104bc9061276a565b60408051600180825281830190925260609160009190602080830190803683370190505090508281600081518110611abe57611abe612495565b602090810291909101015292915050565b6001600160a01b0384163b156106315760405163f23a6e6160e01b81526001600160a01b0385169063f23a6e6190611b1390899089908890889088906004016127b2565b6020604051808303816000875af1925050508015611b4e575060408051601f3d908101601f19168201909252611b4b918101906126a8565b60015b611b5a576119b46126c5565b6001600160e01b0319811663f23a6e6160e01b1461167a5760405162461bcd60e51b81526004016104bc9061276a565b80356001600160a01b0381168114611ba157600080fd5b919050565b60008060408385031215611bb957600080fd5b611bc283611b8a565b946020939093013593505050565b6001600160e01b03198116811461118357600080fd5b600060208284031215611bf857600080fd5b813561120781611bd0565b600060208284031215611c1557600080fd5b5035919050565b6000815180845260005b81811015611c4257602081850181015186830182015201611c26565b506000602082860101526020601f19601f83011685010191505092915050565b6020815260006112076020830184611c1c565b60008060408385031215611c8857600080fd5b82359150611c9860208401611b8a565b90509250929050565b60008083601f840112611cb357600080fd5b5081356001600160401b03811115611cca57600080fd5b602083019150836020828501011115611ce257600080fd5b9250929050565b80356001600160401b0381168114611ba157600080fd5b803563ffffffff81168114611ba157600080fd5b60008060008060008060008060e0898b031215611d3057600080fd5b8835975060208901356001600160401b03811115611d4d57600080fd5b611d598b828c01611ca1565b9098509650611d6c905060408a01611b8a565b9450611d7a60608a01611b8a565b9350611d8860808a01611ce9565b9250611d9660a08a01611d00565b9150611da460c08a01611ce9565b90509295985092959890939650565b634e487b7160e01b600052604160045260246000fd5b601f8201601f191681016001600160401b0381118282101715611dee57611dee611db3565b6040525050565b60006001600160401b03821115611e0e57611e0e611db3565b5060051b60200190565b600082601f830112611e2957600080fd5b81356020611e3682611df5565b604051611e438282611dc9565b83815260059390931b8501820192828101915086841115611e6357600080fd5b8286015b84811015611e7e5780358352918301918301611e67565b509695505050505050565b600082601f830112611e9a57600080fd5b81356001600160401b03811115611eb357611eb3611db3565b604051611eca601f8301601f191660200182611dc9565b818152846020838601011115611edf57600080fd5b816020850160208301376000918101602001919091529392505050565b600080600080600060a08688031215611f1457600080fd5b611f1d86611b8a565b9450611f2b60208701611b8a565b935060408601356001600160401b0380821115611f4757600080fd5b611f5389838a01611e18565b94506060880135915080821115611f6957600080fd5b611f7589838a01611e18565b93506080880135915080821115611f8b57600080fd5b50611f9888828901611e89565b9150509295509295909350565b803561ffff81168114611ba157600080fd5b60008060408385031215611fca57600080fd5b82359150611c9860208401611fa5565b60008060408385031215611fed57600080fd5b82356001600160401b038082111561200457600080fd5b818501915085601f83011261201857600080fd5b8135602061202582611df5565b6040516120328282611dc9565b83815260059390931b850182019282810191508984111561205257600080fd5b948201945b838610156120775761206886611b8a565b82529482019490820190612057565b9650508601359250508082111561208d57600080fd5b5061209a85828601611e18565b9150509250929050565b600081518084526020808501945080840160005b838110156120d4578151875295820195908201906001016120b8565b509495945050505050565b60208152600061120760208301846120a4565b6000806040838503121561210557600080fd5b61210e83611b8a565b91506020830135801515811461212357600080fd5b809150509250929050565b60008060008060008060a0878903121561214757600080fd5b86356001600160401b0381111561215d57600080fd5b61216989828a01611ca1565b909750955061217c905060208801611b8a565b93506040870135925061219160608801611b8a565b915061219f60808801611fa5565b90509295509295509295565b600080604083850312156121be57600080fd5b50508035926020909101359150565b60008060008060008060a087890312156121e657600080fd5b8635955060208701356001600160401b0381111561220357600080fd5b61220f89828a01611ca1565b9096509450612222905060408801611b8a565b925061223060608801611d00565b915061219f60808801611ce9565b60006020828403121561225057600080fd5b61120782611b8a565b6000806040838503121561226c57600080fd5b61227583611b8a565b9150611c9860208401611b8a565b60008060008060006080868803121561229b57600080fd5b8535945060208601356001600160401b038111156122b857600080fd5b6122c488828901611ca1565b90955093506122d7905060408701611b8a565b91506122e560608701611b8a565b90509295509295909350565b600080600080600060a0868803121561230957600080fd5b61231286611b8a565b945061232060208701611b8a565b9350604086013592506060860135915060808601356001600160401b0381111561234957600080fd5b611f9888828901611e89565b600181811c9082168061236957607f821691505b60208210810361238957634e487b7160e01b600052602260045260246000fd5b50919050565b6020808252600c908201526b155b985d5d1a1bdc9a5cd95960a21b604082015260600190565b81835281816020850137506000828201602090810191909152601f909101601f19169091010190565b86815260a0602082015260006123f860a0830187896123b5565b6001600160a01b039590951660408301525063ffffffff9290921660608301526001600160401b03166080909101529392505050565b60006020828403121561244057600080fd5b5051919050565b6020808252602e908201527f455243313135353a2063616c6c6572206973206e6f7420746f6b656e206f776e60408201526d195c881bdc88185c1c1c9bdd995960921b606082015260800190565b634e487b7160e01b600052603260045260246000fd5b634e487b7160e01b600052601160045260246000fd5b6000600182016124d3576124d36124ab565b5060010190565b8183823760009101908152919050565b6080815260006124fe6080830187896123b5565b6001600160a01b039590951660208301525061ffff9290921660408301526001600160401b031660609091015292915050565b6080815260006125456080830187896123b5565b6001600160a01b039590951660208301525063ffffffff9290921660408301526001600160401b031660609091015292915050565b60208082526025908201527f455243313135353a207472616e7366657220746f20746865207a65726f206164604082015264647265737360d81b606082015260800190565b6020808252602a908201527f455243313135353a20696e73756666696369656e742062616c616e636520666f60408201526939103a3930b739b332b960b11b606082015260800190565b808201808211156104e8576104e86124ab565b60408152600061262f60408301856120a4565b828103602084015261264181856120a4565b95945050505050565b6001600160a01b0386811682528516602082015260a060408201819052600090612676908301866120a4565b828103606084015261268881866120a4565b9050828103608084015261269c8185611c1c565b98975050505050505050565b6000602082840312156126ba57600080fd5b815161120781611bd0565b600060033d11156126de5760046000803e5060005160e01c5b90565b600060443d10156126ef5790565b6040516003193d81016004833e81513d6001600160401b03816024840111818411171561271e57505050505090565b82850191508151818111156127365750505050505090565b843d87010160208285010111156127505750505050505090565b61275f60208286010187611dc9565b509095945050505050565b60208082526028908201527f455243313135353a204552433131353552656365697665722072656a656374656040820152676420746f6b656e7360c01b606082015260800190565b6001600160a01b03868116825285166020820152604081018490526060810183905260a0608082018190526000906127ec90830184611c1c565b97965050505050505056fea2646970667358221220440358254d86bcc0d473f3e26aa65ac7d6a4669b7df1449228204ba9c8a0c65a64736f6c63430008110033",
  "linkReferences": {},
  "deployedLinkReferences": {}
}