{
  "_format": "hh-sol-artifact-1",
  "contractName": "DeedImplementation",
  "sourceName": "@ensdomains/ens/contracts/DeedImplementation.sol",
  "abi": [
    {
      "inputs": [
        {
          "internalType": "address payable",
          "name": "initialOwner",
          "type": "address"
        }
      ],
      "payable": true,
      "stateMutability": "payable",
      "type": "constructor"
    },
    {
      "anonymous": false,
      "inputs": [],
      "name": "DeedClosed",
      "type": "event"
    },
    {
      "anonymous": false,
      "inputs": [
        {
          "indexed": false,
          "internalType": "address",
          "name": "newOwner",
          "type": "address"
        }
      ],
      "name": "OwnerChanged",
      "type": "event"
    },
    {
      "constant": false,
      "inputs": [
        {
          "internalType": "uint256",
          "name": "refundRatio",
          "type": "uint256"
        }
      ],
      "name": "closeDeed",
      "outputs": [],
      "payable": false,
      "stateMutability": "nonpayable",
      "type": "function"
    },
    {
      "constant": true,
      "inputs": [],
      "name": "creationDate",
      "outputs": [
        {
          "internalType": "uint256",
          "name": "",
          "type": "uint256"
        }
      ],
      "payable": false,
      "stateMutability": "view",
      "type": "function"
    },
    {
      "constant": false,
      "inputs": [],
      "name": "destroyDeed",
      "outputs": [],
      "payable": false,
      "stateMutability": "nonpayable",
      "type": "function"
    },
    {
      "constant": true,
      "inputs": [],
      "name": "owner",
      "outputs": [
        {
          "internalType": "address",
          "name": "",
          "type": "address"
        }
      ],
      "payable": false,
      "stateMutability": "view",
      "type": "function"
    },
    {
      "constant": true,
      "inputs": [],
      "name": "previousOwner",
      "outputs": [
        {
          "internalType": "address",
          "name": "",
          "type": "address"
        }
      ],
      "payable": false,
      "stateMutability": "view",
      "type": "function"
    },
    {
      "constant": false,
      "inputs": [
        {
          "internalType": "uint256",
          "name": "newValue",
          "type": "uint256"
        },
        {
          "internalType": "bool",
          "name": "throwOnFailure",
          "type": "bool"
        }
      ],
      "name": "setBalance",
      "outputs": [],
      "payable": false,
      "stateMutability": "nonpayable",
      "type": "function"
    },
    {
      "constant": false,
      "inputs": [
        {
          "internalType": "address payable",
          "name": "newOwner",
          "type": "address"
        }
      ],
      "name": "setOwner",
      "outputs": [],
      "payable": false,
      "stateMutability": "nonpayable",
      "type": "function"
    },
    {
      "constant": false,
      "inputs": [
        {
          "internalType": "address",
          "name": "newRegistrar",
          "type": "address"
        }
      ],
      "name": "setRegistrar",
      "outputs": [],
      "payable": false,
      "stateMutability": "nonpayable",
      "type": "function"
    },
    {
      "constant": true,
      "inputs": [],
      "name": "value",
      "outputs": [
        {
          "internalType": "uint256",
          "name": "",
          "type": "uint256"
        }
      ],
      "payable": false,
      "stateMutability": "view",
      "type": "function"
    }
  ],
  "bytecode": "0x60806040526040516104743803806104748339818101604052602081101561002657600080fd5b5051600080546001600160a01b039092166001600160a01b03199283161790556002805490911633179055426003556005805460ff19166001179055346004556103ff806100756000396000f3fe608060405234801561001057600080fd5b50600436106100935760003560e01c8063674f220f11610066578063674f220f146100ea5780638da5cb5b1461010e578063b0c8097214610116578063bbe427711461013b578063faab9d391461015857610093565b806305b34410146100985780630b5ab3d5146100b257806313af4035146100bc5780633fa4f245146100e2575b600080fd5b6100a061017e565b60408051918252519081900360200190f35b6100ba610183565b005b6100ba600480360360208110156100d257600080fd5b50356001600160a01b031661018d565b6100a061021c565b6100f2610222565b604080516001600160a01b039092168252519081900360200190f35b6100f2610231565b6100ba6004803603604081101561012c57600080fd5b50803590602001351515610240565b6100ba6004803603602081101561015157600080fd5b50356102bc565b6100ba6004803603602081101561016e57600080fd5b50356001600160a01b031661034e565b600090565b61018b610387565b565b6002546001600160a01b031633146101a457600080fd5b6001600160a01b0381166101b757600080fd5b60008054600180546001600160a01b03199081166001600160a01b03808516919091179092559084169116811790915560408051918252517fa2ea9883a321a3e97b8266c2b078bfeec6d50c711ed71f874a90d500ae2eaf369181900360200190a150565b60045490565b6001546001600160a01b031690565b6000546001600160a01b031690565b6002546001600160a01b0316331461025757600080fd5b60055460ff1661026657600080fd5b81600454101561027557600080fd5b6004829055600080546040516001600160a01b03909116914785900380156108fc02929091818181858888f19350505050806102af575080155b6102b857600080fd5b5050565b6002546001600160a01b031633146102d357600080fd5b60055460ff166102e257600080fd5b6005805460ff1916905560405161dead906103e847848203020480156108fc02916000818181858888f1935050505061031a57600080fd5b6040517fbb2ce2f51803bba16bc85282b47deeea9a5c6223eabea1077be696b3f265cf1390600090a161034b610387565b50565b6002546001600160a01b0316331461036557600080fd5b600280546001600160a01b0319166001600160a01b0392909216919091179055565b60055460ff161561039757600080fd5b600080546040516001600160a01b03909116914780156108fc02929091818181858888f193505050501561018b5761deadfffea265627a7a7231582052ed8ae0fdea03ca8d6a6679b1200a9de0033f13deaf7834461d2796e0707da964736f6c63430005110032",
  "linkReferences": {},
  "deployedLinkReferences": {}
}