{"@ensdomains/ens/contracts/HashRegistrar.sol":{"HashRegistrar":{"abi":[{"inputs":[{"internalType":"contract ENS","name":"_ens","type":"address"},{"internalType":"bytes32","name":"_rootNode","type":"bytes32"},{"internalType":"uint256","name":"_startDate","type":"uint256"}],"payable":false,"stateMutability":"nonpayable","type":"constructor"},{"anonymous":false,"inputs":[{"indexed":true,"internalType":"bytes32","name":"hash","type":"bytes32"},{"indexed":false,"internalType":"uint256","name":"registrationDate","type":"uint256"}],"name":"AuctionStarted","type":"event"},{"anonymous":false,"inputs":[{"indexed":true,"internalType":"bytes32","name":"hash","type":"bytes32"},{"indexed":true,"internalType":"address","name":"owner","type":"address"},{"indexed":false,"internalType":"uint256","name":"value","type":"uint256"},{"indexed":false,"internalType":"uint8","name":"status","type":"uint8"}],"name":"BidRevealed","type":"event"},{"anonymous":false,"inputs":[{"indexed":true,"internalType":"bytes32","name":"hash","type":"bytes32"},{"indexed":true,"internalType":"string","name":"name","type":"string"},{"indexed":false,"internalType":"uint256","name":"value","type":"uint256"},{"indexed":false,"internalType":"uint256","name":"registrationDate","type":"uint256"}],"name":"HashInvalidated","type":"event"},{"anonymous":false,"inputs":[{"indexed":true,"internalType":"bytes32","name":"hash","type":"bytes32"},{"indexed":true,"internalType":"address","name":"owner","type":"address"},{"indexed":false,"internalType":"uint256","name":"value","type":"uint256"},{"indexed":false,"internalType":"uint256","name":"registrationDate","type":"uint256"}],"name":"HashRegistered","type":"event"},{"anonymous":false,"inputs":[{"indexed":true,"internalType":"bytes32","name":"hash","type":"bytes32"},{"indexed":false,"internalType":"uint256","name":"value","type":"uint256"}],"name":"HashReleased","type":"event"},{"anonymous":false,"inputs":[{"indexed":true,"internalType":"bytes32","name":"hash","type":"bytes32"},{"indexed":true,"internalType":"address","name":"bidder","type":"address"},{"indexed":false,"internalType":"uint256","name":"deposit","type":"uint256"}],"name":"NewBid","type":"event"},{"constant":false,"inputs":[{"internalType":"bytes32","name":"hash","type":"bytes32"},{"internalType":"contract Deed","name":"deed","type":"address"},{"internalType":"uint256","name":"registrationDate","type":"uint256"}],"name":"acceptRegistrarTransfer","outputs":[],"payable":false,"stateMutability":"nonpayable","type":"function"},{"constant":false,"inputs":[{"internalType":"address","name":"bidder","type":"address"},{"internalType":"bytes32","name":"seal","type":"bytes32"}],"name":"cancelBid","outputs":[],"payable":false,"stateMutability":"nonpayable","type":"function"},{"constant":true,"inputs":[],"name":"ens","outputs":[{"internalType":"contract ENS","name":"","type":"address"}],"payable":false,"stateMutability":"view","type":"function"},{"constant":true,"inputs":[{"internalType":"bytes32","name":"_hash","type":"bytes32"}],"name":"entries","outputs":[{"internalType":"enum Registrar.Mode","name":"","type":"uint8"},{"internalType":"address","name":"","type":"address"},{"internalType":"uint256","name":"","type":"uint256"},{"internalType":"uint256","name":"","type":"uint256"},{"internalType":"uint256","name":"","type":"uint256"}],"payable":false,"stateMutability":"view","type":"function"},{"constant":false,"inputs":[{"internalType":"bytes32[]","name":"labels","type":"bytes32[]"}],"name":"eraseNode","outputs":[],"payable":false,"stateMutability":"nonpayable","type":"function"},{"constant":false,"inputs":[{"internalType":"bytes32","name":"_hash","type":"bytes32"}],"name":"finalizeAuction","outputs":[],"payable":false,"stateMutability":"nonpayable","type":"function"},{"constant":true,"inputs":[{"internalType":"bytes32","name":"_hash","type":"bytes32"}],"name":"getAllowedTime","outputs":[{"internalType":"uint256","name":"","type":"uint256"}],"payable":false,"stateMutability":"view","type":"function"},{"constant":false,"inputs":[{"internalType":"string","name":"unhashedName","type":"string"}],"name":"invalidateName","outputs":[],"payable":false,"stateMutability":"nonpayable","type":"function"},{"constant":true,"inputs":[{"internalType":"bytes32","name":"_hash","type":"bytes32"},{"internalType":"uint256","name":"_timestamp","type":"uint256"}],"name":"isAllowed","outputs":[{"internalType":"bool","name":"allowed","type":"bool"}],"payable":false,"stateMutability":"view","type":"function"},{"constant":true,"inputs":[],"name":"launchLength","outputs":[{"internalType":"uint32","name":"","type":"uint32"}],"payable":false,"stateMutability":"view","type":"function"},{"constant":false,"inputs":[{"internalType":"bytes32","name":"sealedBid","type":"bytes32"}],"name":"newBid","outputs":[],"payable":true,"stateMutability":"payable","type":"function"},{"constant":true,"inputs":[],"name":"registryStarted","outputs":[{"internalType":"uint256","name":"","type":"uint256"}],"payable":false,"stateMutability":"view","type":"function"},{"constant":false,"inputs":[{"internalType":"bytes32","name":"_hash","type":"bytes32"}],"name":"releaseDeed","outputs":[],"payable":false,"stateMutability":"nonpayable","type":"function"},{"constant":true,"inputs":[],"name":"rootNode","outputs":[{"internalType":"bytes32","name":"","type":"bytes32"}],"payable":false,"stateMutability":"view","type":"function"},{"constant":true,"inputs":[{"internalType":"address","name":"","type":"address"},{"internalType":"bytes32","name":"","type":"bytes32"}],"name":"sealedBids","outputs":[{"internalType":"contract Deed","name":"","type":"address"}],"payable":false,"stateMutability":"view","type":"function"},{"constant":true,"inputs":[{"internalType":"bytes32","name":"hash","type":"bytes32"},{"internalType":"address","name":"owner","type":"address"},{"internalType":"uint256","name":"value","type":"uint256"},{"internalType":"bytes32","name":"salt","type":"bytes32"}],"name":"shaBid","outputs":[{"internalType":"bytes32","name":"","type":"bytes32"}],"payable":false,"stateMutability":"pure","type":"function"},{"constant":false,"inputs":[{"internalType":"bytes32","name":"_hash","type":"bytes32"}],"name":"startAuction","outputs":[],"payable":false,"stateMutability":"nonpayable","type":"function"},{"constant":false,"inputs":[{"internalType":"bytes32[]","name":"_hashes","type":"bytes32[]"}],"name":"startAuctions","outputs":[],"payable":false,"stateMutability":"nonpayable","type":"function"},{"constant":false,"inputs":[{"internalType":"bytes32[]","name":"hashes","type":"bytes32[]"},{"internalType":"bytes32","name":"sealedBid","type":"bytes32"}],"name":"startAuctionsAndBid","outputs":[],"payable":true,"stateMutability":"payable","type":"function"},{"constant":true,"inputs":[{"internalType":"bytes32","name":"_hash","type":"bytes32"}],"name":"state","outputs":[{"internalType":"enum Registrar.Mode","name":"","type":"uint8"}],"payable":false,"stateMutability":"view","type":"function"},{"constant":false,"inputs":[{"internalType":"bytes32","name":"_hash","type":"bytes32"},{"internalType":"address payable","name":"newOwner","type":"address"}],"name":"transfer","outputs":[],"payable":false,"stateMutability":"nonpayable","type":"function"},{"constant":false,"inputs":[{"internalType":"bytes32","name":"_hash","type":"bytes32"}],"name":"transferRegistrars","outputs":[],"payable":false,"stateMutability":"nonpayable","type":"function"},{"constant":false,"inputs":[{"internalType":"bytes32","name":"_hash","type":"bytes32"},{"internalType":"uint256","name":"_value","type":"uint256"},{"internalType":"bytes32","name":"_salt","type":"bytes32"}],"name":"unsealBid","outputs":[],"payable":false,"stateMutability":"nonpayable","type":"function"}],"evm":{"bytecode":{"linkReferences":{},"object":"608060405234801561001057600080fd5b50604051612a0c380380612a0c8339818101604052606081101561003357600080fd5b5080516020820151604090920151600080546001600160a01b0319166001600160a01b03841617905560018390559091908061006f5742610071565b805b600455505050612986806100866000396000f3fe6080604052600436106101405760003560e01c806379ce9fac116100b6578063de10f04b1161006f578063de10f04b14610537578063e27fe50f146105b2578063ea9e107a1461062d578063ede8acdb1461066c578063faff50a814610696578063febefd61146106ab57610140565b806379ce9fac146104305780639350333714610469578063983b94fb146104ad5780639c67f06f146104d7578063ae1a0b0c146104ec578063ce92dced1461051a57610140565b8063267b692211610108578063267b6922146102a65780633f15457f1461031857806347872b42146103495780635ddae2831461037f5780635e431709146103a957806361d585da146103e257610140565b80630230a07c1461014557806313c89a8f1461017157806315f73331146101ad57806322ec1244146102285780632525f5c11461026d575b600080fd5b34801561015157600080fd5b5061016f6004803603602081101561016857600080fd5b5035610719565b005b34801561017d57600080fd5b5061019b6004803603602081101561019457600080fd5b503561094b565b60408051918252519081900360200190f35b3480156101b957600080fd5b5061016f600480360360208110156101d057600080fd5b810190602081018135600160201b8111156101ea57600080fd5b8201836020820111156101fc57600080fd5b803590602001918460018302840111600160201b8311171561021d57600080fd5b509092509050610961565b34801561023457600080fd5b5061019b6004803603608081101561024b57600080fd5b508035906001600160a01b036020820135169060408101359060600135610c85565b34801561027957600080fd5b5061016f6004803603604081101561029057600080fd5b506001600160a01b038135169060200135610cd5565b3480156102b257600080fd5b506102d0600480360360208110156102c957600080fd5b5035610ea4565b604051808660058111156102e057fe5b60ff1681526001600160a01b0390951660208601525060408085019390935260608401919091526080830152519081900360a0019150f35b34801561032457600080fd5b5061032d610ef0565b604080516001600160a01b039092168252519081900360200190f35b34801561035557600080fd5b5061016f6004803603606081101561036c57600080fd5b5080359060208101359060400135610eff565b34801561038b57600080fd5b5061016f600480360360208110156103a257600080fd5b5035611456565b3480156103b557600080fd5b5061032d600480360360408110156103cc57600080fd5b506001600160a01b0381351690602001356116a9565b3480156103ee57600080fd5b5061040c6004803603602081101561040557600080fd5b50356116cf565b6040518082600581111561041c57fe5b60ff16815260200191505060405180910390f35b34801561043c57600080fd5b5061016f6004803603604081101561045357600080fd5b50803590602001356001600160a01b0316611744565b34801561047557600080fd5b506104996004803603604081101561048c57600080fd5b5080359060200135611885565b604080519115158252519081900360200190f35b3480156104b957600080fd5b5061016f600480360360208110156104d057600080fd5b503561189b565b3480156104e357600080fd5b5061019b611b2d565b3480156104f857600080fd5b50610501611b33565b6040805163ffffffff9092168252519081900360200190f35b61016f6004803603602081101561053057600080fd5b5035611b3a565b34801561054357600080fd5b5061016f6004803603602081101561055a57600080fd5b810190602081018135600160201b81111561057457600080fd5b82018360208201111561058657600080fd5b803590602001918460208302840111600160201b831117156105a757600080fd5b509092509050611b46565b3480156105be57600080fd5b5061016f600480360360208110156105d557600080fd5b810190602081018135600160201b8111156105ef57600080fd5b82018360208201111561060157600080fd5b803590602001918460208302840111600160201b8311171561062257600080fd5b509092509050611bd2565b34801561063957600080fd5b5061016f6004803603606081101561065057600080fd5b508035906001600160a01b036020820135169060400135611c0e565b34801561067857600080fd5b5061016f6004803603602081101561068f57600080fd5b5035611c13565b3480156106a257600080fd5b5061019b611c1c565b61016f600480360360408110156106c157600080fd5b810190602081018135600160201b8111156106db57600080fd5b8201836020820111156106ed57600080fd5b803590602001918460208302840111600160201b8311171561070e57600080fd5b919350915035611c22565b806002610725826116cf565b600581111561073057fe5b1480156107bf5750600081815260026020908152604091829020548251638da5cb5b60e01b815292516001600160a01b0390911692638da5cb5b926004808301939192829003018186803b15801561078757600080fd5b505afa15801561079b573d6000803e3d6000fd5b505050506040513d60208110156107b157600080fd5b50516001600160a01b031633145b6107c857600080fd5b6000828152600260205260409020805460018201546001600160a01b03909116906301e13380014210158061087e5750600054600154604080516302571be360e01b815260048101929092525130926001600160a01b0316916302571be3916024808301926020929190829003018186803b15801561084657600080fd5b505afa15801561085a573d6000803e3d6000fd5b505050506040513d602081101561087057600080fd5b50516001600160a01b031614155b61088757600080fd5b600060028301819055600383015581546001600160a01b03191682556108ac84611c67565b806001600160a01b031663bbe427716103e86040518263ffffffff1660e01b815260040180828152602001915050600060405180830381600087803b1580156108f457600080fd5b505af1158015610908573d6000803e3d6000fd5b505050600283015460408051918252518692507f292b79b9246fa2c8e77d3fe195b251f9cb839d7d038e667c069ee7708c631e169181900360200190a250505050565b600454608082811c6249d40002901c015b919050565b818160405160200180806020018281038252848482818152602001925080828437600081840152601f19601f82011690508083019250505093505050506040516020818303038152906040528051906020012060028060058111156109c257fe5b6109cb836116cf565b60058111156109d657fe5b146109e057600080fd5b6006610a2185858080601f016020809104026020016040519081016040528093929190818152602001838380828437600092019190915250611e7a92505050565b1115610a2c57600080fd5b6000848460405160200180806020018281038252848482818152602001925080828437600081840152601f19601f82011690508083019250505093505050506040516020818303038152906040528051906020012090506000600260008381526020019081526020016000209050610aa382611c67565b80546001600160a01b031615610c0357610ac88160020154662386f26fc10000611f1f565b600282810182905582546040805163586404b960e11b815292909304600483015260006024830181905292516001600160a01b039091169263b0c80972926044808201939182900301818387803b158015610b2257600080fd5b505af1158015610b36573d6000803e3d6000fd5b50508254604080516313af403560e01b815233600482015290516001600160a01b0390921693506313af4035925060248082019260009290919082900301818387803b158015610b8557600080fd5b505af1158015610b99573d6000803e3d6000fd5b505082546040805163bbe4277160e01b81526103e8600482015290516001600160a01b03909216935063bbe42771925060248082019260009290919082900301818387803b158015610bea57600080fd5b505af1158015610bfe573d6000803e3d6000fd5b505050505b8585604051808383808284376040805193909101839003832060028801546001890154908552602085015281519096508895507f1f9c649fe47e58bb60f4e52f0d90e4c47a526c9f90c5113df842c025970b66ad94509283900301919050a3600060028201819055600382015580546001600160a01b03191690555050505050565b6040805160208082019690965260609490941b6bffffffffffffffffffffffff19168482015260548401929092526074808401919091528151808403909101815260949092019052805191012090565b6001600160a01b038083166000908152600360209081526040808320858452909152902054168015801590610d7e57506206978063ffffffff16816001600160a01b03166305b344106040518163ffffffff1660e01b815260040160206040518083038186803b158015610d4857600080fd5b505afa158015610d5c573d6000803e3d6000fd5b505050506040513d6020811015610d7257600080fd5b50510162127500014210155b610d8757600080fd5b604080516313af403560e01b815233600482015290516001600160a01b038316916313af403591602480830192600092919082900301818387803b158015610dce57600080fd5b505af1158015610de2573d6000803e3d6000fd5b50505050806001600160a01b031663bbe4277160056040518263ffffffff1660e01b815260040180828152602001915050600060405180830381600087803b158015610e2d57600080fd5b505af1158015610e41573d6000803e3d6000fd5b505050506001600160a01b0383166000818152600360209081526040808320868452825280832080546001600160a01b031916905580519283526005918301919091528051859260008051602061293283398151915292908290030190a3505050565b60008181526002602052604081208190819081908190610ec3876116cf565b815460018301546002840154600390940154929a6001600160a01b03909216995097509195509350915050565b6000546001600160a01b031681565b6000610f0d84338585610c85565b3360009081526003602090815260408083208484529091529020549091506001600160a01b031680610f3e57600080fd5b336000908152600360209081526040808320858452825280832080546001600160a01b0319169055878352600282528083208151633fa4f24560e01b81529151909392610fe49289926001600160a01b03881692633fa4f2459260048082019391829003018186803b158015610fb357600080fd5b505afa158015610fc7573d6000803e3d6000fd5b505050506040513d6020811015610fdd57600080fd5b5051611f37565b6040805163586404b960e11b8152600481018390526001602482015290519192506001600160a01b0385169163b0c809729160448082019260009290919082900301818387803b15801561103757600080fd5b505af115801561104b573d6000803e3d6000fd5b50505050600061105a886116cf565b9050600281600581111561106a57fe5b141561110157836001600160a01b031663bbe4277160056040518263ffffffff1660e01b815260040180828152602001915050600060405180830381600087803b1580156110b757600080fd5b505af11580156110cb573d6000803e3d6000fd5b5050604080518581526001602082015281513394508c9350600080516020612932833981519152929181900390910190a361144c565b600481600581111561110f57fe5b1461111957600080fd5b662386f26fc100008210806111a057506202a30063ffffffff16836001015403846001600160a01b03166305b344106040518163ffffffff1660e01b815260040160206040518083038186803b15801561117257600080fd5b505afa158015611186573d6000803e3d6000fd5b505050506040513d602081101561119c57600080fd5b5051115b1561123757836001600160a01b031663bbe427716103e36040518263ffffffff1660e01b815260040180828152602001915050600060405180830381600087803b1580156111ed57600080fd5b505af1158015611201573d6000803e3d6000fd5b5050604080518581526000602082015281513394508c9350600080516020612932833981519152929181900390910190a361144c565b82600301548211156113185782546001600160a01b0316156112bb5782546040805163bbe4277160e01b81526103e3600482015290516001600160a01b0390921691829163bbe4277191602480830192600092919082900301818387803b1580156112a157600080fd5b505af11580156112b5573d6000803e3d6000fd5b50505050505b6003830180546002808601919091559083905583546001600160a01b0319166001600160a01b038616178455604080518481526020810192909252805133928b9260008051602061293283398151915292918290030190a361144c565b82600201548211156113be57600283018290556040805163bbe4277160e01b81526103e3600482015290516001600160a01b0386169163bbe4277191602480830192600092919082900301818387803b15801561137457600080fd5b505af1158015611388573d6000803e3d6000fd5b5050604080518581526003602082015281513394508c9350600080516020612932833981519152929181900390910190a361144c565b836001600160a01b031663bbe427716103e36040518263ffffffff1660e01b815260040180828152602001915050600060405180830381600087803b15801561140657600080fd5b505af115801561141a573d6000803e3d6000fd5b5050604080518581526004602082015281513394508c9350600080516020612932833981519152929181900390910190a35b5050505050505050565b806002611462826116cf565b600581111561146d57fe5b1480156114fc5750600081815260026020908152604091829020548251638da5cb5b60e01b815292516001600160a01b0390911692638da5cb5b926004808301939192829003018186803b1580156114c457600080fd5b505afa1580156114d8573d6000803e3d6000fd5b505050506040513d60208110156114ee57600080fd5b50516001600160a01b031633145b61150557600080fd5b60008054600154604080516302571be360e01b81526004810192909252516001600160a01b03909216916302571be391602480820192602092909190829003018186803b15801561155557600080fd5b505afa158015611569573d6000803e3d6000fd5b505050506040513d602081101561157f57600080fd5b505190506001600160a01b03811630141561159957600080fd5b6000838152600260205260408082208054825163faab9d3960e01b81526001600160a01b03868116600483015293519294939091169263faab9d399260248084019382900301818387803b1580156115f057600080fd5b505af1158015611604573d6000803e3d6000fd5b5050825460018401546040805163754f083d60e11b8152600481018a90526001600160a01b039384166024820152604481019290925251918616935063ea9e107a925060648082019260009290919082900301818387803b15801561166857600080fd5b505af115801561167c573d6000803e3d6000fd5b505082546001600160a01b0319168355505060006001820181905560028201819055600390910155505050565b60036020908152600092835260408084209091529082529020546001600160a01b031681565b60008181526002602052604081206116e78342611885565b6116f557600591505061095c565b80600101544210156117275760018101546202a2ff190142101561171d57600191505061095c565b600491505061095c565b600381015461173a57600091505061095c565b600291505061095c565b816002611750826116cf565b600581111561175b57fe5b1480156117ea5750600081815260026020908152604091829020548251638da5cb5b60e01b815292516001600160a01b0390911692638da5cb5b926004808301939192829003018186803b1580156117b257600080fd5b505afa1580156117c6573d6000803e3d6000fd5b505050506040513d60208110156117dc57600080fd5b50516001600160a01b031633145b6117f357600080fd5b6001600160a01b03821661180657600080fd5b600083815260026020526040808220805482516313af403560e01b81526001600160a01b0387811660048301529351929493909116926313af40359260248084019382900301818387803b15801561185d57600080fd5b505af1158015611871573d6000803e3d6000fd5b5050505061187f8484611f48565b50505050565b60006118908361094b565b821190505b92915050565b8060026118a7826116cf565b60058111156118b257fe5b1480156119415750600081815260026020908152604091829020548251638da5cb5b60e01b815292516001600160a01b0390911692638da5cb5b926004808301939192829003018186803b15801561190957600080fd5b505afa15801561191d573d6000803e3d6000fd5b505050506040513d602081101561193357600080fd5b50516001600160a01b031633145b61194a57600080fd5b60008281526002602081905260409091209081015461197090662386f26fc10000611f1f565b6002820181905581546040805163586404b960e11b8152600481019390935260016024840152516001600160a01b039091169163b0c8097291604480830192600092919082900301818387803b1580156119c957600080fd5b505af11580156119dd573d6000803e3d6000fd5b50505050611a66838260000160009054906101000a90046001600160a01b03166001600160a01b0316638da5cb5b6040518163ffffffff1660e01b815260040160206040518083038186803b158015611a3557600080fd5b505afa158015611a49573d6000803e3d6000fd5b505050506040513d6020811015611a5f57600080fd5b5051611f48565b805460408051638da5cb5b60e01b815290516001600160a01b0390921691638da5cb5b91600480820192602092909190829003018186803b158015611aaa57600080fd5b505afa158015611abe573d6000803e3d6000fd5b505050506040513d6020811015611ad457600080fd5b50516002820154600183015460408051928352602083019190915280516001600160a01b039093169286927f0f0c27adfd84b60b6f456b0e87cdccb1e5fb9603991588d87fa99f5b6b61e67092908290030190a3505050565b60045481565b6249d40081565b611b438161205c565b50565b80611b5057600080fd5b6002611b7183836000198101818110611b6557fe5b905060200201356116cf565b6005811115611b7c57fe5b1415611b8757600080fd5b611bce6001838390500383838080602002602001604051908101604052809392919081815260200183836020028082843760009201919091525050600154915061214d9050565b5050565b611bce82828080602002602001604051908101604052809392919081815260200183836020028082843760009201919091525061233092505050565b505050565b611b4381612360565b60015481565b611c5e83838080602002602001604051908101604052809392919081815260200183836020028082843760009201919091525061233092505050565b611c0e8161205c565b600054600154604080516302571be360e01b815260048101929092525130926001600160a01b0316916302571be3916024808301926020929190829003018186803b158015611cb557600080fd5b505afa158015611cc9573d6000803e3d6000fd5b505050506040513d6020811015611cdf57600080fd5b50516001600160a01b03161415611b435760008054600154604080516306ab592360e01b8152600481019290925260248201859052306044830152516001600160a01b03909216926306ab5923926064808401936020939083900390910190829087803b158015611d4f57600080fd5b505af1158015611d63573d6000803e3d6000fd5b505050506040513d6020811015611d7957600080fd5b505060015460408051602081810193909352808201849052815180820383018152606082018084528151919094012060008054630c4b7b8560e11b9095526064830182905260848301819052925190936001600160a01b031692631896f70a9260a4808201939182900301818387803b158015611df557600080fd5b505af1158015611e09573d6000803e3d6000fd5b50506000805460408051635b0fc9c360e01b8152600481018790526024810184905290516001600160a01b039092169450635b0fc9c39350604480820193929182900301818387803b158015611e5e57600080fd5b505af1158015611e72573d6000803e3d6000fd5b505050505050565b8051600090600183810191840101825b81831015611f1757825160ff166080811015611eab57600184019350611f0e565b60e08160ff161015611ec257600284019350611f0e565b60f08160ff161015611ed957600384019350611f0e565b60f88160ff161015611ef057600484019350611f0e565b60fc8160ff161015611f0757600584019350611f0e565b6006840193505b50600101611e8a565b949350505050565b600081831115611f30575081611895565b5080611895565b600081831015611f30575081611895565b600054600154604080516302571be360e01b815260048101929092525130926001600160a01b0316916302571be3916024808301926020929190829003018186803b158015611f9657600080fd5b505afa158015611faa573d6000803e3d6000fd5b505050506040513d6020811015611fc057600080fd5b50516001600160a01b03161415611bce5760008054600154604080516306ab592360e01b81526004810192909252602482018690526001600160a01b03858116604484015290519216926306ab5923926064808401936020939083900390910190829087803b15801561203257600080fd5b505af1158015612046573d6000803e3d6000fd5b505050506040513d602081101561187f57600080fd5b3360009081526003602090815260408083208484529091529020546001600160a01b03161561208a57600080fd5b662386f26fc1000034101561209e57600080fd5b600034336040516120ae906124b0565b6001600160a01b039091168152604051908190036020019082f0801580156120da573d6000803e3d6000fd5b5033600081815260036020908152604080832088845282529182902080546001600160a01b0319166001600160a01b0386161790558151348152915193955091935085927fb556ff269c1b6714f432c36431e2041d28436a73b6c3f19c021827bbdc6bfc29929181900390910190a35050565b60005482516001600160a01b03909116906306ab592390839085908790811061217257fe5b6020026020010151306040518463ffffffff1660e01b815260040180848152602001838152602001826001600160a01b03166001600160a01b031681526020019350505050602060405180830381600087803b1580156121d157600080fd5b505af11580156121e5573d6000803e3d6000fd5b505050506040513d60208110156121fb57600080fd5b50508151819083908590811061220d57fe5b60200260200101516040516020018083815260200182815260200192505050604051602081830303815290604052805190602001209050600083111561225b5761225b60018403838361214d565b6000805460408051630c4b7b8560e11b8152600481018590526024810184905290516001600160a01b0390921692631896f70a9260448084019382900301818387803b1580156122aa57600080fd5b505af11580156122be573d6000803e3d6000fd5b50506000805460408051635b0fc9c360e01b8152600481018790526024810184905290516001600160a01b039092169450635b0fc9c39350604480820193929182900301818387803b15801561231357600080fd5b505af1158015612327573d6000803e3d6000fd5b50505050505050565b60005b8151811015611bce5761235882828151811061234b57fe5b6020026020010151612360565b600101612333565b600454421015801561237a5750600454630784ce00014211155b80156124065750600054600154604080516302571be360e01b815260048101929092525130926001600160a01b0316916302571be3916024808301926020929190829003018186803b1580156123cf57600080fd5b505afa1580156123e3573d6000803e3d6000fd5b505050506040513d60208110156123f957600080fd5b50516001600160a01b0316145b61240f57600080fd5b600061241a826116cf565b9050600181600581111561242a57fe5b14156124365750611b43565b600081600581111561244457fe5b1461244e57600080fd5b600082815260026020818152604080842042620697800160018201819055938101859055600381019490945580519283525185927f87e97e825a1d1fa0c54e1d36c7506c1dea8b1efd451fe68b000cf96f7cf4000392908290030190a2505050565b610474806124be8339019056fe60806040526040516104743803806104748339818101604052602081101561002657600080fd5b5051600080546001600160a01b039092166001600160a01b03199283161790556002805490911633179055426003556005805460ff19166001179055346004556103ff806100756000396000f3fe608060405234801561001057600080fd5b50600436106100935760003560e01c8063674f220f11610066578063674f220f146100ea5780638da5cb5b1461010e578063b0c8097214610116578063bbe427711461013b578063faab9d391461015857610093565b806305b34410146100985780630b5ab3d5146100b257806313af4035146100bc5780633fa4f245146100e2575b600080fd5b6100a061017e565b60408051918252519081900360200190f35b6100ba610183565b005b6100ba600480360360208110156100d257600080fd5b50356001600160a01b031661018d565b6100a061021c565b6100f2610222565b604080516001600160a01b039092168252519081900360200190f35b6100f2610231565b6100ba6004803603604081101561012c57600080fd5b50803590602001351515610240565b6100ba6004803603602081101561015157600080fd5b50356102bc565b6100ba6004803603602081101561016e57600080fd5b50356001600160a01b031661034e565b600090565b61018b610387565b565b6002546001600160a01b031633146101a457600080fd5b6001600160a01b0381166101b757600080fd5b60008054600180546001600160a01b03199081166001600160a01b03808516919091179092559084169116811790915560408051918252517fa2ea9883a321a3e97b8266c2b078bfeec6d50c711ed71f874a90d500ae2eaf369181900360200190a150565b60045490565b6001546001600160a01b031690565b6000546001600160a01b031690565b6002546001600160a01b0316331461025757600080fd5b60055460ff1661026657600080fd5b81600454101561027557600080fd5b6004829055600080546040516001600160a01b03909116914785900380156108fc02929091818181858888f19350505050806102af575080155b6102b857600080fd5b5050565b6002546001600160a01b031633146102d357600080fd5b60055460ff166102e257600080fd5b6005805460ff1916905560405161dead906103e847848203020480156108fc02916000818181858888f1935050505061031a57600080fd5b6040517fbb2ce2f51803bba16bc85282b47deeea9a5c6223eabea1077be696b3f265cf1390600090a161034b610387565b50565b6002546001600160a01b0316331461036557600080fd5b600280546001600160a01b0319166001600160a01b0392909216919091179055565b60055460ff161561039757600080fd5b600080546040516001600160a01b03909116914780156108fc02929091818181858888f193505050501561018b5761deadfffea265627a7a7231582052ed8ae0fdea03ca8d6a6679b1200a9de0033f13deaf7834461d2796e0707da964736f6c634300051100327b6c4b278d165a6b33958f8ea5dfb00c8c9d4d0acf1985bef5d10786898bc3e7a265627a7a7231582081638330ee0fbc0d6af6d4bc14492f3090dceeb052de9281493e3e33e3809a4864736f6c63430005110032","opcodes":"PUSH1 0x80 PUSH1 0x40 MSTORE CALLVALUE DUP1 ISZERO PUSH2 0x10 JUMPI PUSH1 0x0 DUP1 REVERT JUMPDEST POP PUSH1 0x40 MLOAD PUSH2 0x2A0C CODESIZE SUB DUP1 PUSH2 0x2A0C DUP4 CODECOPY DUP2 DUP2 ADD PUSH1 0x40 MSTORE PUSH1 0x60 DUP2 LT ISZERO PUSH2 0x33 JUMPI PUSH1 0x0 DUP1 REVERT JUMPDEST POP DUP1 MLOAD PUSH1 0x20 DUP3 ADD MLOAD PUSH1 0x40 SWAP1 SWAP3 ADD MLOAD PUSH1 0x0 DUP1 SLOAD PUSH1 0x1 PUSH1 0x1 PUSH1 0xA0 SHL SUB NOT AND PUSH1 0x1 PUSH1 0x1 PUSH1 0xA0 SHL SUB DUP5 AND OR SWAP1 SSTORE PUSH1 0x1 DUP4 SWAP1 SSTORE SWAP1 SWAP2 SWAP1 DUP1 PUSH2 0x6F JUMPI TIMESTAMP PUSH2 0x71 JUMP JUMPDEST DUP1 JUMPDEST PUSH1 0x4 SSTORE POP POP POP PUSH2 0x2986 DUP1 PUSH2 0x86 PUSH1 0x0 CODECOPY PUSH1 0x0 RETURN INVALID PUSH1 0x80 PUSH1 0x40 MSTORE PUSH1 0x4 CALLDATASIZE LT PUSH2 0x140 JUMPI PUSH1 0x0 CALLDATALOAD PUSH1 0xE0 SHR DUP1 PUSH4 0x79CE9FAC GT PUSH2 0xB6 JUMPI DUP1 PUSH4 0xDE10F04B GT PUSH2 0x6F JUMPI DUP1 PUSH4 0xDE10F04B EQ PUSH2 0x537 JUMPI DUP1 PUSH4 0xE27FE50F EQ PUSH2 0x5B2 JUMPI DUP1 PUSH4 0xEA9E107A EQ PUSH2 0x62D JUMPI DUP1 PUSH4 0xEDE8ACDB EQ PUSH2 0x66C JUMPI DUP1 PUSH4 0xFAFF50A8 EQ PUSH2 0x696 JUMPI DUP1 PUSH4 0xFEBEFD61 EQ PUSH2 0x6AB JUMPI PUSH2 0x140 JUMP JUMPDEST DUP1 PUSH4 0x79CE9FAC EQ PUSH2 0x430 JUMPI DUP1 PUSH4 0x93503337 EQ PUSH2 0x469 JUMPI DUP1 PUSH4 0x983B94FB EQ PUSH2 0x4AD JUMPI DUP1 PUSH4 0x9C67F06F EQ PUSH2 0x4D7 JUMPI DUP1 PUSH4 0xAE1A0B0C EQ PUSH2 0x4EC JUMPI DUP1 PUSH4 0xCE92DCED EQ PUSH2 0x51A JUMPI PUSH2 0x140 JUMP JUMPDEST DUP1 PUSH4 0x267B6922 GT PUSH2 0x108 JUMPI DUP1 PUSH4 0x267B6922 EQ PUSH2 0x2A6 JUMPI DUP1 PUSH4 0x3F15457F EQ PUSH2 0x318 JUMPI DUP1 PUSH4 0x47872B42 EQ PUSH2 0x349 JUMPI DUP1 PUSH4 0x5DDAE283 EQ PUSH2 0x37F JUMPI DUP1 PUSH4 0x5E431709 EQ PUSH2 0x3A9 JUMPI DUP1 PUSH4 0x61D585DA EQ PUSH2 0x3E2 JUMPI PUSH2 0x140 JUMP JUMPDEST DUP1 PUSH4 0x230A07C EQ PUSH2 0x145 JUMPI DUP1 PUSH4 0x13C89A8F EQ PUSH2 0x171 JUMPI DUP1 PUSH4 0x15F73331 EQ PUSH2 0x1AD JUMPI DUP1 PUSH4 0x22EC1244 EQ PUSH2 0x228 JUMPI DUP1 PUSH4 0x2525F5C1 EQ PUSH2 0x26D JUMPI JUMPDEST PUSH1 0x0 DUP1 REVERT JUMPDEST CALLVALUE DUP1 ISZERO PUSH2 0x151 JUMPI PUSH1 0x0 DUP1 REVERT JUMPDEST POP PUSH2 0x16F PUSH1 0x4 DUP1 CALLDATASIZE SUB PUSH1 0x20 DUP2 LT ISZERO PUSH2 0x168 JUMPI PUSH1 0x0 DUP1 REVERT JUMPDEST POP CALLDATALOAD PUSH2 0x719 JUMP JUMPDEST STOP JUMPDEST CALLVALUE DUP1 ISZERO PUSH2 0x17D JUMPI PUSH1 0x0 DUP1 REVERT JUMPDEST POP PUSH2 0x19B PUSH1 0x4 DUP1 CALLDATASIZE SUB PUSH1 0x20 DUP2 LT ISZERO PUSH2 0x194 JUMPI PUSH1 0x0 DUP1 REVERT JUMPDEST POP CALLDATALOAD PUSH2 0x94B JUMP JUMPDEST PUSH1 0x40 DUP1 MLOAD SWAP2 DUP3 MSTORE MLOAD SWAP1 DUP2 SWAP1 SUB PUSH1 0x20 ADD SWAP1 RETURN JUMPDEST CALLVALUE DUP1 ISZERO PUSH2 0x1B9 JUMPI PUSH1 0x0 DUP1 REVERT JUMPDEST POP PUSH2 0x16F PUSH1 0x4 DUP1 CALLDATASIZE SUB PUSH1 0x20 DUP2 LT ISZERO PUSH2 0x1D0 JUMPI PUSH1 0x0 DUP1 REVERT JUMPDEST DUP2 ADD SWAP1 PUSH1 0x20 DUP2 ADD DUP2 CALLDATALOAD PUSH1 0x1 PUSH1 0x20 SHL DUP2 GT ISZERO PUSH2 0x1EA JUMPI PUSH1 0x0 DUP1 REVERT JUMPDEST DUP3 ADD DUP4 PUSH1 0x20 DUP3 ADD GT ISZERO PUSH2 0x1FC JUMPI PUSH1 0x0 DUP1 REVERT JUMPDEST DUP1 CALLDATALOAD SWAP1 PUSH1 0x20 ADD SWAP2 DUP5 PUSH1 0x1 DUP4 MUL DUP5 ADD GT PUSH1 0x1 PUSH1 0x20 SHL DUP4 GT OR ISZERO PUSH2 0x21D JUMPI PUSH1 0x0 DUP1 REVERT JUMPDEST POP SWAP1 SWAP3 POP SWAP1 POP PUSH2 0x961 JUMP JUMPDEST CALLVALUE DUP1 ISZERO PUSH2 0x234 JUMPI PUSH1 0x0 DUP1 REVERT JUMPDEST POP PUSH2 0x19B PUSH1 0x4 DUP1 CALLDATASIZE SUB PUSH1 0x80 DUP2 LT ISZERO PUSH2 0x24B JUMPI PUSH1 0x0 DUP1 REVERT JUMPDEST POP DUP1 CALLDATALOAD SWAP1 PUSH1 0x1 PUSH1 0x1 PUSH1 0xA0 SHL SUB PUSH1 0x20 DUP3 ADD CALLDATALOAD AND SWAP1 PUSH1 0x40 DUP2 ADD CALLDATALOAD SWAP1 PUSH1 0x60 ADD CALLDATALOAD PUSH2 0xC85 JUMP JUMPDEST CALLVALUE DUP1 ISZERO PUSH2 0x279 JUMPI PUSH1 0x0 DUP1 REVERT JUMPDEST POP PUSH2 0x16F PUSH1 0x4 DUP1 CALLDATASIZE SUB PUSH1 0x40 DUP2 LT ISZERO PUSH2 0x290 JUMPI PUSH1 0x0 DUP1 REVERT JUMPDEST POP PUSH1 0x1 PUSH1 0x1 PUSH1 0xA0 SHL SUB DUP2 CALLDATALOAD AND SWAP1 PUSH1 0x20 ADD CALLDATALOAD PUSH2 0xCD5 JUMP JUMPDEST CALLVALUE DUP1 ISZERO PUSH2 0x2B2 JUMPI PUSH1 0x0 DUP1 REVERT JUMPDEST POP PUSH2 0x2D0 PUSH1 0x4 DUP1 CALLDATASIZE SUB PUSH1 0x20 DUP2 LT ISZERO PUSH2 0x2C9 JUMPI PUSH1 0x0 DUP1 REVERT JUMPDEST POP CALLDATALOAD PUSH2 0xEA4 JUMP JUMPDEST PUSH1 0x40 MLOAD DUP1 DUP7 PUSH1 0x5 DUP2 GT ISZERO PUSH2 0x2E0 JUMPI INVALID JUMPDEST PUSH1 0xFF AND DUP2 MSTORE PUSH1 0x1 PUSH1 0x1 PUSH1 0xA0 SHL SUB SWAP1 SWAP6 AND PUSH1 0x20 DUP7 ADD MSTORE POP PUSH1 0x40 DUP1 DUP6 ADD SWAP4 SWAP1 SWAP4 MSTORE PUSH1 0x60 DUP5 ADD SWAP2 SWAP1 SWAP2 MSTORE PUSH1 0x80 DUP4 ADD MSTORE MLOAD SWAP1 DUP2 SWAP1 SUB PUSH1 0xA0 ADD SWAP2 POP RETURN JUMPDEST CALLVALUE DUP1 ISZERO PUSH2 0x324 JUMPI PUSH1 0x0 DUP1 REVERT JUMPDEST POP PUSH2 0x32D PUSH2 0xEF0 JUMP JUMPDEST PUSH1 0x40 DUP1 MLOAD PUSH1 0x1 PUSH1 0x1 PUSH1 0xA0 SHL SUB SWAP1 SWAP3 AND DUP3 MSTORE MLOAD SWAP1 DUP2 SWAP1 SUB PUSH1 0x20 ADD SWAP1 RETURN JUMPDEST CALLVALUE DUP1 ISZERO PUSH2 0x355 JUMPI PUSH1 0x0 DUP1 REVERT JUMPDEST POP PUSH2 0x16F PUSH1 0x4 DUP1 CALLDATASIZE SUB PUSH1 0x60 DUP2 LT ISZERO PUSH2 0x36C JUMPI PUSH1 0x0 DUP1 REVERT JUMPDEST POP DUP1 CALLDATALOAD SWAP1 PUSH1 0x20 DUP2 ADD CALLDATALOAD SWAP1 PUSH1 0x40 ADD CALLDATALOAD PUSH2 0xEFF JUMP JUMPDEST CALLVALUE DUP1 ISZERO PUSH2 0x38B JUMPI PUSH1 0x0 DUP1 REVERT JUMPDEST POP PUSH2 0x16F PUSH1 0x4 DUP1 CALLDATASIZE SUB PUSH1 0x20 DUP2 LT ISZERO PUSH2 0x3A2 JUMPI PUSH1 0x0 DUP1 REVERT JUMPDEST POP CALLDATALOAD PUSH2 0x1456 JUMP JUMPDEST CALLVALUE DUP1 ISZERO PUSH2 0x3B5 JUMPI PUSH1 0x0 DUP1 REVERT JUMPDEST POP PUSH2 0x32D PUSH1 0x4 DUP1 CALLDATASIZE SUB PUSH1 0x40 DUP2 LT ISZERO PUSH2 0x3CC JUMPI PUSH1 0x0 DUP1 REVERT JUMPDEST POP PUSH1 0x1 PUSH1 0x1 PUSH1 0xA0 SHL SUB DUP2 CALLDATALOAD AND SWAP1 PUSH1 0x20 ADD CALLDATALOAD PUSH2 0x16A9 JUMP JUMPDEST CALLVALUE DUP1 ISZERO PUSH2 0x3EE JUMPI PUSH1 0x0 DUP1 REVERT JUMPDEST POP PUSH2 0x40C PUSH1 0x4 DUP1 CALLDATASIZE SUB PUSH1 0x20 DUP2 LT ISZERO PUSH2 0x405 JUMPI PUSH1 0x0 DUP1 REVERT JUMPDEST POP CALLDATALOAD PUSH2 0x16CF JUMP JUMPDEST PUSH1 0x40 MLOAD DUP1 DUP3 PUSH1 0x5 DUP2 GT ISZERO PUSH2 0x41C JUMPI INVALID JUMPDEST PUSH1 0xFF AND DUP2 MSTORE PUSH1 0x20 ADD SWAP2 POP POP PUSH1 0x40 MLOAD DUP1 SWAP2 SUB SWAP1 RETURN JUMPDEST CALLVALUE DUP1 ISZERO PUSH2 0x43C JUMPI PUSH1 0x0 DUP1 REVERT JUMPDEST POP PUSH2 0x16F PUSH1 0x4 DUP1 CALLDATASIZE SUB PUSH1 0x40 DUP2 LT ISZERO PUSH2 0x453 JUMPI PUSH1 0x0 DUP1 REVERT JUMPDEST POP DUP1 CALLDATALOAD SWAP1 PUSH1 0x20 ADD CALLDATALOAD PUSH1 0x1 PUSH1 0x1 PUSH1 0xA0 SHL SUB AND PUSH2 0x1744 JUMP JUMPDEST CALLVALUE DUP1 ISZERO PUSH2 0x475 JUMPI PUSH1 0x0 DUP1 REVERT JUMPDEST POP PUSH2 0x499 PUSH1 0x4 DUP1 CALLDATASIZE SUB PUSH1 0x40 DUP2 LT ISZERO PUSH2 0x48C JUMPI PUSH1 0x0 DUP1 REVERT JUMPDEST POP DUP1 CALLDATALOAD SWAP1 PUSH1 0x20 ADD CALLDATALOAD PUSH2 0x1885 JUMP JUMPDEST PUSH1 0x40 DUP1 MLOAD SWAP2 ISZERO ISZERO DUP3 MSTORE MLOAD SWAP1 DUP2 SWAP1 SUB PUSH1 0x20 ADD SWAP1 RETURN JUMPDEST CALLVALUE DUP1 ISZERO PUSH2 0x4B9 JUMPI PUSH1 0x0 DUP1 REVERT JUMPDEST POP PUSH2 0x16F PUSH1 0x4 DUP1 CALLDATASIZE SUB PUSH1 0x20 DUP2 LT ISZERO PUSH2 0x4D0 JUMPI PUSH1 0x0 DUP1 REVERT JUMPDEST POP CALLDATALOAD PUSH2 0x189B JUMP JUMPDEST CALLVALUE DUP1 ISZERO PUSH2 0x4E3 JUMPI PUSH1 0x0 DUP1 REVERT JUMPDEST POP PUSH2 0x19B PUSH2 0x1B2D JUMP JUMPDEST CALLVALUE DUP1 ISZERO PUSH2 0x4F8 JUMPI PUSH1 0x0 DUP1 REVERT JUMPDEST POP PUSH2 0x501 PUSH2 0x1B33 JUMP JUMPDEST PUSH1 0x40 DUP1 MLOAD PUSH4 0xFFFFFFFF SWAP1 SWAP3 AND DUP3 MSTORE MLOAD SWAP1 DUP2 SWAP1 SUB PUSH1 0x20 ADD SWAP1 RETURN JUMPDEST PUSH2 0x16F PUSH1 0x4 DUP1 CALLDATASIZE SUB PUSH1 0x20 DUP2 LT ISZERO PUSH2 0x530 JUMPI PUSH1 0x0 DUP1 REVERT JUMPDEST POP CALLDATALOAD PUSH2 0x1B3A JUMP JUMPDEST CALLVALUE DUP1 ISZERO PUSH2 0x543 JUMPI PUSH1 0x0 DUP1 REVERT JUMPDEST POP PUSH2 0x16F PUSH1 0x4 DUP1 CALLDATASIZE SUB PUSH1 0x20 DUP2 LT ISZERO PUSH2 0x55A JUMPI PUSH1 0x0 DUP1 REVERT JUMPDEST DUP2 ADD SWAP1 PUSH1 0x20 DUP2 ADD DUP2 CALLDATALOAD PUSH1 0x1 PUSH1 0x20 SHL DUP2 GT ISZERO PUSH2 0x574 JUMPI PUSH1 0x0 DUP1 REVERT JUMPDEST DUP3 ADD DUP4 PUSH1 0x20 DUP3 ADD GT ISZERO PUSH2 0x586 JUMPI PUSH1 0x0 DUP1 REVERT JUMPDEST DUP1 CALLDATALOAD SWAP1 PUSH1 0x20 ADD SWAP2 DUP5 PUSH1 0x20 DUP4 MUL DUP5 ADD GT PUSH1 0x1 PUSH1 0x20 SHL DUP4 GT OR ISZERO PUSH2 0x5A7 JUMPI PUSH1 0x0 DUP1 REVERT JUMPDEST POP SWAP1 SWAP3 POP SWAP1 POP PUSH2 0x1B46 JUMP JUMPDEST CALLVALUE DUP1 ISZERO PUSH2 0x5BE JUMPI PUSH1 0x0 DUP1 REVERT JUMPDEST POP PUSH2 0x16F PUSH1 0x4 DUP1 CALLDATASIZE SUB PUSH1 0x20 DUP2 LT ISZERO PUSH2 0x5D5 JUMPI PUSH1 0x0 DUP1 REVERT JUMPDEST DUP2 ADD SWAP1 PUSH1 0x20 DUP2 ADD DUP2 CALLDATALOAD PUSH1 0x1 PUSH1 0x20 SHL DUP2 GT ISZERO PUSH2 0x5EF JUMPI PUSH1 0x0 DUP1 REVERT JUMPDEST DUP3 ADD DUP4 PUSH1 0x20 DUP3 ADD GT ISZERO PUSH2 0x601 JUMPI PUSH1 0x0 DUP1 REVERT JUMPDEST DUP1 CALLDATALOAD SWAP1 PUSH1 0x20 ADD SWAP2 DUP5 PUSH1 0x20 DUP4 MUL DUP5 ADD GT PUSH1 0x1 PUSH1 0x20 SHL DUP4 GT OR ISZERO PUSH2 0x622 JUMPI PUSH1 0x0 DUP1 REVERT JUMPDEST POP SWAP1 SWAP3 POP SWAP1 POP PUSH2 0x1BD2 JUMP JUMPDEST CALLVALUE DUP1 ISZERO PUSH2 0x639 JUMPI PUSH1 0x0 DUP1 REVERT JUMPDEST POP PUSH2 0x16F PUSH1 0x4 DUP1 CALLDATASIZE SUB PUSH1 0x60 DUP2 LT ISZERO PUSH2 0x650 JUMPI PUSH1 0x0 DUP1 REVERT JUMPDEST POP DUP1 CALLDATALOAD SWAP1 PUSH1 0x1 PUSH1 0x1 PUSH1 0xA0 SHL SUB PUSH1 0x20 DUP3 ADD CALLDATALOAD AND SWAP1 PUSH1 0x40 ADD CALLDATALOAD PUSH2 0x1C0E JUMP JUMPDEST CALLVALUE DUP1 ISZERO PUSH2 0x678 JUMPI PUSH1 0x0 DUP1 REVERT JUMPDEST POP PUSH2 0x16F PUSH1 0x4 DUP1 CALLDATASIZE SUB PUSH1 0x20 DUP2 LT ISZERO PUSH2 0x68F JUMPI PUSH1 0x0 DUP1 REVERT JUMPDEST POP CALLDATALOAD PUSH2 0x1C13 JUMP JUMPDEST CALLVALUE DUP1 ISZERO PUSH2 0x6A2 JUMPI PUSH1 0x0 DUP1 REVERT JUMPDEST POP PUSH2 0x19B PUSH2 0x1C1C JUMP JUMPDEST PUSH2 0x16F PUSH1 0x4 DUP1 CALLDATASIZE SUB PUSH1 0x40 DUP2 LT ISZERO PUSH2 0x6C1 JUMPI PUSH1 0x0 DUP1 REVERT JUMPDEST DUP2 ADD SWAP1 PUSH1 0x20 DUP2 ADD DUP2 CALLDATALOAD PUSH1 0x1 PUSH1 0x20 SHL DUP2 GT ISZERO PUSH2 0x6DB JUMPI PUSH1 0x0 DUP1 REVERT JUMPDEST DUP3 ADD DUP4 PUSH1 0x20 DUP3 ADD GT ISZERO PUSH2 0x6ED JUMPI PUSH1 0x0 DUP1 REVERT JUMPDEST DUP1 CALLDATALOAD SWAP1 PUSH1 0x20 ADD SWAP2 DUP5 PUSH1 0x20 DUP4 MUL DUP5 ADD GT PUSH1 0x1 PUSH1 0x20 SHL DUP4 GT OR ISZERO PUSH2 0x70E JUMPI PUSH1 0x0 DUP1 REVERT JUMPDEST SWAP2 SWAP4 POP SWAP2 POP CALLDATALOAD PUSH2 0x1C22 JUMP JUMPDEST DUP1 PUSH1 0x2 PUSH2 0x725 DUP3 PUSH2 0x16CF JUMP JUMPDEST PUSH1 0x5 DUP2 GT ISZERO PUSH2 0x730 JUMPI INVALID JUMPDEST EQ DUP1 ISZERO PUSH2 0x7BF JUMPI POP PUSH1 0x0 DUP2 DUP2 MSTORE PUSH1 0x2 PUSH1 0x20 SWAP1 DUP2 MSTORE PUSH1 0x40 SWAP2 DUP3 SWAP1 KECCAK256 SLOAD DUP3 MLOAD PUSH4 0x8DA5CB5B PUSH1 0xE0 SHL DUP2 MSTORE SWAP3 MLOAD PUSH1 0x1 PUSH1 0x1 PUSH1 0xA0 SHL SUB SWAP1 SWAP2 AND SWAP3 PUSH4 0x8DA5CB5B SWAP3 PUSH1 0x4 DUP1 DUP4 ADD SWAP4 SWAP2 SWAP3 DUP3 SWAP1 SUB ADD DUP2 DUP7 DUP1 EXTCODESIZE ISZERO DUP1 ISZERO PUSH2 0x787 JUMPI PUSH1 0x0 DUP1 REVERT JUMPDEST POP GAS STATICCALL ISZERO DUP1 ISZERO PUSH2 0x79B JUMPI RETURNDATASIZE PUSH1 0x0 DUP1 RETURNDATACOPY RETURNDATASIZE PUSH1 0x0 REVERT JUMPDEST POP POP POP POP PUSH1 0x40 MLOAD RETURNDATASIZE PUSH1 0x20 DUP2 LT ISZERO PUSH2 0x7B1 JUMPI PUSH1 0x0 DUP1 REVERT JUMPDEST POP MLOAD PUSH1 0x1 PUSH1 0x1 PUSH1 0xA0 SHL SUB AND CALLER EQ JUMPDEST PUSH2 0x7C8 JUMPI PUSH1 0x0 DUP1 REVERT JUMPDEST PUSH1 0x0 DUP3 DUP2 MSTORE PUSH1 0x2 PUSH1 0x20 MSTORE PUSH1 0x40 SWAP1 KECCAK256 DUP1 SLOAD PUSH1 0x1 DUP3 ADD SLOAD PUSH1 0x1 PUSH1 0x1 PUSH1 0xA0 SHL SUB SWAP1 SWAP2 AND SWAP1 PUSH4 0x1E13380 ADD TIMESTAMP LT ISZERO DUP1 PUSH2 0x87E JUMPI POP PUSH1 0x0 SLOAD PUSH1 0x1 SLOAD PUSH1 0x40 DUP1 MLOAD PUSH4 0x2571BE3 PUSH1 0xE0 SHL DUP2 MSTORE PUSH1 0x4 DUP2 ADD SWAP3 SWAP1 SWAP3 MSTORE MLOAD ADDRESS SWAP3 PUSH1 0x1 PUSH1 0x1 PUSH1 0xA0 SHL SUB AND SWAP2 PUSH4 0x2571BE3 SWAP2 PUSH1 0x24 DUP1 DUP4 ADD SWAP3 PUSH1 0x20 SWAP3 SWAP2 SWAP1 DUP3 SWAP1 SUB ADD DUP2 DUP7 DUP1 EXTCODESIZE ISZERO DUP1 ISZERO PUSH2 0x846 JUMPI PUSH1 0x0 DUP1 REVERT JUMPDEST POP GAS STATICCALL ISZERO DUP1 ISZERO PUSH2 0x85A JUMPI RETURNDATASIZE PUSH1 0x0 DUP1 RETURNDATACOPY RETURNDATASIZE PUSH1 0x0 REVERT JUMPDEST POP POP POP POP PUSH1 0x40 MLOAD RETURNDATASIZE PUSH1 0x20 DUP2 LT ISZERO PUSH2 0x870 JUMPI PUSH1 0x0 DUP1 REVERT JUMPDEST POP MLOAD PUSH1 0x1 PUSH1 0x1 PUSH1 0xA0 SHL SUB AND EQ ISZERO JUMPDEST PUSH2 0x887 JUMPI PUSH1 0x0 DUP1 REVERT JUMPDEST PUSH1 0x0 PUSH1 0x2 DUP4 ADD DUP2 SWAP1 SSTORE PUSH1 0x3 DUP4 ADD SSTORE DUP2 SLOAD PUSH1 0x1 PUSH1 0x1 PUSH1 0xA0 SHL SUB NOT AND DUP3 SSTORE PUSH2 0x8AC DUP5 PUSH2 0x1C67 JUMP JUMPDEST DUP1 PUSH1 0x1 PUSH1 0x1 PUSH1 0xA0 SHL SUB AND PUSH4 0xBBE42771 PUSH2 0x3E8 PUSH1 0x40 MLOAD DUP3 PUSH4 0xFFFFFFFF AND PUSH1 0xE0 SHL DUP2 MSTORE PUSH1 0x4 ADD DUP1 DUP3 DUP2 MSTORE PUSH1 0x20 ADD SWAP2 POP POP PUSH1 0x0 PUSH1 0x40 MLOAD DUP1 DUP4 SUB DUP2 PUSH1 0x0 DUP8 DUP1 EXTCODESIZE ISZERO DUP1 ISZERO PUSH2 0x8F4 JUMPI PUSH1 0x0 DUP1 REVERT JUMPDEST POP GAS CALL ISZERO DUP1 ISZERO PUSH2 0x908 JUMPI RETURNDATASIZE PUSH1 0x0 DUP1 RETURNDATACOPY RETURNDATASIZE PUSH1 0x0 REVERT JUMPDEST POP POP POP PUSH1 0x2 DUP4 ADD SLOAD PUSH1 0x40 DUP1 MLOAD SWAP2 DUP3 MSTORE MLOAD DUP7 SWAP3 POP PUSH32 0x292B79B9246FA2C8E77D3FE195B251F9CB839D7D038E667C069EE7708C631E16 SWAP2 DUP2 SWAP1 SUB PUSH1 0x20 ADD SWAP1 LOG2 POP POP POP POP JUMP JUMPDEST PUSH1 0x4 SLOAD PUSH1 0x80 DUP3 DUP2 SHR PUSH3 0x49D400 MUL SWAP1 SHR ADD JUMPDEST SWAP2 SWAP1 POP JUMP JUMPDEST DUP2 DUP2 PUSH1 0x40 MLOAD PUSH1 0x20 ADD DUP1 DUP1 PUSH1 0x20 ADD DUP3 DUP2 SUB DUP3 MSTORE DUP5 DUP5 DUP3 DUP2 DUP2 MSTORE PUSH1 0x20 ADD SWAP3 POP DUP1 DUP3 DUP5 CALLDATACOPY PUSH1 0x0 DUP2 DUP5 ADD MSTORE PUSH1 0x1F NOT PUSH1 0x1F DUP3 ADD AND SWAP1 POP DUP1 DUP4 ADD SWAP3 POP POP POP SWAP4 POP POP POP POP PUSH1 0x40 MLOAD PUSH1 0x20 DUP2 DUP4 SUB SUB DUP2 MSTORE SWAP1 PUSH1 0x40 MSTORE DUP1 MLOAD SWAP1 PUSH1 0x20 ADD KECCAK256 PUSH1 0x2 DUP1 PUSH1 0x5 DUP2 GT ISZERO PUSH2 0x9C2 JUMPI INVALID JUMPDEST PUSH2 0x9CB DUP4 PUSH2 0x16CF JUMP JUMPDEST PUSH1 0x5 DUP2 GT ISZERO PUSH2 0x9D6 JUMPI INVALID JUMPDEST EQ PUSH2 0x9E0 JUMPI PUSH1 0x0 DUP1 REVERT JUMPDEST PUSH1 0x6 PUSH2 0xA21 DUP6 DUP6 DUP1 DUP1 PUSH1 0x1F ADD PUSH1 0x20 DUP1 SWAP2 DIV MUL PUSH1 0x20 ADD PUSH1 0x40 MLOAD SWAP1 DUP2 ADD PUSH1 0x40 MSTORE DUP1 SWAP4 SWAP3 SWAP2 SWAP1 DUP2 DUP2 MSTORE PUSH1 0x20 ADD DUP4 DUP4 DUP1 DUP3 DUP5 CALLDATACOPY PUSH1 0x0 SWAP3 ADD SWAP2 SWAP1 SWAP2 MSTORE POP PUSH2 0x1E7A SWAP3 POP POP POP JUMP JUMPDEST GT ISZERO PUSH2 0xA2C JUMPI PUSH1 0x0 DUP1 REVERT JUMPDEST PUSH1 0x0 DUP5 DUP5 PUSH1 0x40 MLOAD PUSH1 0x20 ADD DUP1 DUP1 PUSH1 0x20 ADD DUP3 DUP2 SUB DUP3 MSTORE DUP5 DUP5 DUP3 DUP2 DUP2 MSTORE PUSH1 0x20 ADD SWAP3 POP DUP1 DUP3 DUP5 CALLDATACOPY PUSH1 0x0 DUP2 DUP5 ADD MSTORE PUSH1 0x1F NOT PUSH1 0x1F DUP3 ADD AND SWAP1 POP DUP1 DUP4 ADD SWAP3 POP POP POP SWAP4 POP POP POP POP PUSH1 0x40 MLOAD PUSH1 0x20 DUP2 DUP4 SUB SUB DUP2 MSTORE SWAP1 PUSH1 0x40 MSTORE DUP1 MLOAD SWAP1 PUSH1 0x20 ADD KECCAK256 SWAP1 POP PUSH1 0x0 PUSH1 0x2 PUSH1 0x0 DUP4 DUP2 MSTORE PUSH1 0x20 ADD SWAP1 DUP2 MSTORE PUSH1 0x20 ADD PUSH1 0x0 KECCAK256 SWAP1 POP PUSH2 0xAA3 DUP3 PUSH2 0x1C67 JUMP JUMPDEST DUP1 SLOAD PUSH1 0x1 PUSH1 0x1 PUSH1 0xA0 SHL SUB AND ISZERO PUSH2 0xC03 JUMPI PUSH2 0xAC8 DUP2 PUSH1 0x2 ADD SLOAD PUSH7 0x2386F26FC10000 PUSH2 0x1F1F JUMP JUMPDEST PUSH1 0x2 DUP3 DUP2 ADD DUP3 SWAP1 SSTORE DUP3 SLOAD PUSH1 0x40 DUP1 MLOAD PUSH4 0x586404B9 PUSH1 0xE1 SHL DUP2 MSTORE SWAP3 SWAP1 SWAP4 DIV PUSH1 0x4 DUP4 ADD MSTORE PUSH1 0x0 PUSH1 0x24 DUP4 ADD DUP2 SWAP1 MSTORE SWAP3 MLOAD PUSH1 0x1 PUSH1 0x1 PUSH1 0xA0 SHL SUB SWAP1 SWAP2 AND SWAP3 PUSH4 0xB0C80972 SWAP3 PUSH1 0x44 DUP1 DUP3 ADD SWAP4 SWAP2 DUP3 SWAP1 SUB ADD DUP2 DUP4 DUP8 DUP1 EXTCODESIZE ISZERO DUP1 ISZERO PUSH2 0xB22 JUMPI PUSH1 0x0 DUP1 REVERT JUMPDEST POP GAS CALL ISZERO DUP1 ISZERO PUSH2 0xB36 JUMPI RETURNDATASIZE PUSH1 0x0 DUP1 RETURNDATACOPY RETURNDATASIZE PUSH1 0x0 REVERT JUMPDEST POP POP DUP3 SLOAD PUSH1 0x40 DUP1 MLOAD PUSH4 0x13AF4035 PUSH1 0xE0 SHL DUP2 MSTORE CALLER PUSH1 0x4 DUP3 ADD MSTORE SWAP1 MLOAD PUSH1 0x1 PUSH1 0x1 PUSH1 0xA0 SHL SUB SWAP1 SWAP3 AND SWAP4 POP PUSH4 0x13AF4035 SWAP3 POP PUSH1 0x24 DUP1 DUP3 ADD SWAP3 PUSH1 0x0 SWAP3 SWAP1 SWAP2 SWAP1 DUP3 SWAP1 SUB ADD DUP2 DUP4 DUP8 DUP1 EXTCODESIZE ISZERO DUP1 ISZERO PUSH2 0xB85 JUMPI PUSH1 0x0 DUP1 REVERT JUMPDEST POP GAS CALL ISZERO DUP1 ISZERO PUSH2 0xB99 JUMPI RETURNDATASIZE PUSH1 0x0 DUP1 RETURNDATACOPY RETURNDATASIZE PUSH1 0x0 REVERT JUMPDEST POP POP DUP3 SLOAD PUSH1 0x40 DUP1 MLOAD PUSH4 0xBBE42771 PUSH1 0xE0 SHL DUP2 MSTORE PUSH2 0x3E8 PUSH1 0x4 DUP3 ADD MSTORE SWAP1 MLOAD PUSH1 0x1 PUSH1 0x1 PUSH1 0xA0 SHL SUB SWAP1 SWAP3 AND SWAP4 POP PUSH4 0xBBE42771 SWAP3 POP PUSH1 0x24 DUP1 DUP3 ADD SWAP3 PUSH1 0x0 SWAP3 SWAP1 SWAP2 SWAP1 DUP3 SWAP1 SUB ADD DUP2 DUP4 DUP8 DUP1 EXTCODESIZE ISZERO DUP1 ISZERO PUSH2 0xBEA JUMPI PUSH1 0x0 DUP1 REVERT JUMPDEST POP GAS CALL ISZERO DUP1 ISZERO PUSH2 0xBFE JUMPI RETURNDATASIZE PUSH1 0x0 DUP1 RETURNDATACOPY RETURNDATASIZE PUSH1 0x0 REVERT JUMPDEST POP POP POP POP JUMPDEST DUP6 DUP6 PUSH1 0x40 MLOAD DUP1 DUP4 DUP4 DUP1 DUP3 DUP5 CALLDATACOPY PUSH1 0x40 DUP1 MLOAD SWAP4 SWAP1 SWAP2 ADD DUP4 SWAP1 SUB DUP4 KECCAK256 PUSH1 0x2 DUP9 ADD SLOAD PUSH1 0x1 DUP10 ADD SLOAD SWAP1 DUP6 MSTORE PUSH1 0x20 DUP6 ADD MSTORE DUP2 MLOAD SWAP1 SWAP7 POP DUP9 SWAP6 POP PUSH32 0x1F9C649FE47E58BB60F4E52F0D90E4C47A526C9F90C5113DF842C025970B66AD SWAP5 POP SWAP3 DUP4 SWAP1 SUB ADD SWAP2 SWAP1 POP LOG3 PUSH1 0x0 PUSH1 0x2 DUP3 ADD DUP2 SWAP1 SSTORE PUSH1 0x3 DUP3 ADD SSTORE DUP1 SLOAD PUSH1 0x1 PUSH1 0x1 PUSH1 0xA0 SHL SUB NOT AND SWAP1 SSTORE POP POP POP POP POP JUMP JUMPDEST PUSH1 0x40 DUP1 MLOAD PUSH1 0x20 DUP1 DUP3 ADD SWAP7 SWAP1 SWAP7 MSTORE PUSH1 0x60 SWAP5 SWAP1 SWAP5 SHL PUSH12 0xFFFFFFFFFFFFFFFFFFFFFFFF NOT AND DUP5 DUP3 ADD MSTORE PUSH1 0x54 DUP5 ADD SWAP3 SWAP1 SWAP3 MSTORE PUSH1 0x74 DUP1 DUP5 ADD SWAP2 SWAP1 SWAP2 MSTORE DUP2 MLOAD DUP1 DUP5 SUB SWAP1 SWAP2 ADD DUP2 MSTORE PUSH1 0x94 SWAP1 SWAP3 ADD SWAP1 MSTORE DUP1 MLOAD SWAP2 ADD KECCAK256 SWAP1 JUMP JUMPDEST PUSH1 0x1 PUSH1 0x1 PUSH1 0xA0 SHL SUB DUP1 DUP4 AND PUSH1 0x0 SWAP1 DUP2 MSTORE PUSH1 0x3 PUSH1 0x20 SWAP1 DUP2 MSTORE PUSH1 0x40 DUP1 DUP4 KECCAK256 DUP6 DUP5 MSTORE SWAP1 SWAP2 MSTORE SWAP1 KECCAK256 SLOAD AND DUP1 ISZERO DUP1 ISZERO SWAP1 PUSH2 0xD7E JUMPI POP PUSH3 0x69780 PUSH4 0xFFFFFFFF AND DUP2 PUSH1 0x1 PUSH1 0x1 PUSH1 0xA0 SHL SUB AND PUSH4 0x5B34410 PUSH1 0x40 MLOAD DUP2 PUSH4 0xFFFFFFFF AND PUSH1 0xE0 SHL DUP2 MSTORE PUSH1 0x4 ADD PUSH1 0x20 PUSH1 0x40 MLOAD DUP1 DUP4 SUB DUP2 DUP7 DUP1 EXTCODESIZE ISZERO DUP1 ISZERO PUSH2 0xD48 JUMPI PUSH1 0x0 DUP1 REVERT JUMPDEST POP GAS STATICCALL ISZERO DUP1 ISZERO PUSH2 0xD5C JUMPI RETURNDATASIZE PUSH1 0x0 DUP1 RETURNDATACOPY RETURNDATASIZE PUSH1 0x0 REVERT JUMPDEST POP POP POP POP PUSH1 0x40 MLOAD RETURNDATASIZE PUSH1 0x20 DUP2 LT ISZERO PUSH2 0xD72 JUMPI PUSH1 0x0 DUP1 REVERT JUMPDEST POP MLOAD ADD PUSH3 0x127500 ADD TIMESTAMP LT ISZERO JUMPDEST PUSH2 0xD87 JUMPI PUSH1 0x0 DUP1 REVERT JUMPDEST PUSH1 0x40 DUP1 MLOAD PUSH4 0x13AF4035 PUSH1 0xE0 SHL DUP2 MSTORE CALLER PUSH1 0x4 DUP3 ADD MSTORE SWAP1 MLOAD PUSH1 0x1 PUSH1 0x1 PUSH1 0xA0 SHL SUB DUP4 AND SWAP2 PUSH4 0x13AF4035 SWAP2 PUSH1 0x24 DUP1 DUP4 ADD SWAP3 PUSH1 0x0 SWAP3 SWAP2 SWAP1 DUP3 SWAP1 SUB ADD DUP2 DUP4 DUP8 DUP1 EXTCODESIZE ISZERO DUP1 ISZERO PUSH2 0xDCE JUMPI PUSH1 0x0 DUP1 REVERT JUMPDEST POP GAS CALL ISZERO DUP1 ISZERO PUSH2 0xDE2 JUMPI RETURNDATASIZE PUSH1 0x0 DUP1 RETURNDATACOPY RETURNDATASIZE PUSH1 0x0 REVERT JUMPDEST POP POP POP POP DUP1 PUSH1 0x1 PUSH1 0x1 PUSH1 0xA0 SHL SUB AND PUSH4 0xBBE42771 PUSH1 0x5 PUSH1 0x40 MLOAD DUP3 PUSH4 0xFFFFFFFF AND PUSH1 0xE0 SHL DUP2 MSTORE PUSH1 0x4 ADD DUP1 DUP3 DUP2 MSTORE PUSH1 0x20 ADD SWAP2 POP POP PUSH1 0x0 PUSH1 0x40 MLOAD DUP1 DUP4 SUB DUP2 PUSH1 0x0 DUP8 DUP1 EXTCODESIZE ISZERO DUP1 ISZERO PUSH2 0xE2D JUMPI PUSH1 0x0 DUP1 REVERT JUMPDEST POP GAS CALL ISZERO DUP1 ISZERO PUSH2 0xE41 JUMPI RETURNDATASIZE PUSH1 0x0 DUP1 RETURNDATACOPY RETURNDATASIZE PUSH1 0x0 REVERT JUMPDEST POP POP POP POP PUSH1 0x1 PUSH1 0x1 PUSH1 0xA0 SHL SUB DUP4 AND PUSH1 0x0 DUP2 DUP2 MSTORE PUSH1 0x3 PUSH1 0x20 SWAP1 DUP2 MSTORE PUSH1 0x40 DUP1 DUP4 KECCAK256 DUP7 DUP5 MSTORE DUP3 MSTORE DUP1 DUP4 KECCAK256 DUP1 SLOAD PUSH1 0x1 PUSH1 0x1 PUSH1 0xA0 SHL SUB NOT AND SWAP1 SSTORE DUP1 MLOAD SWAP3 DUP4 MSTORE PUSH1 0x5 SWAP2 DUP4 ADD SWAP2 SWAP1 SWAP2 MSTORE DUP1 MLOAD DUP6 SWAP3 PUSH1 0x0 DUP1 MLOAD PUSH1 0x20 PUSH2 0x2932 DUP4 CODECOPY DUP2 MLOAD SWAP2 MSTORE SWAP3 SWAP1 DUP3 SWAP1 SUB ADD SWAP1 LOG3 POP POP POP JUMP JUMPDEST PUSH1 0x0 DUP2 DUP2 MSTORE PUSH1 0x2 PUSH1 0x20 MSTORE PUSH1 0x40 DUP2 KECCAK256 DUP2 SWAP1 DUP2 SWAP1 DUP2 SWAP1 DUP2 SWAP1 PUSH2 0xEC3 DUP8 PUSH2 0x16CF JUMP JUMPDEST DUP2 SLOAD PUSH1 0x1 DUP4 ADD SLOAD PUSH1 0x2 DUP5 ADD SLOAD PUSH1 0x3 SWAP1 SWAP5 ADD SLOAD SWAP3 SWAP11 PUSH1 0x1 PUSH1 0x1 PUSH1 0xA0 SHL SUB SWAP1 SWAP3 AND SWAP10 POP SWAP8 POP SWAP2 SWAP6 POP SWAP4 POP SWAP2 POP POP JUMP JUMPDEST PUSH1 0x0 SLOAD PUSH1 0x1 PUSH1 0x1 PUSH1 0xA0 SHL SUB AND DUP2 JUMP JUMPDEST PUSH1 0x0 PUSH2 0xF0D DUP5 CALLER DUP6 DUP6 PUSH2 0xC85 JUMP JUMPDEST CALLER PUSH1 0x0 SWAP1 DUP2 MSTORE PUSH1 0x3 PUSH1 0x20 SWAP1 DUP2 MSTORE PUSH1 0x40 DUP1 DUP4 KECCAK256 DUP5 DUP5 MSTORE SWAP1 SWAP2 MSTORE SWAP1 KECCAK256 SLOAD SWAP1 SWAP2 POP PUSH1 0x1 PUSH1 0x1 PUSH1 0xA0 SHL SUB AND DUP1 PUSH2 0xF3E JUMPI PUSH1 0x0 DUP1 REVERT JUMPDEST CALLER PUSH1 0x0 SWAP1 DUP2 MSTORE PUSH1 0x3 PUSH1 0x20 SWAP1 DUP2 MSTORE PUSH1 0x40 DUP1 DUP4 KECCAK256 DUP6 DUP5 MSTORE DUP3 MSTORE DUP1 DUP4 KECCAK256 DUP1 SLOAD PUSH1 0x1 PUSH1 0x1 PUSH1 0xA0 SHL SUB NOT AND SWAP1 SSTORE DUP8 DUP4 MSTORE PUSH1 0x2 DUP3 MSTORE DUP1 DUP4 KECCAK256 DUP2 MLOAD PUSH4 0x3FA4F245 PUSH1 0xE0 SHL DUP2 MSTORE SWAP2 MLOAD SWAP1 SWAP4 SWAP3 PUSH2 0xFE4 SWAP3 DUP10 SWAP3 PUSH1 0x1 PUSH1 0x1 PUSH1 0xA0 SHL SUB DUP9 AND SWAP3 PUSH4 0x3FA4F245 SWAP3 PUSH1 0x4 DUP1 DUP3 ADD SWAP4 SWAP2 DUP3 SWAP1 SUB ADD DUP2 DUP7 DUP1 EXTCODESIZE ISZERO DUP1 ISZERO PUSH2 0xFB3 JUMPI PUSH1 0x0 DUP1 REVERT JUMPDEST POP GAS STATICCALL ISZERO DUP1 ISZERO PUSH2 0xFC7 JUMPI RETURNDATASIZE PUSH1 0x0 DUP1 RETURNDATACOPY RETURNDATASIZE PUSH1 0x0 REVERT JUMPDEST POP POP POP POP PUSH1 0x40 MLOAD RETURNDATASIZE PUSH1 0x20 DUP2 LT ISZERO PUSH2 0xFDD JUMPI PUSH1 0x0 DUP1 REVERT JUMPDEST POP MLOAD PUSH2 0x1F37 JUMP JUMPDEST PUSH1 0x40 DUP1 MLOAD PUSH4 0x586404B9 PUSH1 0xE1 SHL DUP2 MSTORE PUSH1 0x4 DUP2 ADD DUP4 SWAP1 MSTORE PUSH1 0x1 PUSH1 0x24 DUP3 ADD MSTORE SWAP1 MLOAD SWAP2 SWAP3 POP PUSH1 0x1 PUSH1 0x1 PUSH1 0xA0 SHL SUB DUP6 AND SWAP2 PUSH4 0xB0C80972 SWAP2 PUSH1 0x44 DUP1 DUP3 ADD SWAP3 PUSH1 0x0 SWAP3 SWAP1 SWAP2 SWAP1 DUP3 SWAP1 SUB ADD DUP2 DUP4 DUP8 DUP1 EXTCODESIZE ISZERO DUP1 ISZERO PUSH2 0x1037 JUMPI PUSH1 0x0 DUP1 REVERT JUMPDEST POP GAS CALL ISZERO DUP1 ISZERO PUSH2 0x104B JUMPI RETURNDATASIZE PUSH1 0x0 DUP1 RETURNDATACOPY RETURNDATASIZE PUSH1 0x0 REVERT JUMPDEST POP POP POP POP PUSH1 0x0 PUSH2 0x105A DUP9 PUSH2 0x16CF JUMP JUMPDEST SWAP1 POP PUSH1 0x2 DUP2 PUSH1 0x5 DUP2 GT ISZERO PUSH2 0x106A JUMPI INVALID JUMPDEST EQ ISZERO PUSH2 0x1101 JUMPI DUP4 PUSH1 0x1 PUSH1 0x1 PUSH1 0xA0 SHL SUB AND PUSH4 0xBBE42771 PUSH1 0x5 PUSH1 0x40 MLOAD DUP3 PUSH4 0xFFFFFFFF AND PUSH1 0xE0 SHL DUP2 MSTORE PUSH1 0x4 ADD DUP1 DUP3 DUP2 MSTORE PUSH1 0x20 ADD SWAP2 POP POP PUSH1 0x0 PUSH1 0x40 MLOAD DUP1 DUP4 SUB DUP2 PUSH1 0x0 DUP8 DUP1 EXTCODESIZE ISZERO DUP1 ISZERO PUSH2 0x10B7 JUMPI PUSH1 0x0 DUP1 REVERT JUMPDEST POP GAS CALL ISZERO DUP1 ISZERO PUSH2 0x10CB JUMPI RETURNDATASIZE PUSH1 0x0 DUP1 RETURNDATACOPY RETURNDATASIZE PUSH1 0x0 REVERT JUMPDEST POP POP PUSH1 0x40 DUP1 MLOAD DUP6 DUP2 MSTORE PUSH1 0x1 PUSH1 0x20 DUP3 ADD MSTORE DUP2 MLOAD CALLER SWAP5 POP DUP13 SWAP4 POP PUSH1 0x0 DUP1 MLOAD PUSH1 0x20 PUSH2 0x2932 DUP4 CODECOPY DUP2 MLOAD SWAP2 MSTORE SWAP3 SWAP2 DUP2 SWAP1 SUB SWAP1 SWAP2 ADD SWAP1 LOG3 PUSH2 0x144C JUMP JUMPDEST PUSH1 0x4 DUP2 PUSH1 0x5 DUP2 GT ISZERO PUSH2 0x110F JUMPI INVALID JUMPDEST EQ PUSH2 0x1119 JUMPI PUSH1 0x0 DUP1 REVERT JUMPDEST PUSH7 0x2386F26FC10000 DUP3 LT DUP1 PUSH2 0x11A0 JUMPI POP PUSH3 0x2A300 PUSH4 0xFFFFFFFF AND DUP4 PUSH1 0x1 ADD SLOAD SUB DUP5 PUSH1 0x1 PUSH1 0x1 PUSH1 0xA0 SHL SUB AND PUSH4 0x5B34410 PUSH1 0x40 MLOAD DUP2 PUSH4 0xFFFFFFFF AND PUSH1 0xE0 SHL DUP2 MSTORE PUSH1 0x4 ADD PUSH1 0x20 PUSH1 0x40 MLOAD DUP1 DUP4 SUB DUP2 DUP7 DUP1 EXTCODESIZE ISZERO DUP1 ISZERO PUSH2 0x1172 JUMPI PUSH1 0x0 DUP1 REVERT JUMPDEST POP GAS STATICCALL ISZERO DUP1 ISZERO PUSH2 0x1186 JUMPI RETURNDATASIZE PUSH1 0x0 DUP1 RETURNDATACOPY RETURNDATASIZE PUSH1 0x0 REVERT JUMPDEST POP POP POP POP PUSH1 0x40 MLOAD RETURNDATASIZE PUSH1 0x20 DUP2 LT ISZERO PUSH2 0x119C JUMPI PUSH1 0x0 DUP1 REVERT JUMPDEST POP MLOAD GT JUMPDEST ISZERO PUSH2 0x1237 JUMPI DUP4 PUSH1 0x1 PUSH1 0x1 PUSH1 0xA0 SHL SUB AND PUSH4 0xBBE42771 PUSH2 0x3E3 PUSH1 0x40 MLOAD DUP3 PUSH4 0xFFFFFFFF AND PUSH1 0xE0 SHL DUP2 MSTORE PUSH1 0x4 ADD DUP1 DUP3 DUP2 MSTORE PUSH1 0x20 ADD SWAP2 POP POP PUSH1 0x0 PUSH1 0x40 MLOAD DUP1 DUP4 SUB DUP2 PUSH1 0x0 DUP8 DUP1 EXTCODESIZE ISZERO DUP1 ISZERO PUSH2 0x11ED JUMPI PUSH1 0x0 DUP1 REVERT JUMPDEST POP GAS CALL ISZERO DUP1 ISZERO PUSH2 0x1201 JUMPI RETURNDATASIZE PUSH1 0x0 DUP1 RETURNDATACOPY RETURNDATASIZE PUSH1 0x0 REVERT JUMPDEST POP POP PUSH1 0x40 DUP1 MLOAD DUP6 DUP2 MSTORE PUSH1 0x0 PUSH1 0x20 DUP3 ADD MSTORE DUP2 MLOAD CALLER SWAP5 POP DUP13 SWAP4 POP PUSH1 0x0 DUP1 MLOAD PUSH1 0x20 PUSH2 0x2932 DUP4 CODECOPY DUP2 MLOAD SWAP2 MSTORE SWAP3 SWAP2 DUP2 SWAP1 SUB SWAP1 SWAP2 ADD SWAP1 LOG3 PUSH2 0x144C JUMP JUMPDEST DUP3 PUSH1 0x3 ADD SLOAD DUP3 GT ISZERO PUSH2 0x1318 JUMPI DUP3 SLOAD PUSH1 0x1 PUSH1 0x1 PUSH1 0xA0 SHL SUB AND ISZERO PUSH2 0x12BB JUMPI DUP3 SLOAD PUSH1 0x40 DUP1 MLOAD PUSH4 0xBBE42771 PUSH1 0xE0 SHL DUP2 MSTORE PUSH2 0x3E3 PUSH1 0x4 DUP3 ADD MSTORE SWAP1 MLOAD PUSH1 0x1 PUSH1 0x1 PUSH1 0xA0 SHL SUB SWAP1 SWAP3 AND SWAP2 DUP3 SWAP2 PUSH4 0xBBE42771 SWAP2 PUSH1 0x24 DUP1 DUP4 ADD SWAP3 PUSH1 0x0 SWAP3 SWAP2 SWAP1 DUP3 SWAP1 SUB ADD DUP2 DUP4 DUP8 DUP1 EXTCODESIZE ISZERO DUP1 ISZERO PUSH2 0x12A1 JUMPI PUSH1 0x0 DUP1 REVERT JUMPDEST POP GAS CALL ISZERO DUP1 ISZERO PUSH2 0x12B5 JUMPI RETURNDATASIZE PUSH1 0x0 DUP1 RETURNDATACOPY RETURNDATASIZE PUSH1 0x0 REVERT JUMPDEST POP POP POP POP POP JUMPDEST PUSH1 0x3 DUP4 ADD DUP1 SLOAD PUSH1 0x2 DUP1 DUP7 ADD SWAP2 SWAP1 SWAP2 SSTORE SWAP1 DUP4 SWAP1 SSTORE DUP4 SLOAD PUSH1 0x1 PUSH1 0x1 PUSH1 0xA0 SHL SUB NOT AND PUSH1 0x1 PUSH1 0x1 PUSH1 0xA0 SHL SUB DUP7 AND OR DUP5 SSTORE PUSH1 0x40 DUP1 MLOAD DUP5 DUP2 MSTORE PUSH1 0x20 DUP2 ADD SWAP3 SWAP1 SWAP3 MSTORE DUP1 MLOAD CALLER SWAP3 DUP12 SWAP3 PUSH1 0x0 DUP1 MLOAD PUSH1 0x20 PUSH2 0x2932 DUP4 CODECOPY DUP2 MLOAD SWAP2 MSTORE SWAP3 SWAP2 DUP3 SWAP1 SUB ADD SWAP1 LOG3 PUSH2 0x144C JUMP JUMPDEST DUP3 PUSH1 0x2 ADD SLOAD DUP3 GT ISZERO PUSH2 0x13BE JUMPI PUSH1 0x2 DUP4 ADD DUP3 SWAP1 SSTORE PUSH1 0x40 DUP1 MLOAD PUSH4 0xBBE42771 PUSH1 0xE0 SHL DUP2 MSTORE PUSH2 0x3E3 PUSH1 0x4 DUP3 ADD MSTORE SWAP1 MLOAD PUSH1 0x1 PUSH1 0x1 PUSH1 0xA0 SHL SUB DUP7 AND SWAP2 PUSH4 0xBBE42771 SWAP2 PUSH1 0x24 DUP1 DUP4 ADD SWAP3 PUSH1 0x0 SWAP3 SWAP2 SWAP1 DUP3 SWAP1 SUB ADD DUP2 DUP4 DUP8 DUP1 EXTCODESIZE ISZERO DUP1 ISZERO PUSH2 0x1374 JUMPI PUSH1 0x0 DUP1 REVERT JUMPDEST POP GAS CALL ISZERO DUP1 ISZERO PUSH2 0x1388 JUMPI RETURNDATASIZE PUSH1 0x0 DUP1 RETURNDATACOPY RETURNDATASIZE PUSH1 0x0 REVERT JUMPDEST POP POP PUSH1 0x40 DUP1 MLOAD DUP6 DUP2 MSTORE PUSH1 0x3 PUSH1 0x20 DUP3 ADD MSTORE DUP2 MLOAD CALLER SWAP5 POP DUP13 SWAP4 POP PUSH1 0x0 DUP1 MLOAD PUSH1 0x20 PUSH2 0x2932 DUP4 CODECOPY DUP2 MLOAD SWAP2 MSTORE SWAP3 SWAP2 DUP2 SWAP1 SUB SWAP1 SWAP2 ADD SWAP1 LOG3 PUSH2 0x144C JUMP JUMPDEST DUP4 PUSH1 0x1 PUSH1 0x1 PUSH1 0xA0 SHL SUB AND PUSH4 0xBBE42771 PUSH2 0x3E3 PUSH1 0x40 MLOAD DUP3 PUSH4 0xFFFFFFFF AND PUSH1 0xE0 SHL DUP2 MSTORE PUSH1 0x4 ADD DUP1 DUP3 DUP2 MSTORE PUSH1 0x20 ADD SWAP2 POP POP PUSH1 0x0 PUSH1 0x40 MLOAD DUP1 DUP4 SUB DUP2 PUSH1 0x0 DUP8 DUP1 EXTCODESIZE ISZERO DUP1 ISZERO PUSH2 0x1406 JUMPI PUSH1 0x0 DUP1 REVERT JUMPDEST POP GAS CALL ISZERO DUP1 ISZERO PUSH2 0x141A JUMPI RETURNDATASIZE PUSH1 0x0 DUP1 RETURNDATACOPY RETURNDATASIZE PUSH1 0x0 REVERT JUMPDEST POP POP PUSH1 0x40 DUP1 MLOAD DUP6 DUP2 MSTORE PUSH1 0x4 PUSH1 0x20 DUP3 ADD MSTORE DUP2 MLOAD CALLER SWAP5 POP DUP13 SWAP4 POP PUSH1 0x0 DUP1 MLOAD PUSH1 0x20 PUSH2 0x2932 DUP4 CODECOPY DUP2 MLOAD SWAP2 MSTORE SWAP3 SWAP2 DUP2 SWAP1 SUB SWAP1 SWAP2 ADD SWAP1 LOG3 JUMPDEST POP POP POP POP POP POP POP POP JUMP JUMPDEST DUP1 PUSH1 0x2 PUSH2 0x1462 DUP3 PUSH2 0x16CF JUMP JUMPDEST PUSH1 0x5 DUP2 GT ISZERO PUSH2 0x146D JUMPI INVALID JUMPDEST EQ DUP1 ISZERO PUSH2 0x14FC JUMPI POP PUSH1 0x0 DUP2 DUP2 MSTORE PUSH1 0x2 PUSH1 0x20 SWAP1 DUP2 MSTORE PUSH1 0x40 SWAP2 DUP3 SWAP1 KECCAK256 SLOAD DUP3 MLOAD PUSH4 0x8DA5CB5B PUSH1 0xE0 SHL DUP2 MSTORE SWAP3 MLOAD PUSH1 0x1 PUSH1 0x1 PUSH1 0xA0 SHL SUB SWAP1 SWAP2 AND SWAP3 PUSH4 0x8DA5CB5B SWAP3 PUSH1 0x4 DUP1 DUP4 ADD SWAP4 SWAP2 SWAP3 DUP3 SWAP1 SUB ADD DUP2 DUP7 DUP1 EXTCODESIZE ISZERO DUP1 ISZERO PUSH2 0x14C4 JUMPI PUSH1 0x0 DUP1 REVERT JUMPDEST POP GAS STATICCALL ISZERO DUP1 ISZERO PUSH2 0x14D8 JUMPI RETURNDATASIZE PUSH1 0x0 DUP1 RETURNDATACOPY RETURNDATASIZE PUSH1 0x0 REVERT JUMPDEST POP POP POP POP PUSH1 0x40 MLOAD RETURNDATASIZE PUSH1 0x20 DUP2 LT ISZERO PUSH2 0x14EE JUMPI PUSH1 0x0 DUP1 REVERT JUMPDEST POP MLOAD PUSH1 0x1 PUSH1 0x1 PUSH1 0xA0 SHL SUB AND CALLER EQ JUMPDEST PUSH2 0x1505 JUMPI PUSH1 0x0 DUP1 REVERT JUMPDEST PUSH1 0x0 DUP1 SLOAD PUSH1 0x1 SLOAD PUSH1 0x40 DUP1 MLOAD PUSH4 0x2571BE3 PUSH1 0xE0 SHL DUP2 MSTORE PUSH1 0x4 DUP2 ADD SWAP3 SWAP1 SWAP3 MSTORE MLOAD PUSH1 0x1 PUSH1 0x1 PUSH1 0xA0 SHL SUB SWAP1 SWAP3 AND SWAP2 PUSH4 0x2571BE3 SWAP2 PUSH1 0x24 DUP1 DUP3 ADD SWAP3 PUSH1 0x20 SWAP3 SWAP1 SWAP2 SWAP1 DUP3 SWAP1 SUB ADD DUP2 DUP7 DUP1 EXTCODESIZE ISZERO DUP1 ISZERO PUSH2 0x1555 JUMPI PUSH1 0x0 DUP1 REVERT JUMPDEST POP GAS STATICCALL ISZERO DUP1 ISZERO PUSH2 0x1569 JUMPI RETURNDATASIZE PUSH1 0x0 DUP1 RETURNDATACOPY RETURNDATASIZE PUSH1 0x0 REVERT JUMPDEST POP POP POP POP PUSH1 0x40 MLOAD RETURNDATASIZE PUSH1 0x20 DUP2 LT ISZERO PUSH2 0x157F JUMPI PUSH1 0x0 DUP1 REVERT JUMPDEST POP MLOAD SWAP1 POP PUSH1 0x1 PUSH1 0x1 PUSH1 0xA0 SHL SUB DUP2 AND ADDRESS EQ ISZERO PUSH2 0x1599 JUMPI PUSH1 0x0 DUP1 REVERT JUMPDEST PUSH1 0x0 DUP4 DUP2 MSTORE PUSH1 0x2 PUSH1 0x20 MSTORE PUSH1 0x40 DUP1 DUP3 KECCAK256 DUP1 SLOAD DUP3 MLOAD PUSH4 0xFAAB9D39 PUSH1 0xE0 SHL DUP2 MSTORE PUSH1 0x1 PUSH1 0x1 PUSH1 0xA0 SHL SUB DUP7 DUP2 AND PUSH1 0x4 DUP4 ADD MSTORE SWAP4 MLOAD SWAP3 SWAP5 SWAP4 SWAP1 SWAP2 AND SWAP3 PUSH4 0xFAAB9D39 SWAP3 PUSH1 0x24 DUP1 DUP5 ADD SWAP4 DUP3 SWAP1 SUB ADD DUP2 DUP4 DUP8 DUP1 EXTCODESIZE ISZERO DUP1 ISZERO PUSH2 0x15F0 JUMPI PUSH1 0x0 DUP1 REVERT JUMPDEST POP GAS CALL ISZERO DUP1 ISZERO PUSH2 0x1604 JUMPI RETURNDATASIZE PUSH1 0x0 DUP1 RETURNDATACOPY RETURNDATASIZE PUSH1 0x0 REVERT JUMPDEST POP POP DUP3 SLOAD PUSH1 0x1 DUP5 ADD SLOAD PUSH1 0x40 DUP1 MLOAD PUSH4 0x754F083D PUSH1 0xE1 SHL DUP2 MSTORE PUSH1 0x4 DUP2 ADD DUP11 SWAP1 MSTORE PUSH1 0x1 PUSH1 0x1 PUSH1 0xA0 SHL SUB SWAP4 DUP5 AND PUSH1 0x24 DUP3 ADD MSTORE PUSH1 0x44 DUP2 ADD SWAP3 SWAP1 SWAP3 MSTORE MLOAD SWAP2 DUP7 AND SWAP4 POP PUSH4 0xEA9E107A SWAP3 POP PUSH1 0x64 DUP1 DUP3 ADD SWAP3 PUSH1 0x0 SWAP3 SWAP1 SWAP2 SWAP1 DUP3 SWAP1 SUB ADD DUP2 DUP4 DUP8 DUP1 EXTCODESIZE ISZERO DUP1 ISZERO PUSH2 0x1668 JUMPI PUSH1 0x0 DUP1 REVERT JUMPDEST POP GAS CALL ISZERO DUP1 ISZERO PUSH2 0x167C JUMPI RETURNDATASIZE PUSH1 0x0 DUP1 RETURNDATACOPY RETURNDATASIZE PUSH1 0x0 REVERT JUMPDEST POP POP DUP3 SLOAD PUSH1 0x1 PUSH1 0x1 PUSH1 0xA0 SHL SUB NOT AND DUP4 SSTORE POP POP PUSH1 0x0 PUSH1 0x1 DUP3 ADD DUP2 SWAP1 SSTORE PUSH1 0x2 DUP3 ADD DUP2 SWAP1 SSTORE PUSH1 0x3 SWAP1 SWAP2 ADD SSTORE POP POP POP JUMP JUMPDEST PUSH1 0x3 PUSH1 0x20 SWAP1 DUP2 MSTORE PUSH1 0x0 SWAP3 DUP4 MSTORE PUSH1 0x40 DUP1 DUP5 KECCAK256 SWAP1 SWAP2 MSTORE SWAP1 DUP3 MSTORE SWAP1 KECCAK256 SLOAD PUSH1 0x1 PUSH1 0x1 PUSH1 0xA0 SHL SUB AND DUP2 JUMP JUMPDEST PUSH1 0x0 DUP2 DUP2 MSTORE PUSH1 0x2 PUSH1 0x20 MSTORE PUSH1 0x40 DUP2 KECCAK256 PUSH2 0x16E7 DUP4 TIMESTAMP PUSH2 0x1885 JUMP JUMPDEST PUSH2 0x16F5 JUMPI PUSH1 0x5 SWAP2 POP POP PUSH2 0x95C JUMP JUMPDEST DUP1 PUSH1 0x1 ADD SLOAD TIMESTAMP LT ISZERO PUSH2 0x1727 JUMPI PUSH1 0x1 DUP2 ADD SLOAD PUSH3 0x2A2FF NOT ADD TIMESTAMP LT ISZERO PUSH2 0x171D JUMPI PUSH1 0x1 SWAP2 POP POP PUSH2 0x95C JUMP JUMPDEST PUSH1 0x4 SWAP2 POP POP PUSH2 0x95C JUMP JUMPDEST PUSH1 0x3 DUP2 ADD SLOAD PUSH2 0x173A JUMPI PUSH1 0x0 SWAP2 POP POP PUSH2 0x95C JUMP JUMPDEST PUSH1 0x2 SWAP2 POP POP PUSH2 0x95C JUMP JUMPDEST DUP2 PUSH1 0x2 PUSH2 0x1750 DUP3 PUSH2 0x16CF JUMP JUMPDEST PUSH1 0x5 DUP2 GT ISZERO PUSH2 0x175B JUMPI INVALID JUMPDEST EQ DUP1 ISZERO PUSH2 0x17EA JUMPI POP PUSH1 0x0 DUP2 DUP2 MSTORE PUSH1 0x2 PUSH1 0x20 SWAP1 DUP2 MSTORE PUSH1 0x40 SWAP2 DUP3 SWAP1 KECCAK256 SLOAD DUP3 MLOAD PUSH4 0x8DA5CB5B PUSH1 0xE0 SHL DUP2 MSTORE SWAP3 MLOAD PUSH1 0x1 PUSH1 0x1 PUSH1 0xA0 SHL SUB SWAP1 SWAP2 AND SWAP3 PUSH4 0x8DA5CB5B SWAP3 PUSH1 0x4 DUP1 DUP4 ADD SWAP4 SWAP2 SWAP3 DUP3 SWAP1 SUB ADD DUP2 DUP7 DUP1 EXTCODESIZE ISZERO DUP1 ISZERO PUSH2 0x17B2 JUMPI PUSH1 0x0 DUP1 REVERT JUMPDEST POP GAS STATICCALL ISZERO DUP1 ISZERO PUSH2 0x17C6 JUMPI RETURNDATASIZE PUSH1 0x0 DUP1 RETURNDATACOPY RETURNDATASIZE PUSH1 0x0 REVERT JUMPDEST POP POP POP POP PUSH1 0x40 MLOAD RETURNDATASIZE PUSH1 0x20 DUP2 LT ISZERO PUSH2 0x17DC JUMPI PUSH1 0x0 DUP1 REVERT JUMPDEST POP MLOAD PUSH1 0x1 PUSH1 0x1 PUSH1 0xA0 SHL SUB AND CALLER EQ JUMPDEST PUSH2 0x17F3 JUMPI PUSH1 0x0 DUP1 REVERT JUMPDEST PUSH1 0x1 PUSH1 0x1 PUSH1 0xA0 SHL SUB DUP3 AND PUSH2 0x1806 JUMPI PUSH1 0x0 DUP1 REVERT JUMPDEST PUSH1 0x0 DUP4 DUP2 MSTORE PUSH1 0x2 PUSH1 0x20 MSTORE PUSH1 0x40 DUP1 DUP3 KECCAK256 DUP1 SLOAD DUP3 MLOAD PUSH4 0x13AF4035 PUSH1 0xE0 SHL DUP2 MSTORE PUSH1 0x1 PUSH1 0x1 PUSH1 0xA0 SHL SUB DUP8 DUP2 AND PUSH1 0x4 DUP4 ADD MSTORE SWAP4 MLOAD SWAP3 SWAP5 SWAP4 SWAP1 SWAP2 AND SWAP3 PUSH4 0x13AF4035 SWAP3 PUSH1 0x24 DUP1 DUP5 ADD SWAP4 DUP3 SWAP1 SUB ADD DUP2 DUP4 DUP8 DUP1 EXTCODESIZE ISZERO DUP1 ISZERO PUSH2 0x185D JUMPI PUSH1 0x0 DUP1 REVERT JUMPDEST POP GAS CALL ISZERO DUP1 ISZERO PUSH2 0x1871 JUMPI RETURNDATASIZE PUSH1 0x0 DUP1 RETURNDATACOPY RETURNDATASIZE PUSH1 0x0 REVERT JUMPDEST POP POP POP POP PUSH2 0x187F DUP5 DUP5 PUSH2 0x1F48 JUMP JUMPDEST POP POP POP POP JUMP JUMPDEST PUSH1 0x0 PUSH2 0x1890 DUP4 PUSH2 0x94B JUMP JUMPDEST DUP3 GT SWAP1 POP JUMPDEST SWAP3 SWAP2 POP POP JUMP JUMPDEST DUP1 PUSH1 0x2 PUSH2 0x18A7 DUP3 PUSH2 0x16CF JUMP JUMPDEST PUSH1 0x5 DUP2 GT ISZERO PUSH2 0x18B2 JUMPI INVALID JUMPDEST EQ DUP1 ISZERO PUSH2 0x1941 JUMPI POP PUSH1 0x0 DUP2 DUP2 MSTORE PUSH1 0x2 PUSH1 0x20 SWAP1 DUP2 MSTORE PUSH1 0x40 SWAP2 DUP3 SWAP1 KECCAK256 SLOAD DUP3 MLOAD PUSH4 0x8DA5CB5B PUSH1 0xE0 SHL DUP2 MSTORE SWAP3 MLOAD PUSH1 0x1 PUSH1 0x1 PUSH1 0xA0 SHL SUB SWAP1 SWAP2 AND SWAP3 PUSH4 0x8DA5CB5B SWAP3 PUSH1 0x4 DUP1 DUP4 ADD SWAP4 SWAP2 SWAP3 DUP3 SWAP1 SUB ADD DUP2 DUP7 DUP1 EXTCODESIZE ISZERO DUP1 ISZERO PUSH2 0x1909 JUMPI PUSH1 0x0 DUP1 REVERT JUMPDEST POP GAS STATICCALL ISZERO DUP1 ISZERO PUSH2 0x191D JUMPI RETURNDATASIZE PUSH1 0x0 DUP1 RETURNDATACOPY RETURNDATASIZE PUSH1 0x0 REVERT JUMPDEST POP POP POP POP PUSH1 0x40 MLOAD RETURNDATASIZE PUSH1 0x20 DUP2 LT ISZERO PUSH2 0x1933 JUMPI PUSH1 0x0 DUP1 REVERT JUMPDEST POP MLOAD PUSH1 0x1 PUSH1 0x1 PUSH1 0xA0 SHL SUB AND CALLER EQ JUMPDEST PUSH2 0x194A JUMPI PUSH1 0x0 DUP1 REVERT JUMPDEST PUSH1 0x0 DUP3 DUP2 MSTORE PUSH1 0x2 PUSH1 0x20 DUP2 SWAP1 MSTORE PUSH1 0x40 SWAP1 SWAP2 KECCAK256 SWAP1 DUP2 ADD SLOAD PUSH2 0x1970 SWAP1 PUSH7 0x2386F26FC10000 PUSH2 0x1F1F JUMP JUMPDEST PUSH1 0x2 DUP3 ADD DUP2 SWAP1 SSTORE DUP2 SLOAD PUSH1 0x40 DUP1 MLOAD PUSH4 0x586404B9 PUSH1 0xE1 SHL DUP2 MSTORE PUSH1 0x4 DUP2 ADD SWAP4 SWAP1 SWAP4 MSTORE PUSH1 0x1 PUSH1 0x24 DUP5 ADD MSTORE MLOAD PUSH1 0x1 PUSH1 0x1 PUSH1 0xA0 SHL SUB SWAP1 SWAP2 AND SWAP2 PUSH4 0xB0C80972 SWAP2 PUSH1 0x44 DUP1 DUP4 ADD SWAP3 PUSH1 0x0 SWAP3 SWAP2 SWAP1 DUP3 SWAP1 SUB ADD DUP2 DUP4 DUP8 DUP1 EXTCODESIZE ISZERO DUP1 ISZERO PUSH2 0x19C9 JUMPI PUSH1 0x0 DUP1 REVERT JUMPDEST POP GAS CALL ISZERO DUP1 ISZERO PUSH2 0x19DD JUMPI RETURNDATASIZE PUSH1 0x0 DUP1 RETURNDATACOPY RETURNDATASIZE PUSH1 0x0 REVERT JUMPDEST POP POP POP POP PUSH2 0x1A66 DUP4 DUP3 PUSH1 0x0 ADD PUSH1 0x0 SWAP1 SLOAD SWAP1 PUSH2 0x100 EXP SWAP1 DIV PUSH1 0x1 PUSH1 0x1 PUSH1 0xA0 SHL SUB AND PUSH1 0x1 PUSH1 0x1 PUSH1 0xA0 SHL SUB AND PUSH4 0x8DA5CB5B PUSH1 0x40 MLOAD DUP2 PUSH4 0xFFFFFFFF AND PUSH1 0xE0 SHL DUP2 MSTORE PUSH1 0x4 ADD PUSH1 0x20 PUSH1 0x40 MLOAD DUP1 DUP4 SUB DUP2 DUP7 DUP1 EXTCODESIZE ISZERO DUP1 ISZERO PUSH2 0x1A35 JUMPI PUSH1 0x0 DUP1 REVERT JUMPDEST POP GAS STATICCALL ISZERO DUP1 ISZERO PUSH2 0x1A49 JUMPI RETURNDATASIZE PUSH1 0x0 DUP1 RETURNDATACOPY RETURNDATASIZE PUSH1 0x0 REVERT JUMPDEST POP POP POP POP PUSH1 0x40 MLOAD RETURNDATASIZE PUSH1 0x20 DUP2 LT ISZERO PUSH2 0x1A5F JUMPI PUSH1 0x0 DUP1 REVERT JUMPDEST POP MLOAD PUSH2 0x1F48 JUMP JUMPDEST DUP1 SLOAD PUSH1 0x40 DUP1 MLOAD PUSH4 0x8DA5CB5B PUSH1 0xE0 SHL DUP2 MSTORE SWAP1 MLOAD PUSH1 0x1 PUSH1 0x1 PUSH1 0xA0 SHL SUB SWAP1 SWAP3 AND SWAP2 PUSH4 0x8DA5CB5B SWAP2 PUSH1 0x4 DUP1 DUP3 ADD SWAP3 PUSH1 0x20 SWAP3 SWAP1 SWAP2 SWAP1 DUP3 SWAP1 SUB ADD DUP2 DUP7 DUP1 EXTCODESIZE ISZERO DUP1 ISZERO PUSH2 0x1AAA JUMPI PUSH1 0x0 DUP1 REVERT JUMPDEST POP GAS STATICCALL ISZERO DUP1 ISZERO PUSH2 0x1ABE JUMPI RETURNDATASIZE PUSH1 0x0 DUP1 RETURNDATACOPY RETURNDATASIZE PUSH1 0x0 REVERT JUMPDEST POP POP POP POP PUSH1 0x40 MLOAD RETURNDATASIZE PUSH1 0x20 DUP2 LT ISZERO PUSH2 0x1AD4 JUMPI PUSH1 0x0 DUP1 REVERT JUMPDEST POP MLOAD PUSH1 0x2 DUP3 ADD SLOAD PUSH1 0x1 DUP4 ADD SLOAD PUSH1 0x40 DUP1 MLOAD SWAP3 DUP4 MSTORE PUSH1 0x20 DUP4 ADD SWAP2 SWAP1 SWAP2 MSTORE DUP1 MLOAD PUSH1 0x1 PUSH1 0x1 PUSH1 0xA0 SHL SUB SWAP1 SWAP4 AND SWAP3 DUP7 SWAP3 PUSH32 0xF0C27ADFD84B60B6F456B0E87CDCCB1E5FB9603991588D87FA99F5B6B61E670 SWAP3 SWAP1 DUP3 SWAP1 SUB ADD SWAP1 LOG3 POP POP POP JUMP JUMPDEST PUSH1 0x4 SLOAD DUP2 JUMP JUMPDEST PUSH3 0x49D400 DUP2 JUMP JUMPDEST PUSH2 0x1B43 DUP2 PUSH2 0x205C JUMP JUMPDEST POP JUMP JUMPDEST DUP1 PUSH2 0x1B50 JUMPI PUSH1 0x0 DUP1 REVERT JUMPDEST PUSH1 0x2 PUSH2 0x1B71 DUP4 DUP4 PUSH1 0x0 NOT DUP2 ADD DUP2 DUP2 LT PUSH2 0x1B65 JUMPI INVALID JUMPDEST SWAP1 POP PUSH1 0x20 MUL ADD CALLDATALOAD PUSH2 0x16CF JUMP JUMPDEST PUSH1 0x5 DUP2 GT ISZERO PUSH2 0x1B7C JUMPI INVALID JUMPDEST EQ ISZERO PUSH2 0x1B87 JUMPI PUSH1 0x0 DUP1 REVERT JUMPDEST PUSH2 0x1BCE PUSH1 0x1 DUP4 DUP4 SWAP1 POP SUB DUP4 DUP4 DUP1 DUP1 PUSH1 0x20 MUL PUSH1 0x20 ADD PUSH1 0x40 MLOAD SWAP1 DUP2 ADD PUSH1 0x40 MSTORE DUP1 SWAP4 SWAP3 SWAP2 SWAP1 DUP2 DUP2 MSTORE PUSH1 0x20 ADD DUP4 DUP4 PUSH1 0x20 MUL DUP1 DUP3 DUP5 CALLDATACOPY PUSH1 0x0 SWAP3 ADD SWAP2 SWAP1 SWAP2 MSTORE POP POP PUSH1 0x1 SLOAD SWAP2 POP PUSH2 0x214D SWAP1 POP JUMP JUMPDEST POP POP JUMP JUMPDEST PUSH2 0x1BCE DUP3 DUP3 DUP1 DUP1 PUSH1 0x20 MUL PUSH1 0x20 ADD PUSH1 0x40 MLOAD SWAP1 DUP2 ADD PUSH1 0x40 MSTORE DUP1 SWAP4 SWAP3 SWAP2 SWAP1 DUP2 DUP2 MSTORE PUSH1 0x20 ADD DUP4 DUP4 PUSH1 0x20 MUL DUP1 DUP3 DUP5 CALLDATACOPY PUSH1 0x0 SWAP3 ADD SWAP2 SWAP1 SWAP2 MSTORE POP PUSH2 0x2330 SWAP3 POP POP POP JUMP JUMPDEST POP POP POP JUMP JUMPDEST PUSH2 0x1B43 DUP2 PUSH2 0x2360 JUMP JUMPDEST PUSH1 0x1 SLOAD DUP2 JUMP JUMPDEST PUSH2 0x1C5E DUP4 DUP4 DUP1 DUP1 PUSH1 0x20 MUL PUSH1 0x20 ADD PUSH1 0x40 MLOAD SWAP1 DUP2 ADD PUSH1 0x40 MSTORE DUP1 SWAP4 SWAP3 SWAP2 SWAP1 DUP2 DUP2 MSTORE PUSH1 0x20 ADD DUP4 DUP4 PUSH1 0x20 MUL DUP1 DUP3 DUP5 CALLDATACOPY PUSH1 0x0 SWAP3 ADD SWAP2 SWAP1 SWAP2 MSTORE POP PUSH2 0x2330 SWAP3 POP POP POP JUMP JUMPDEST PUSH2 0x1C0E DUP2 PUSH2 0x205C JUMP JUMPDEST PUSH1 0x0 SLOAD PUSH1 0x1 SLOAD PUSH1 0x40 DUP1 MLOAD PUSH4 0x2571BE3 PUSH1 0xE0 SHL DUP2 MSTORE PUSH1 0x4 DUP2 ADD SWAP3 SWAP1 SWAP3 MSTORE MLOAD ADDRESS SWAP3 PUSH1 0x1 PUSH1 0x1 PUSH1 0xA0 SHL SUB AND SWAP2 PUSH4 0x2571BE3 SWAP2 PUSH1 0x24 DUP1 DUP4 ADD SWAP3 PUSH1 0x20 SWAP3 SWAP2 SWAP1 DUP3 SWAP1 SUB ADD DUP2 DUP7 DUP1 EXTCODESIZE ISZERO DUP1 ISZERO PUSH2 0x1CB5 JUMPI PUSH1 0x0 DUP1 REVERT JUMPDEST POP GAS STATICCALL ISZERO DUP1 ISZERO PUSH2 0x1CC9 JUMPI RETURNDATASIZE PUSH1 0x0 DUP1 RETURNDATACOPY RETURNDATASIZE PUSH1 0x0 REVERT JUMPDEST POP POP POP POP PUSH1 0x40 MLOAD RETURNDATASIZE PUSH1 0x20 DUP2 LT ISZERO PUSH2 0x1CDF JUMPI PUSH1 0x0 DUP1 REVERT JUMPDEST POP MLOAD PUSH1 0x1 PUSH1 0x1 PUSH1 0xA0 SHL SUB AND EQ ISZERO PUSH2 0x1B43 JUMPI PUSH1 0x0 DUP1 SLOAD PUSH1 0x1 SLOAD PUSH1 0x40 DUP1 MLOAD PUSH4 0x6AB5923 PUSH1 0xE0 SHL DUP2 MSTORE PUSH1 0x4 DUP2 ADD SWAP3 SWAP1 SWAP3 MSTORE PUSH1 0x24 DUP3 ADD DUP6 SWAP1 MSTORE ADDRESS PUSH1 0x44 DUP4 ADD MSTORE MLOAD PUSH1 0x1 PUSH1 0x1 PUSH1 0xA0 SHL SUB SWAP1 SWAP3 AND SWAP3 PUSH4 0x6AB5923 SWAP3 PUSH1 0x64 DUP1 DUP5 ADD SWAP4 PUSH1 0x20 SWAP4 SWAP1 DUP4 SWAP1 SUB SWAP1 SWAP2 ADD SWAP1 DUP3 SWAP1 DUP8 DUP1 EXTCODESIZE ISZERO DUP1 ISZERO PUSH2 0x1D4F JUMPI PUSH1 0x0 DUP1 REVERT JUMPDEST POP GAS CALL ISZERO DUP1 ISZERO PUSH2 0x1D63 JUMPI RETURNDATASIZE PUSH1 0x0 DUP1 RETURNDATACOPY RETURNDATASIZE PUSH1 0x0 REVERT JUMPDEST POP POP POP POP PUSH1 0x40 MLOAD RETURNDATASIZE PUSH1 0x20 DUP2 LT ISZERO PUSH2 0x1D79 JUMPI PUSH1 0x0 DUP1 REVERT JUMPDEST POP POP PUSH1 0x1 SLOAD PUSH1 0x40 DUP1 MLOAD PUSH1 0x20 DUP2 DUP2 ADD SWAP4 SWAP1 SWAP4 MSTORE DUP1 DUP3 ADD DUP5 SWAP1 MSTORE DUP2 MLOAD DUP1 DUP3 SUB DUP4 ADD DUP2 MSTORE PUSH1 0x60 DUP3 ADD DUP1 DUP5 MSTORE DUP2 MLOAD SWAP2 SWAP1 SWAP5 ADD KECCAK256 PUSH1 0x0 DUP1 SLOAD PUSH4 0xC4B7B85 PUSH1 0xE1 SHL SWAP1 SWAP6 MSTORE PUSH1 0x64 DUP4 ADD DUP3 SWAP1 MSTORE PUSH1 0x84 DUP4 ADD DUP2 SWAP1 MSTORE SWAP3 MLOAD SWAP1 SWAP4 PUSH1 0x1 PUSH1 0x1 PUSH1 0xA0 SHL SUB AND SWAP3 PUSH4 0x1896F70A SWAP3 PUSH1 0xA4 DUP1 DUP3 ADD SWAP4 SWAP2 DUP3 SWAP1 SUB ADD DUP2 DUP4 DUP8 DUP1 EXTCODESIZE ISZERO DUP1 ISZERO PUSH2 0x1DF5 JUMPI PUSH1 0x0 DUP1 REVERT JUMPDEST POP GAS CALL ISZERO DUP1 ISZERO PUSH2 0x1E09 JUMPI RETURNDATASIZE PUSH1 0x0 DUP1 RETURNDATACOPY RETURNDATASIZE PUSH1 0x0 REVERT JUMPDEST POP POP PUSH1 0x0 DUP1 SLOAD PUSH1 0x40 DUP1 MLOAD PUSH4 0x5B0FC9C3 PUSH1 0xE0 SHL DUP2 MSTORE PUSH1 0x4 DUP2 ADD DUP8 SWAP1 MSTORE PUSH1 0x24 DUP2 ADD DUP5 SWAP1 MSTORE SWAP1 MLOAD PUSH1 0x1 PUSH1 0x1 PUSH1 0xA0 SHL SUB SWAP1 SWAP3 AND SWAP5 POP PUSH4 0x5B0FC9C3 SWAP4 POP PUSH1 0x44 DUP1 DUP3 ADD SWAP4 SWAP3 SWAP2 DUP3 SWAP1 SUB ADD DUP2 DUP4 DUP8 DUP1 EXTCODESIZE ISZERO DUP1 ISZERO PUSH2 0x1E5E JUMPI PUSH1 0x0 DUP1 REVERT JUMPDEST POP GAS CALL ISZERO DUP1 ISZERO PUSH2 0x1E72 JUMPI RETURNDATASIZE PUSH1 0x0 DUP1 RETURNDATACOPY RETURNDATASIZE PUSH1 0x0 REVERT JUMPDEST POP POP POP POP POP POP JUMP JUMPDEST DUP1 MLOAD PUSH1 0x0 SWAP1 PUSH1 0x1 DUP4 DUP2 ADD SWAP2 DUP5 ADD ADD DUP3 JUMPDEST DUP2 DUP4 LT ISZERO PUSH2 0x1F17 JUMPI DUP3 MLOAD PUSH1 0xFF AND PUSH1 0x80 DUP2 LT ISZERO PUSH2 0x1EAB JUMPI PUSH1 0x1 DUP5 ADD SWAP4 POP PUSH2 0x1F0E JUMP JUMPDEST PUSH1 0xE0 DUP2 PUSH1 0xFF AND LT ISZERO PUSH2 0x1EC2 JUMPI PUSH1 0x2 DUP5 ADD SWAP4 POP PUSH2 0x1F0E JUMP JUMPDEST PUSH1 0xF0 DUP2 PUSH1 0xFF AND LT ISZERO PUSH2 0x1ED9 JUMPI PUSH1 0x3 DUP5 ADD SWAP4 POP PUSH2 0x1F0E JUMP JUMPDEST PUSH1 0xF8 DUP2 PUSH1 0xFF AND LT ISZERO PUSH2 0x1EF0 JUMPI PUSH1 0x4 DUP5 ADD SWAP4 POP PUSH2 0x1F0E JUMP JUMPDEST PUSH1 0xFC DUP2 PUSH1 0xFF AND LT ISZERO PUSH2 0x1F07 JUMPI PUSH1 0x5 DUP5 ADD SWAP4 POP PUSH2 0x1F0E JUMP JUMPDEST PUSH1 0x6 DUP5 ADD SWAP4 POP JUMPDEST POP PUSH1 0x1 ADD PUSH2 0x1E8A JUMP JUMPDEST SWAP5 SWAP4 POP POP POP POP JUMP JUMPDEST PUSH1 0x0 DUP2 DUP4 GT ISZERO PUSH2 0x1F30 JUMPI POP DUP2 PUSH2 0x1895 JUMP JUMPDEST POP DUP1 PUSH2 0x1895 JUMP JUMPDEST PUSH1 0x0 DUP2 DUP4 LT ISZERO PUSH2 0x1F30 JUMPI POP DUP2 PUSH2 0x1895 JUMP JUMPDEST PUSH1 0x0 SLOAD PUSH1 0x1 SLOAD PUSH1 0x40 DUP1 MLOAD PUSH4 0x2571BE3 PUSH1 0xE0 SHL DUP2 MSTORE PUSH1 0x4 DUP2 ADD SWAP3 SWAP1 SWAP3 MSTORE MLOAD ADDRESS SWAP3 PUSH1 0x1 PUSH1 0x1 PUSH1 0xA0 SHL SUB AND SWAP2 PUSH4 0x2571BE3 SWAP2 PUSH1 0x24 DUP1 DUP4 ADD SWAP3 PUSH1 0x20 SWAP3 SWAP2 SWAP1 DUP3 SWAP1 SUB ADD DUP2 DUP7 DUP1 EXTCODESIZE ISZERO DUP1 ISZERO PUSH2 0x1F96 JUMPI PUSH1 0x0 DUP1 REVERT JUMPDEST POP GAS STATICCALL ISZERO DUP1 ISZERO PUSH2 0x1FAA JUMPI RETURNDATASIZE PUSH1 0x0 DUP1 RETURNDATACOPY RETURNDATASIZE PUSH1 0x0 REVERT JUMPDEST POP POP POP POP PUSH1 0x40 MLOAD RETURNDATASIZE PUSH1 0x20 DUP2 LT ISZERO PUSH2 0x1FC0 JUMPI PUSH1 0x0 DUP1 REVERT JUMPDEST POP MLOAD PUSH1 0x1 PUSH1 0x1 PUSH1 0xA0 SHL SUB AND EQ ISZERO PUSH2 0x1BCE JUMPI PUSH1 0x0 DUP1 SLOAD PUSH1 0x1 SLOAD PUSH1 0x40 DUP1 MLOAD PUSH4 0x6AB5923 PUSH1 0xE0 SHL DUP2 MSTORE PUSH1 0x4 DUP2 ADD SWAP3 SWAP1 SWAP3 MSTORE PUSH1 0x24 DUP3 ADD DUP7 SWAP1 MSTORE PUSH1 0x1 PUSH1 0x1 PUSH1 0xA0 SHL SUB DUP6 DUP2 AND PUSH1 0x44 DUP5 ADD MSTORE SWAP1 MLOAD SWAP3 AND SWAP3 PUSH4 0x6AB5923 SWAP3 PUSH1 0x64 DUP1 DUP5 ADD SWAP4 PUSH1 0x20 SWAP4 SWAP1 DUP4 SWAP1 SUB SWAP1 SWAP2 ADD SWAP1 DUP3 SWAP1 DUP8 DUP1 EXTCODESIZE ISZERO DUP1 ISZERO PUSH2 0x2032 JUMPI PUSH1 0x0 DUP1 REVERT JUMPDEST POP GAS CALL ISZERO DUP1 ISZERO PUSH2 0x2046 JUMPI RETURNDATASIZE PUSH1 0x0 DUP1 RETURNDATACOPY RETURNDATASIZE PUSH1 0x0 REVERT JUMPDEST POP POP POP POP PUSH1 0x40 MLOAD RETURNDATASIZE PUSH1 0x20 DUP2 LT ISZERO PUSH2 0x187F JUMPI PUSH1 0x0 DUP1 REVERT JUMPDEST CALLER PUSH1 0x0 SWAP1 DUP2 MSTORE PUSH1 0x3 PUSH1 0x20 SWAP1 DUP2 MSTORE PUSH1 0x40 DUP1 DUP4 KECCAK256 DUP5 DUP5 MSTORE SWAP1 SWAP2 MSTORE SWAP1 KECCAK256 SLOAD PUSH1 0x1 PUSH1 0x1 PUSH1 0xA0 SHL SUB AND ISZERO PUSH2 0x208A JUMPI PUSH1 0x0 DUP1 REVERT JUMPDEST PUSH7 0x2386F26FC10000 CALLVALUE LT ISZERO PUSH2 0x209E JUMPI PUSH1 0x0 DUP1 REVERT JUMPDEST PUSH1 0x0 CALLVALUE CALLER PUSH1 0x40 MLOAD PUSH2 0x20AE SWAP1 PUSH2 0x24B0 JUMP JUMPDEST PUSH1 0x1 PUSH1 0x1 PUSH1 0xA0 SHL SUB SWAP1 SWAP2 AND DUP2 MSTORE PUSH1 0x40 MLOAD SWAP1 DUP2 SWAP1 SUB PUSH1 0x20 ADD SWAP1 DUP3 CREATE DUP1 ISZERO DUP1 ISZERO PUSH2 0x20DA JUMPI RETURNDATASIZE PUSH1 0x0 DUP1 RETURNDATACOPY RETURNDATASIZE PUSH1 0x0 REVERT JUMPDEST POP CALLER PUSH1 0x0 DUP2 DUP2 MSTORE PUSH1 0x3 PUSH1 0x20 SWAP1 DUP2 MSTORE PUSH1 0x40 DUP1 DUP4 KECCAK256 DUP9 DUP5 MSTORE DUP3 MSTORE SWAP2 DUP3 SWAP1 KECCAK256 DUP1 SLOAD PUSH1 0x1 PUSH1 0x1 PUSH1 0xA0 SHL SUB NOT AND PUSH1 0x1 PUSH1 0x1 PUSH1 0xA0 SHL SUB DUP7 AND OR SWAP1 SSTORE DUP2 MLOAD CALLVALUE DUP2 MSTORE SWAP2 MLOAD SWAP4 SWAP6 POP SWAP2 SWAP4 POP DUP6 SWAP3 PUSH32 0xB556FF269C1B6714F432C36431E2041D28436A73B6C3F19C021827BBDC6BFC29 SWAP3 SWAP2 DUP2 SWAP1 SUB SWAP1 SWAP2 ADD SWAP1 LOG3 POP POP JUMP JUMPDEST PUSH1 0x0 SLOAD DUP3 MLOAD PUSH1 0x1 PUSH1 0x1 PUSH1 0xA0 SHL SUB SWAP1 SWAP2 AND SWAP1 PUSH4 0x6AB5923 SWAP1 DUP4 SWAP1 DUP6 SWAP1 DUP8 SWAP1 DUP2 LT PUSH2 0x2172 JUMPI INVALID JUMPDEST PUSH1 0x20 MUL PUSH1 0x20 ADD ADD MLOAD ADDRESS PUSH1 0x40 MLOAD DUP5 PUSH4 0xFFFFFFFF AND PUSH1 0xE0 SHL DUP2 MSTORE PUSH1 0x4 ADD DUP1 DUP5 DUP2 MSTORE PUSH1 0x20 ADD DUP4 DUP2 MSTORE PUSH1 0x20 ADD DUP3 PUSH1 0x1 PUSH1 0x1 PUSH1 0xA0 SHL SUB AND PUSH1 0x1 PUSH1 0x1 PUSH1 0xA0 SHL SUB AND DUP2 MSTORE PUSH1 0x20 ADD SWAP4 POP POP POP POP PUSH1 0x20 PUSH1 0x40 MLOAD DUP1 DUP4 SUB DUP2 PUSH1 0x0 DUP8 DUP1 EXTCODESIZE ISZERO DUP1 ISZERO PUSH2 0x21D1 JUMPI PUSH1 0x0 DUP1 REVERT JUMPDEST POP GAS CALL ISZERO DUP1 ISZERO PUSH2 0x21E5 JUMPI RETURNDATASIZE PUSH1 0x0 DUP1 RETURNDATACOPY RETURNDATASIZE PUSH1 0x0 REVERT JUMPDEST POP POP POP POP PUSH1 0x40 MLOAD RETURNDATASIZE PUSH1 0x20 DUP2 LT ISZERO PUSH2 0x21FB JUMPI PUSH1 0x0 DUP1 REVERT JUMPDEST POP POP DUP2 MLOAD DUP2 SWAP1 DUP4 SWAP1 DUP6 SWAP1 DUP2 LT PUSH2 0x220D JUMPI INVALID JUMPDEST PUSH1 0x20 MUL PUSH1 0x20 ADD ADD MLOAD PUSH1 0x40 MLOAD PUSH1 0x20 ADD DUP1 DUP4 DUP2 MSTORE PUSH1 0x20 ADD DUP3 DUP2 MSTORE PUSH1 0x20 ADD SWAP3 POP POP POP PUSH1 0x40 MLOAD PUSH1 0x20 DUP2 DUP4 SUB SUB DUP2 MSTORE SWAP1 PUSH1 0x40 MSTORE DUP1 MLOAD SWAP1 PUSH1 0x20 ADD KECCAK256 SWAP1 POP PUSH1 0x0 DUP4 GT ISZERO PUSH2 0x225B JUMPI PUSH2 0x225B PUSH1 0x1 DUP5 SUB DUP4 DUP4 PUSH2 0x214D JUMP JUMPDEST PUSH1 0x0 DUP1 SLOAD PUSH1 0x40 DUP1 MLOAD PUSH4 0xC4B7B85 PUSH1 0xE1 SHL DUP2 MSTORE PUSH1 0x4 DUP2 ADD DUP6 SWAP1 MSTORE PUSH1 0x24 DUP2 ADD DUP5 SWAP1 MSTORE SWAP1 MLOAD PUSH1 0x1 PUSH1 0x1 PUSH1 0xA0 SHL SUB SWAP1 SWAP3 AND SWAP3 PUSH4 0x1896F70A SWAP3 PUSH1 0x44 DUP1 DUP5 ADD SWAP4 DUP3 SWAP1 SUB ADD DUP2 DUP4 DUP8 DUP1 EXTCODESIZE ISZERO DUP1 ISZERO PUSH2 0x22AA JUMPI PUSH1 0x0 DUP1 REVERT JUMPDEST POP GAS CALL ISZERO DUP1 ISZERO PUSH2 0x22BE JUMPI RETURNDATASIZE PUSH1 0x0 DUP1 RETURNDATACOPY RETURNDATASIZE PUSH1 0x0 REVERT JUMPDEST POP POP PUSH1 0x0 DUP1 SLOAD PUSH1 0x40 DUP1 MLOAD PUSH4 0x5B0FC9C3 PUSH1 0xE0 SHL DUP2 MSTORE PUSH1 0x4 DUP2 ADD DUP8 SWAP1 MSTORE PUSH1 0x24 DUP2 ADD DUP5 SWAP1 MSTORE SWAP1 MLOAD PUSH1 0x1 PUSH1 0x1 PUSH1 0xA0 SHL SUB SWAP1 SWAP3 AND SWAP5 POP PUSH4 0x5B0FC9C3 SWAP4 POP PUSH1 0x44 DUP1 DUP3 ADD SWAP4 SWAP3 SWAP2 DUP3 SWAP1 SUB ADD DUP2 DUP4 DUP8 DUP1 EXTCODESIZE ISZERO DUP1 ISZERO PUSH2 0x2313 JUMPI PUSH1 0x0 DUP1 REVERT JUMPDEST POP GAS CALL ISZERO DUP1 ISZERO PUSH2 0x2327 JUMPI RETURNDATASIZE PUSH1 0x0 DUP1 RETURNDATACOPY RETURNDATASIZE PUSH1 0x0 REVERT JUMPDEST POP POP POP POP POP POP POP JUMP JUMPDEST PUSH1 0x0 JUMPDEST DUP2 MLOAD DUP2 LT ISZERO PUSH2 0x1BCE JUMPI PUSH2 0x2358 DUP3 DUP3 DUP2 MLOAD DUP2 LT PUSH2 0x234B JUMPI INVALID JUMPDEST PUSH1 0x20 MUL PUSH1 0x20 ADD ADD MLOAD PUSH2 0x2360 JUMP JUMPDEST PUSH1 0x1 ADD PUSH2 0x2333 JUMP JUMPDEST PUSH1 0x4 SLOAD TIMESTAMP LT ISZERO DUP1 ISZERO PUSH2 0x237A JUMPI POP PUSH1 0x4 SLOAD PUSH4 0x784CE00 ADD TIMESTAMP GT ISZERO JUMPDEST DUP1 ISZERO PUSH2 0x2406 JUMPI POP PUSH1 0x0 SLOAD PUSH1 0x1 SLOAD PUSH1 0x40 DUP1 MLOAD PUSH4 0x2571BE3 PUSH1 0xE0 SHL DUP2 MSTORE PUSH1 0x4 DUP2 ADD SWAP3 SWAP1 SWAP3 MSTORE MLOAD ADDRESS SWAP3 PUSH1 0x1 PUSH1 0x1 PUSH1 0xA0 SHL SUB AND SWAP2 PUSH4 0x2571BE3 SWAP2 PUSH1 0x24 DUP1 DUP4 ADD SWAP3 PUSH1 0x20 SWAP3 SWAP2 SWAP1 DUP3 SWAP1 SUB ADD DUP2 DUP7 DUP1 EXTCODESIZE ISZERO DUP1 ISZERO PUSH2 0x23CF JUMPI PUSH1 0x0 DUP1 REVERT JUMPDEST POP GAS STATICCALL ISZERO DUP1 ISZERO PUSH2 0x23E3 JUMPI RETURNDATASIZE PUSH1 0x0 DUP1 RETURNDATACOPY RETURNDATASIZE PUSH1 0x0 REVERT JUMPDEST POP POP POP POP PUSH1 0x40 MLOAD RETURNDATASIZE PUSH1 0x20 DUP2 LT ISZERO PUSH2 0x23F9 JUMPI PUSH1 0x0 DUP1 REVERT JUMPDEST POP MLOAD PUSH1 0x1 PUSH1 0x1 PUSH1 0xA0 SHL SUB AND EQ JUMPDEST PUSH2 0x240F JUMPI PUSH1 0x0 DUP1 REVERT JUMPDEST PUSH1 0x0 PUSH2 0x241A DUP3 PUSH2 0x16CF JUMP JUMPDEST SWAP1 POP PUSH1 0x1 DUP2 PUSH1 0x5 DUP2 GT ISZERO PUSH2 0x242A JUMPI INVALID JUMPDEST EQ ISZERO PUSH2 0x2436 JUMPI POP PUSH2 0x1B43 JUMP JUMPDEST PUSH1 0x0 DUP2 PUSH1 0x5 DUP2 GT ISZERO PUSH2 0x2444 JUMPI INVALID JUMPDEST EQ PUSH2 0x244E JUMPI PUSH1 0x0 DUP1 REVERT JUMPDEST PUSH1 0x0 DUP3 DUP2 MSTORE PUSH1 0x2 PUSH1 0x20 DUP2 DUP2 MSTORE PUSH1 0x40 DUP1 DUP5 KECCAK256 TIMESTAMP PUSH3 0x69780 ADD PUSH1 0x1 DUP3 ADD DUP2 SWAP1 SSTORE SWAP4 DUP2 ADD DUP6 SWAP1 SSTORE PUSH1 0x3 DUP2 ADD SWAP5 SWAP1 SWAP5 SSTORE DUP1 MLOAD SWAP3 DUP4 MSTORE MLOAD DUP6 SWAP3 PUSH32 0x87E97E825A1D1FA0C54E1D36C7506C1DEA8B1EFD451FE68B000CF96F7CF40003 SWAP3 SWAP1 DUP3 SWAP1 SUB ADD SWAP1 LOG2 POP POP POP JUMP JUMPDEST PUSH2 0x474 DUP1 PUSH2 0x24BE DUP4 CODECOPY ADD SWAP1 JUMP INVALID PUSH1 0x80 PUSH1 0x40 MSTORE PUSH1 0x40 MLOAD PUSH2 0x474 CODESIZE SUB DUP1 PUSH2 0x474 DUP4 CODECOPY DUP2 DUP2 ADD PUSH1 0x40 MSTORE PUSH1 0x20 DUP2 LT ISZERO PUSH2 0x26 JUMPI PUSH1 0x0 DUP1 REVERT JUMPDEST POP MLOAD PUSH1 0x0 DUP1 SLOAD PUSH1 0x1 PUSH1 0x1 PUSH1 0xA0 SHL SUB SWAP1 SWAP3 AND PUSH1 0x1 PUSH1 0x1 PUSH1 0xA0 SHL SUB NOT SWAP3 DUP4 AND OR SWAP1 SSTORE PUSH1 0x2 DUP1 SLOAD SWAP1 SWAP2 AND CALLER OR SWAP1 SSTORE TIMESTAMP PUSH1 0x3 SSTORE PUSH1 0x5 DUP1 SLOAD PUSH1 0xFF NOT AND PUSH1 0x1 OR SWAP1 SSTORE CALLVALUE PUSH1 0x4 SSTORE PUSH2 0x3FF DUP1 PUSH2 0x75 PUSH1 0x0 CODECOPY PUSH1 0x0 RETURN INVALID PUSH1 0x80 PUSH1 0x40 MSTORE CALLVALUE DUP1 ISZERO PUSH2 0x10 JUMPI PUSH1 0x0 DUP1 REVERT JUMPDEST POP PUSH1 0x4 CALLDATASIZE LT PUSH2 0x93 JUMPI PUSH1 0x0 CALLDATALOAD PUSH1 0xE0 SHR DUP1 PUSH4 0x674F220F GT PUSH2 0x66 JUMPI DUP1 PUSH4 0x674F220F EQ PUSH2 0xEA JUMPI DUP1 PUSH4 0x8DA5CB5B EQ PUSH2 0x10E JUMPI DUP1 PUSH4 0xB0C80972 EQ PUSH2 0x116 JUMPI DUP1 PUSH4 0xBBE42771 EQ PUSH2 0x13B JUMPI DUP1 PUSH4 0xFAAB9D39 EQ PUSH2 0x158 JUMPI PUSH2 0x93 JUMP JUMPDEST DUP1 PUSH4 0x5B34410 EQ PUSH2 0x98 JUMPI DUP1 PUSH4 0xB5AB3D5 EQ PUSH2 0xB2 JUMPI DUP1 PUSH4 0x13AF4035 EQ PUSH2 0xBC JUMPI DUP1 PUSH4 0x3FA4F245 EQ PUSH2 0xE2 JUMPI JUMPDEST PUSH1 0x0 DUP1 REVERT JUMPDEST PUSH2 0xA0 PUSH2 0x17E JUMP JUMPDEST PUSH1 0x40 DUP1 MLOAD SWAP2 DUP3 MSTORE MLOAD SWAP1 DUP2 SWAP1 SUB PUSH1 0x20 ADD SWAP1 RETURN JUMPDEST PUSH2 0xBA PUSH2 0x183 JUMP JUMPDEST STOP JUMPDEST PUSH2 0xBA PUSH1 0x4 DUP1 CALLDATASIZE SUB PUSH1 0x20 DUP2 LT ISZERO PUSH2 0xD2 JUMPI PUSH1 0x0 DUP1 REVERT JUMPDEST POP CALLDATALOAD PUSH1 0x1 PUSH1 0x1 PUSH1 0xA0 SHL SUB AND PUSH2 0x18D JUMP JUMPDEST PUSH2 0xA0 PUSH2 0x21C JUMP JUMPDEST PUSH2 0xF2 PUSH2 0x222 JUMP JUMPDEST PUSH1 0x40 DUP1 MLOAD PUSH1 0x1 PUSH1 0x1 PUSH1 0xA0 SHL SUB SWAP1 SWAP3 AND DUP3 MSTORE MLOAD SWAP1 DUP2 SWAP1 SUB PUSH1 0x20 ADD SWAP1 RETURN JUMPDEST PUSH2 0xF2 PUSH2 0x231 JUMP JUMPDEST PUSH2 0xBA PUSH1 0x4 DUP1 CALLDATASIZE SUB PUSH1 0x40 DUP2 LT ISZERO PUSH2 0x12C JUMPI PUSH1 0x0 DUP1 REVERT JUMPDEST POP DUP1 CALLDATALOAD SWAP1 PUSH1 0x20 ADD CALLDATALOAD ISZERO ISZERO PUSH2 0x240 JUMP JUMPDEST PUSH2 0xBA PUSH1 0x4 DUP1 CALLDATASIZE SUB PUSH1 0x20 DUP2 LT ISZERO PUSH2 0x151 JUMPI PUSH1 0x0 DUP1 REVERT JUMPDEST POP CALLDATALOAD PUSH2 0x2BC JUMP JUMPDEST PUSH2 0xBA PUSH1 0x4 DUP1 CALLDATASIZE SUB PUSH1 0x20 DUP2 LT ISZERO PUSH2 0x16E JUMPI PUSH1 0x0 DUP1 REVERT JUMPDEST POP CALLDATALOAD PUSH1 0x1 PUSH1 0x1 PUSH1 0xA0 SHL SUB AND PUSH2 0x34E JUMP JUMPDEST PUSH1 0x0 SWAP1 JUMP JUMPDEST PUSH2 0x18B PUSH2 0x387 JUMP JUMPDEST JUMP JUMPDEST PUSH1 0x2 SLOAD PUSH1 0x1 PUSH1 0x1 PUSH1 0xA0 SHL SUB AND CALLER EQ PUSH2 0x1A4 JUMPI PUSH1 0x0 DUP1 REVERT JUMPDEST PUSH1 0x1 PUSH1 0x1 PUSH1 0xA0 SHL SUB DUP2 AND PUSH2 0x1B7 JUMPI PUSH1 0x0 DUP1 REVERT JUMPDEST PUSH1 0x0 DUP1 SLOAD PUSH1 0x1 DUP1 SLOAD PUSH1 0x1 PUSH1 0x1 PUSH1 0xA0 SHL SUB NOT SWAP1 DUP2 AND PUSH1 0x1 PUSH1 0x1 PUSH1 0xA0 SHL SUB DUP1 DUP6 AND SWAP2 SWAP1 SWAP2 OR SWAP1 SWAP3 SSTORE SWAP1 DUP5 AND SWAP2 AND DUP2 OR SWAP1 SWAP2 SSTORE PUSH1 0x40 DUP1 MLOAD SWAP2 DUP3 MSTORE MLOAD PUSH32 0xA2EA9883A321A3E97B8266C2B078BFEEC6D50C711ED71F874A90D500AE2EAF36 SWAP2 DUP2 SWAP1 SUB PUSH1 0x20 ADD SWAP1 LOG1 POP JUMP JUMPDEST PUSH1 0x4 SLOAD SWAP1 JUMP JUMPDEST PUSH1 0x1 SLOAD PUSH1 0x1 PUSH1 0x1 PUSH1 0xA0 SHL SUB AND SWAP1 JUMP JUMPDEST PUSH1 0x0 SLOAD PUSH1 0x1 PUSH1 0x1 PUSH1 0xA0 SHL SUB AND SWAP1 JUMP JUMPDEST PUSH1 0x2 SLOAD PUSH1 0x1 PUSH1 0x1 PUSH1 0xA0 SHL SUB AND CALLER EQ PUSH2 0x257 JUMPI PUSH1 0x0 DUP1 REVERT JUMPDEST PUSH1 0x5 SLOAD PUSH1 0xFF AND PUSH2 0x266 JUMPI PUSH1 0x0 DUP1 REVERT JUMPDEST DUP2 PUSH1 0x4 SLOAD LT ISZERO PUSH2 0x275 JUMPI PUSH1 0x0 DUP1 REVERT JUMPDEST PUSH1 0x4 DUP3 SWAP1 SSTORE PUSH1 0x0 DUP1 SLOAD PUSH1 0x40 MLOAD PUSH1 0x1 PUSH1 0x1 PUSH1 0xA0 SHL SUB SWAP1 SWAP2 AND SWAP2 SELFBALANCE DUP6 SWAP1 SUB DUP1 ISZERO PUSH2 0x8FC MUL SWAP3 SWAP1 SWAP2 DUP2 DUP2 DUP2 DUP6 DUP9 DUP9 CALL SWAP4 POP POP POP POP DUP1 PUSH2 0x2AF JUMPI POP DUP1 ISZERO JUMPDEST PUSH2 0x2B8 JUMPI PUSH1 0x0 DUP1 REVERT JUMPDEST POP POP JUMP JUMPDEST PUSH1 0x2 SLOAD PUSH1 0x1 PUSH1 0x1 PUSH1 0xA0 SHL SUB AND CALLER EQ PUSH2 0x2D3 JUMPI PUSH1 0x0 DUP1 REVERT JUMPDEST PUSH1 0x5 SLOAD PUSH1 0xFF AND PUSH2 0x2E2 JUMPI PUSH1 0x0 DUP1 REVERT JUMPDEST PUSH1 0x5 DUP1 SLOAD PUSH1 0xFF NOT AND SWAP1 SSTORE PUSH1 0x40 MLOAD PUSH2 0xDEAD SWAP1 PUSH2 0x3E8 SELFBALANCE DUP5 DUP3 SUB MUL DIV DUP1 ISZERO PUSH2 0x8FC MUL SWAP2 PUSH1 0x0 DUP2 DUP2 DUP2 DUP6 DUP9 DUP9 CALL SWAP4 POP POP POP POP PUSH2 0x31A JUMPI PUSH1 0x0 DUP1 REVERT JUMPDEST PUSH1 0x40 MLOAD PUSH32 0xBB2CE2F51803BBA16BC85282B47DEEEA9A5C6223EABEA1077BE696B3F265CF13 SWAP1 PUSH1 0x0 SWAP1 LOG1 PUSH2 0x34B PUSH2 0x387 JUMP JUMPDEST POP JUMP JUMPDEST PUSH1 0x2 SLOAD PUSH1 0x1 PUSH1 0x1 PUSH1 0xA0 SHL SUB AND CALLER EQ PUSH2 0x365 JUMPI PUSH1 0x0 DUP1 REVERT JUMPDEST PUSH1 0x2 DUP1 SLOAD PUSH1 0x1 PUSH1 0x1 PUSH1 0xA0 SHL SUB NOT AND PUSH1 0x1 PUSH1 0x1 PUSH1 0xA0 SHL SUB SWAP3 SWAP1 SWAP3 AND SWAP2 SWAP1 SWAP2 OR SWAP1 SSTORE JUMP JUMPDEST PUSH1 0x5 SLOAD PUSH1 0xFF AND ISZERO PUSH2 0x397 JUMPI PUSH1 0x0 DUP1 REVERT JUMPDEST PUSH1 0x0 DUP1 SLOAD PUSH1 0x40 MLOAD PUSH1 0x1 PUSH1 0x1 PUSH1 0xA0 SHL SUB SWAP1 SWAP2 AND SWAP2 SELFBALANCE DUP1 ISZERO PUSH2 0x8FC MUL SWAP3 SWAP1 SWAP2 DUP2 DUP2 DUP2 DUP6 DUP9 DUP9 CALL SWAP4 POP POP POP POP ISZERO PUSH2 0x18B JUMPI PUSH2 0xDEAD SELFDESTRUCT INVALID LOG2 PUSH6 0x627A7A723158 KECCAK256 MSTORE 0xED DUP11 0xE0 REVERT 0xEA SUB 0xCA DUP14 PUSH11 0x6679B1200A9DE0033F13DE 0xAF PUSH25 0x34461D2796E0707DA964736F6C634300051100327B6C4B278D AND GAS PUSH12 0x33958F8EA5DFB00C8C9D4D0A 0xCF NOT DUP6 0xBE CREATE2 0xD1 SMOD DUP7 DUP10 DUP12 0xC3 0xE7 LOG2 PUSH6 0x627A7A723158 KECCAK256 DUP2 PUSH4 0x8330EE0F 0xBC 0xD PUSH11 0xF6D4BC14492F3090DCEEB0 MSTORE 0xDE SWAP3 DUP2 0x49 RETURNDATACOPY RETURNDATACOPY CALLER 0xE3 DUP1 SWAP11 0x48 PUSH5 0x736F6C6343 STOP SDIV GT STOP ORIGIN "},"methodIdentifiers":{"acceptRegistrarTransfer(bytes32,address,uint256)":"ea9e107a","cancelBid(address,bytes32)":"2525f5c1","ens()":"3f15457f","entries(bytes32)":"267b6922","eraseNode(bytes32[])":"de10f04b","finalizeAuction(bytes32)":"983b94fb","getAllowedTime(bytes32)":"13c89a8f","invalidateName(string)":"15f73331","isAllowed(bytes32,uint256)":"93503337","launchLength()":"ae1a0b0c","newBid(bytes32)":"ce92dced","registryStarted()":"9c67f06f","releaseDeed(bytes32)":"0230a07c","rootNode()":"faff50a8","sealedBids(address,bytes32)":"5e431709","shaBid(bytes32,address,uint256,bytes32)":"22ec1244","startAuction(bytes32)":"ede8acdb","startAuctions(bytes32[])":"e27fe50f","startAuctionsAndBid(bytes32[],bytes32)":"febefd61","state(bytes32)":"61d585da","transfer(bytes32,address)":"79ce9fac","transferRegistrars(bytes32)":"5ddae283","unsealBid(bytes32,uint256,bytes32)":"47872b42"}}}}}