{"root/Root.sol":{"Root":{"abi":[{"constant":false,"inputs":[{"name":"node","type":"bytes32"},{"name":"ttl","type":"uint64"}],"name":"setTTL","outputs":[],"payable":false,"stateMutability":"nonpayable","type":"function"},{"constant":false,"inputs":[{"name":"node","type":"bytes32"},{"name":"resolver","type":"address"}],"name":"setResolver","outputs":[],"payable":false,"stateMutability":"nonpayable","type":"function"},{"constant":false,"inputs":[{"name":"name","type":"bytes"},{"name":"input","type":"bytes"},{"name":"proof","type":"bytes"}],"name":"proveAndRegisterTLD","outputs":[],"payable":false,"stateMutability":"nonpayable","type":"function"},{"constant":true,"inputs":[],"name":"registrar","outputs":[{"name":"","type":"address"}],"payable":false,"stateMutability":"view","type":"function"},{"constant":true,"inputs":[{"name":"addr","type":"address"}],"name":"isOwner","outputs":[{"name":"","type":"bool"}],"payable":false,"stateMutability":"view","type":"function"},{"constant":true,"inputs":[],"name":"ROOT_NODE","outputs":[{"name":"","type":"bytes32"}],"payable":false,"stateMutability":"view","type":"function"},{"constant":true,"inputs":[],"name":"CLASS_INET","outputs":[{"name":"","type":"uint16"}],"payable":false,"stateMutability":"view","type":"function"},{"constant":false,"inputs":[{"name":"node","type":"bytes32"},{"name":"owner","type":"address"}],"name":"setOwner","outputs":[],"payable":false,"stateMutability":"nonpayable","type":"function"},{"constant":true,"inputs":[],"name":"tns","outputs":[{"name":"","type":"address"}],"payable":false,"stateMutability":"view","type":"function"},{"constant":true,"inputs":[],"name":"oracle","outputs":[{"name":"","type":"address"}],"payable":false,"stateMutability":"view","type":"function"},{"constant":true,"inputs":[],"name":"TYPE_SOA","outputs":[{"name":"","type":"uint16"}],"payable":false,"stateMutability":"view","type":"function"},{"constant":false,"inputs":[{"name":"name","type":"bytes"},{"name":"proof","type":"bytes"}],"name":"registerTLD","outputs":[],"payable":false,"stateMutability":"nonpayable","type":"function"},{"constant":false,"inputs":[{"name":"label","type":"bytes32"},{"name":"owner","type":"address"}],"name":"setSubnodeOwner","outputs":[],"payable":false,"stateMutability":"nonpayable","type":"function"},{"constant":true,"inputs":[],"name":"owner","outputs":[{"name":"","type":"address"}],"payable":false,"stateMutability":"view","type":"function"},{"constant":true,"inputs":[],"name":"TRUST_NODE","outputs":[{"name":"","type":"bytes32"}],"payable":false,"stateMutability":"view","type":"function"},{"constant":false,"inputs":[{"name":"newOwner","type":"address"}],"name":"transferOwnership","outputs":[],"payable":false,"stateMutability":"nonpayable","type":"function"},{"constant":false,"inputs":[{"name":"_registrar","type":"address"}],"name":"setRegistrar","outputs":[],"payable":false,"stateMutability":"nonpayable","type":"function"},{"constant":true,"inputs":[],"name":"TYPE_TXT","outputs":[{"name":"","type":"uint16"}],"payable":false,"stateMutability":"view","type":"function"},{"inputs":[{"name":"_tns","type":"address"},{"name":"_oracle","type":"address"},{"name":"_registrar","type":"address"}],"payable":false,"stateMutability":"nonpayable","type":"constructor"},{"anonymous":false,"inputs":[{"indexed":true,"name":"node","type":"bytes32"},{"indexed":true,"name":"registrar","type":"address"}],"name":"TLDRegistered","type":"event"},{"anonymous":false,"inputs":[{"indexed":true,"name":"registrar","type":"address"}],"name":"RegistrarChanged","type":"event"}],"evm":{"bytecode":{"linkReferences":{},"object":"608060405234801561001057600080fd5b506040516060806116c68339810160409081528151602083015191909201516000805433600160a060020a0319918216178255600180548216600160a060020a0396871617905560028054821694861694909417909355600380549093169390911692909217905561163e90819061008890396000f3006080604052600436106100fb5763ffffffff7c010000000000000000000000000000000000000000000000000000000060003504166314ab903881146101005780631896f70a14610127578063245b79ad1461014b5780632b20e397146101835780632f54bf6e146101b45780634a9fe1c7146101e95780634b897d54146102105780635b0fc9c31461023c5780636c7a8d7e146102605780637dc0d1d014610275578063814133531461028a57806387900f201461029f5780638cb8ecec146103365780638da5cb5b1461035a578063b80067a51461036f578063f2fde38b14610384578063faab9d39146103a5578063ff8879dd146103c6575b600080fd5b34801561010c57600080fd5b5061012560043567ffffffffffffffff602435166103db565b005b34801561013357600080fd5b50610125600435600160a060020a0360243516610481565b34801561015757600080fd5b506101256024600480358281019290820135918135808301929082013591604435918201910135610503565b34801561018f57600080fd5b50610198610665565b60408051600160a060020a039092168252519081900360200190f35b3480156101c057600080fd5b506101d5600160a060020a0360043516610674565b604080519115158252519081900360200190f35b3480156101f557600080fd5b506101fe610688565b60408051918252519081900360200190f35b34801561021c57600080fd5b5061022561068d565b6040805161ffff9092168252519081900360200190f35b34801561024857600080fd5b50610125600435600160a060020a0360243516610692565b34801561026c57600080fd5b50610198610714565b34801561028157600080fd5b50610198610723565b34801561029657600080fd5b50610225610732565b3480156102ab57600080fd5b506040805160206004803580820135601f810184900484028501840190955284845261012594369492936024939284019190819084018382808284375050604080516020601f89358b018035918201839004830284018301909452808352979a9998810197919650918201945092508291508401838280828437509497506107379650505050505050565b34801561034257600080fd5b50610125600435600160a060020a0360243516610943565b34801561036657600080fd5b50610198610a00565b34801561037b57600080fd5b506101fe610a0f565b34801561039057600080fd5b50610125600160a060020a0360043516610a44565b3480156103b157600080fd5b50610125600160a060020a0360043516610a87565b3480156103d257600080fd5b50610225610b0d565b6103e433610674565b15156103ef57600080fd5b600154604080517f14ab90380000000000000000000000000000000000000000000000000000000081526004810185905267ffffffffffffffff841660248201529051600160a060020a03909216916314ab90389160448082019260009290919082900301818387803b15801561046557600080fd5b505af1158015610479573d6000803e3d6000fd5b505050505050565b61048a33610674565b151561049557600080fd5b600154604080517f1896f70a00000000000000000000000000000000000000000000000000000000815260048101859052600160a060020a03848116602483015291519190921691631896f70a91604480830192600092919082900301818387803b15801561046557600080fd5b61047986868080601f0160208091040260200160405190810160405280939291908181526020018383808284375050600254604080517f76a14d1d00000000000000000000000000000000000000000000000000000000815260048101918252604481018c9052600160a060020a0390921695506376a14d1d94508b93508a92508991899190819060248101906064018787808284379091018481038352858152602001905085858082843782019150509650505050505050600060405180830381600087803b1580156105d657600080fd5b505af11580156105ea573d6000803e3d6000fd5b505050506040513d6000823e601f3d908101601f19168201604052602081101561061357600080fd5b81019080805164010000000081111561062b57600080fd5b8201602081018481111561063e57600080fd5b815164010000000081118282018710171561065857600080fd5b5050929190505050610737565b600354600160a060020a031681565b600054600160a060020a0391821691161490565b600081565b600181565b61069b33610674565b15156106a657600080fd5b600154604080517f5b0fc9c300000000000000000000000000000000000000000000000000000000815260048101859052600160a060020a03848116602483015291519190921691635b0fc9c391604480830192600092919082900301818387803b15801561046557600080fd5b600154600160a060020a031681565b600254600160a060020a031681565b600681565b60008061074384610b12565b915061074f8484610b55565b6001546040805160008082526020808301889052835192839003840183207f02571be300000000000000000000000000000000000000000000000000000000845260048401529251949550600160a060020a03808716959416936302571be3936024808501949193918390030190829087803b1580156107ce57600080fd5b505af11580156107e2573d6000803e3d6000fd5b505050506040513d60208110156107f857600080fd5b5051600160a060020a0316141561080e57600080fd5b604080517f74727573740000000000000000000000000000000000000000000000000000008152905190819003600501902082141561084c57600080fd5b600154604080517f06ab592300000000000000000000000000000000000000000000000000000000815260006004820181905260248201869052600160a060020a038581166044840152925192909316926306ab5923926064808401936020939083900390910190829087803b1580156108c557600080fd5b505af11580156108d9573d6000803e3d6000fd5b505050506040513d60208110156108ef57600080fd5b5050604080516000808252602082018590528251918290039092018120600160a060020a0384169290917f2bcd5c28f9326b5b185d4e4e6106a17635d0e4a137994dbd05812a9415d76b459190a350505050565b61094c33610674565b151561095757600080fd5b600154604080517f06ab592300000000000000000000000000000000000000000000000000000000815260006004820181905260248201869052600160a060020a038581166044840152925192909316926306ab5923926064808401936020939083900390910190829087803b1580156109d057600080fd5b505af11580156109e4573d6000803e3d6000fd5b505050506040513d60208110156109fa57600080fd5b50505050565b600054600160a060020a031681565b604080517f74727573740000000000000000000000000000000000000000000000000000008152905190819003600501902081565b610a4d33610674565b1515610a5857600080fd5b6000805473ffffffffffffffffffffffffffffffffffffffff1916600160a060020a0392909216919091179055565b610a9033610674565b1515610a9b57600080fd5b600160a060020a0381161515610ab057600080fd5b6003805473ffffffffffffffffffffffffffffffffffffffff1916600160a060020a0383811691909117918290556040519116907f6e4c52923c1e70447ecc72995ce26bf2400d9c26b1a7c21ab433e7caff8d40a290600090a250565b601081565b600080610b25838263ffffffff610c3e16565b60ff169050806002018351141515610b3c57600080fd5b610b4e8360018363ffffffff610c5e16565b9392505050565b6000610b5f6115ae565b600080610b79865160040184610c7b90919063ffffffff16565b5060408051808201909152600481527f036e6963000000000000000000000000000000000000000000000000000000006020820152610bbf90849063ffffffff610cb716565b50610bd0838763ffffffff610cb716565b506002548351610bea91600160a060020a03169087610cd1565b9092509050801515610c31578251600090610c0490611032565b6bffffffffffffffffffffffff19161415610c1e57600080fd5b600354600160a060020a03169350610c35565b8193505b50505092915050565b8151600090600183011115610c5257600080fd5b50016001015160ff1690565b82516000908383011115610c7157600080fd5b5091016020012090565b610c836115ae565b6020820615610c985760208206602003820191505b5060208201819052604080518084526000815282019052815b92915050565b610cbf6115ae565b610b4e838460000151518485516111b6565b600080610cdc6115ae565b600080610ce76115c6565b6000610d00895160050186610c7b90919063ffffffff16565b5060408051808201909152600581527f045f656e730000000000000000000000000000000000000000000000000000006020820152610d4690869063ffffffff610cb716565b50610d57858a63ffffffff610cb716565b5089600160a060020a031663087991bc601087600001516040518363ffffffff167c0100000000000000000000000000000000000000000000000000000000028152600401808361ffff1661ffff16815260200180602001828103825283818151815260200191508051906020019080838360005b83811015610de4578181015183820152602001610dcc565b50505050905090810190601f168015610e115780820380516001836020036101000a031916815260200191505b509350505050606060405180830381600087803b158015610e3157600080fd5b505af1158015610e45573d6000803e3d6000fd5b505050506040513d6060811015610e5b57600080fd5b506020810151604090910151945092506bffffffffffffffffffffffff198416158015610e8757508751155b15610e985760008096509650611025565b876040518082805190602001908083835b60208310610ec85780518252601f199092019160209182019101610ea9565b5181516020939093036101000a600019018019909116921691909117905260405192018290039091206bffffffffffffffffffffffff19908116908816149250610f1491505057600080fd5b610f2588600063ffffffff61127016565b91505b610f318261128b565b151561101d5742826080015163ffffffff16840167ffffffffffffffff1610151515610fe457604080517f08c379a000000000000000000000000000000000000000000000000000000000815260206004820152603c60248201527f444e53207265636f7264206973207374616c653b2072656672657368206f722060448201527f64656c657465206974206265666f72652070726f63656564696e672e00000000606482015290519081900360840190fd5b610ff2888360a00151611299565b9050600160a060020a0381161561100f5780600196509650611025565b611018826112fd565b610f28565b600080965096505b5050505050935093915050565b600061103c6115ae565b6000611055845160050183610c7b90919063ffffffff16565b5060408051808201909152600581527f045f746e73000000000000000000000000000000000000000000000000000000602082015261109b90839063ffffffff610cb716565b506110ac828563ffffffff610cb716565b506002548251604080517f087991bc00000000000000000000000000000000000000000000000000000000815260066004820181815260248301938452845160448401528451600160a060020a039096169563087991bc959294929391929160640190602085019080838360005b8381101561113257818101518382015260200161111a565b50505050905090810190601f16801561115f5780820380516001836020036101000a031916815260200191505b509350505050606060405180830381600087803b15801561117f57600080fd5b505af1158015611193573d6000803e3d6000fd5b505050506040513d60608110156111a957600080fd5b5060400151949350505050565b6111be6115ae565b6000806000855185111515156111d357600080fd5b602088015188515188870101111561120157611201886111f98a602001518a89016113d3565b6002026113ea565b87518051886020830101945080898801111561121d5788870182525b60208801935050505b602085106112485781518352601f199094019360209283019290910190611226565b505181516020949094036101000a600019018019909116931692909217909152509192915050565b6112786115c6565b82815260c08101829052610cb1816112fd565b805151602090910151101590565b60008060005b84518410156112f0576112b8858563ffffffff610c3e16565b60ff1691506001840193506112ce858584611401565b9050600160a060020a038116156112e7578092506112f5565b9281019261129f565b600092505b505092915050565b60c08101516020820181905281515160009182911161131b576113ce565b61132d83600001518460200151611453565b6020840151845191019250611348908363ffffffff61149a16565b61ffff16604084015282516002929092019161136a908363ffffffff61149a16565b61ffff16606084015282516002929092019161138c908363ffffffff6114bb16565b63ffffffff90811660808501528351600493909301926113ae91849061149a16565b600283810160a0860181905261ffff929092169384010160c08501529190505b505050565b6000818311156113e4575081610cb1565b50919050565b81516113f68383610c7b565b506109fa8382610cb7565b6000611413848463ffffffff6114bb16565b63ffffffff1663613d307814151561142d57506000610b4e565b602c82101561143e57506000610b4e565b61144b84846004016114de565b949350505050565b600081815b8451821061146257fe5b611472858363ffffffff610c3e16565b60ff1691820160010191905080151561148a5761148f565b611458565b509190910392915050565b81516000906002830111156114ae57600080fd5b50016002015161ffff1690565b81516000906004830111156114cf57600080fd5b50016004015163ffffffff1690565b60008060008060288587510310156114f95760009350610c35565b600092508491505b846028018210156115a457601090920291611522868363ffffffff610c3e16565b60ff169050603081101580156115385750603a81105b1561154a576030810383179250611599565b6041811015801561155b5750604781105b1561156d576037810383179250611599565b6061811015801561157e5750606781105b15611590576057810383179250611599565b60009350610c35565b600190910190611501565b5090949350505050565b60408051808201909152606081526000602082015290565b60e0604051908101604052806060815260200160008152602001600061ffff168152602001600061ffff168152602001600063ffffffff168152602001600081526020016000815250905600a165627a7a72305820d63f74546df567e2950623046f3d73a587373fd7a7c8606d7bea468b3c64a63c0029","opcodes":"PUSH1 0x80 PUSH1 0x40 MSTORE CALLVALUE DUP1 ISZERO PUSH2 0x10 JUMPI PUSH1 0x0 DUP1 REVERT JUMPDEST POP PUSH1 0x40 MLOAD PUSH1 0x60 DUP1 PUSH2 0x16C6 DUP4 CODECOPY DUP2 ADD PUSH1 0x40 SWAP1 DUP2 MSTORE DUP2 MLOAD PUSH1 0x20 DUP4 ADD MLOAD SWAP2 SWAP1 SWAP3 ADD MLOAD PUSH1 0x0 DUP1 SLOAD CALLER PUSH1 0x1 PUSH1 0xA0 PUSH1 0x2 EXP SUB NOT SWAP2 DUP3 AND OR DUP3 SSTORE PUSH1 0x1 DUP1 SLOAD DUP3 AND PUSH1 0x1 PUSH1 0xA0 PUSH1 0x2 EXP SUB SWAP7 DUP8 AND OR SWAP1 SSTORE PUSH1 0x2 DUP1 SLOAD DUP3 AND SWAP5 DUP7 AND SWAP5 SWAP1 SWAP5 OR SWAP1 SWAP4 SSTORE PUSH1 0x3 DUP1 SLOAD SWAP1 SWAP4 AND SWAP4 SWAP1 SWAP2 AND SWAP3 SWAP1 SWAP3 OR SWAP1 SSTORE PUSH2 0x163E SWAP1 DUP2 SWAP1 PUSH2 0x88 SWAP1 CODECOPY PUSH1 0x0 RETURN STOP PUSH1 0x80 PUSH1 0x40 MSTORE PUSH1 0x4 CALLDATASIZE LT PUSH2 0xFB JUMPI PUSH4 0xFFFFFFFF PUSH29 0x100000000000000000000000000000000000000000000000000000000 PUSH1 0x0 CALLDATALOAD DIV AND PUSH4 0x14AB9038 DUP2 EQ PUSH2 0x100 JUMPI DUP1 PUSH4 0x1896F70A EQ PUSH2 0x127 JUMPI DUP1 PUSH4 0x245B79AD EQ PUSH2 0x14B JUMPI DUP1 PUSH4 0x2B20E397 EQ PUSH2 0x183 JUMPI DUP1 PUSH4 0x2F54BF6E EQ PUSH2 0x1B4 JUMPI DUP1 PUSH4 0x4A9FE1C7 EQ PUSH2 0x1E9 JUMPI DUP1 PUSH4 0x4B897D54 EQ PUSH2 0x210 JUMPI DUP1 PUSH4 0x5B0FC9C3 EQ PUSH2 0x23C JUMPI DUP1 PUSH4 0x6C7A8D7E EQ PUSH2 0x260 JUMPI DUP1 PUSH4 0x7DC0D1D0 EQ PUSH2 0x275 JUMPI DUP1 PUSH4 0x81413353 EQ PUSH2 0x28A JUMPI DUP1 PUSH4 0x87900F20 EQ PUSH2 0x29F JUMPI DUP1 PUSH4 0x8CB8ECEC EQ PUSH2 0x336 JUMPI DUP1 PUSH4 0x8DA5CB5B EQ PUSH2 0x35A JUMPI DUP1 PUSH4 0xB80067A5 EQ PUSH2 0x36F JUMPI DUP1 PUSH4 0xF2FDE38B EQ PUSH2 0x384 JUMPI DUP1 PUSH4 0xFAAB9D39 EQ PUSH2 0x3A5 JUMPI DUP1 PUSH4 0xFF8879DD EQ PUSH2 0x3C6 JUMPI JUMPDEST PUSH1 0x0 DUP1 REVERT JUMPDEST CALLVALUE DUP1 ISZERO PUSH2 0x10C JUMPI PUSH1 0x0 DUP1 REVERT JUMPDEST POP PUSH2 0x125 PUSH1 0x4 CALLDATALOAD PUSH8 0xFFFFFFFFFFFFFFFF PUSH1 0x24 CALLDATALOAD AND PUSH2 0x3DB JUMP JUMPDEST STOP JUMPDEST CALLVALUE DUP1 ISZERO PUSH2 0x133 JUMPI PUSH1 0x0 DUP1 REVERT JUMPDEST POP PUSH2 0x125 PUSH1 0x4 CALLDATALOAD PUSH1 0x1 PUSH1 0xA0 PUSH1 0x2 EXP SUB PUSH1 0x24 CALLDATALOAD AND PUSH2 0x481 JUMP JUMPDEST CALLVALUE DUP1 ISZERO PUSH2 0x157 JUMPI PUSH1 0x0 DUP1 REVERT JUMPDEST POP PUSH2 0x125 PUSH1 0x24 PUSH1 0x4 DUP1 CALLDATALOAD DUP3 DUP2 ADD SWAP3 SWAP1 DUP3 ADD CALLDATALOAD SWAP2 DUP2 CALLDATALOAD DUP1 DUP4 ADD SWAP3 SWAP1 DUP3 ADD CALLDATALOAD SWAP2 PUSH1 0x44 CALLDATALOAD SWAP2 DUP3 ADD SWAP2 ADD CALLDATALOAD PUSH2 0x503 JUMP JUMPDEST CALLVALUE DUP1 ISZERO PUSH2 0x18F JUMPI PUSH1 0x0 DUP1 REVERT JUMPDEST POP PUSH2 0x198 PUSH2 0x665 JUMP JUMPDEST PUSH1 0x40 DUP1 MLOAD PUSH1 0x1 PUSH1 0xA0 PUSH1 0x2 EXP SUB SWAP1 SWAP3 AND DUP3 MSTORE MLOAD SWAP1 DUP2 SWAP1 SUB PUSH1 0x20 ADD SWAP1 RETURN JUMPDEST CALLVALUE DUP1 ISZERO PUSH2 0x1C0 JUMPI PUSH1 0x0 DUP1 REVERT JUMPDEST POP PUSH2 0x1D5 PUSH1 0x1 PUSH1 0xA0 PUSH1 0x2 EXP SUB PUSH1 0x4 CALLDATALOAD AND PUSH2 0x674 JUMP JUMPDEST PUSH1 0x40 DUP1 MLOAD SWAP2 ISZERO ISZERO DUP3 MSTORE MLOAD SWAP1 DUP2 SWAP1 SUB PUSH1 0x20 ADD SWAP1 RETURN JUMPDEST CALLVALUE DUP1 ISZERO PUSH2 0x1F5 JUMPI PUSH1 0x0 DUP1 REVERT JUMPDEST POP PUSH2 0x1FE PUSH2 0x688 JUMP JUMPDEST PUSH1 0x40 DUP1 MLOAD SWAP2 DUP3 MSTORE MLOAD SWAP1 DUP2 SWAP1 SUB PUSH1 0x20 ADD SWAP1 RETURN JUMPDEST CALLVALUE DUP1 ISZERO PUSH2 0x21C JUMPI PUSH1 0x0 DUP1 REVERT JUMPDEST POP PUSH2 0x225 PUSH2 0x68D JUMP JUMPDEST PUSH1 0x40 DUP1 MLOAD PUSH2 0xFFFF SWAP1 SWAP3 AND DUP3 MSTORE MLOAD SWAP1 DUP2 SWAP1 SUB PUSH1 0x20 ADD SWAP1 RETURN JUMPDEST CALLVALUE DUP1 ISZERO PUSH2 0x248 JUMPI PUSH1 0x0 DUP1 REVERT JUMPDEST POP PUSH2 0x125 PUSH1 0x4 CALLDATALOAD PUSH1 0x1 PUSH1 0xA0 PUSH1 0x2 EXP SUB PUSH1 0x24 CALLDATALOAD AND PUSH2 0x692 JUMP JUMPDEST CALLVALUE DUP1 ISZERO PUSH2 0x26C JUMPI PUSH1 0x0 DUP1 REVERT JUMPDEST POP PUSH2 0x198 PUSH2 0x714 JUMP JUMPDEST CALLVALUE DUP1 ISZERO PUSH2 0x281 JUMPI PUSH1 0x0 DUP1 REVERT JUMPDEST POP PUSH2 0x198 PUSH2 0x723 JUMP JUMPDEST CALLVALUE DUP1 ISZERO PUSH2 0x296 JUMPI PUSH1 0x0 DUP1 REVERT JUMPDEST POP PUSH2 0x225 PUSH2 0x732 JUMP JUMPDEST CALLVALUE DUP1 ISZERO PUSH2 0x2AB JUMPI PUSH1 0x0 DUP1 REVERT JUMPDEST POP PUSH1 0x40 DUP1 MLOAD PUSH1 0x20 PUSH1 0x4 DUP1 CALLDATALOAD DUP1 DUP3 ADD CALLDATALOAD PUSH1 0x1F DUP2 ADD DUP5 SWAP1 DIV DUP5 MUL DUP6 ADD DUP5 ADD SWAP1 SWAP6 MSTORE DUP5 DUP5 MSTORE PUSH2 0x125 SWAP5 CALLDATASIZE SWAP5 SWAP3 SWAP4 PUSH1 0x24 SWAP4 SWAP3 DUP5 ADD SWAP2 SWAP1 DUP2 SWAP1 DUP5 ADD DUP4 DUP3 DUP1 DUP3 DUP5 CALLDATACOPY POP POP PUSH1 0x40 DUP1 MLOAD PUSH1 0x20 PUSH1 0x1F DUP10 CALLDATALOAD DUP12 ADD DUP1 CALLDATALOAD SWAP2 DUP3 ADD DUP4 SWAP1 DIV DUP4 MUL DUP5 ADD DUP4 ADD SWAP1 SWAP5 MSTORE DUP1 DUP4 MSTORE SWAP8 SWAP11 SWAP10 SWAP9 DUP2 ADD SWAP8 SWAP2 SWAP7 POP SWAP2 DUP3 ADD SWAP5 POP SWAP3 POP DUP3 SWAP2 POP DUP5 ADD DUP4 DUP3 DUP1 DUP3 DUP5 CALLDATACOPY POP SWAP5 SWAP8 POP PUSH2 0x737 SWAP7 POP POP POP POP POP POP POP JUMP JUMPDEST CALLVALUE DUP1 ISZERO PUSH2 0x342 JUMPI PUSH1 0x0 DUP1 REVERT JUMPDEST POP PUSH2 0x125 PUSH1 0x4 CALLDATALOAD PUSH1 0x1 PUSH1 0xA0 PUSH1 0x2 EXP SUB PUSH1 0x24 CALLDATALOAD AND PUSH2 0x943 JUMP JUMPDEST CALLVALUE DUP1 ISZERO PUSH2 0x366 JUMPI PUSH1 0x0 DUP1 REVERT JUMPDEST POP PUSH2 0x198 PUSH2 0xA00 JUMP JUMPDEST CALLVALUE DUP1 ISZERO PUSH2 0x37B JUMPI PUSH1 0x0 DUP1 REVERT JUMPDEST POP PUSH2 0x1FE PUSH2 0xA0F JUMP JUMPDEST CALLVALUE DUP1 ISZERO PUSH2 0x390 JUMPI PUSH1 0x0 DUP1 REVERT JUMPDEST POP PUSH2 0x125 PUSH1 0x1 PUSH1 0xA0 PUSH1 0x2 EXP SUB PUSH1 0x4 CALLDATALOAD AND PUSH2 0xA44 JUMP JUMPDEST CALLVALUE DUP1 ISZERO PUSH2 0x3B1 JUMPI PUSH1 0x0 DUP1 REVERT JUMPDEST POP PUSH2 0x125 PUSH1 0x1 PUSH1 0xA0 PUSH1 0x2 EXP SUB PUSH1 0x4 CALLDATALOAD AND PUSH2 0xA87 JUMP JUMPDEST CALLVALUE DUP1 ISZERO PUSH2 0x3D2 JUMPI PUSH1 0x0 DUP1 REVERT JUMPDEST POP PUSH2 0x225 PUSH2 0xB0D JUMP JUMPDEST PUSH2 0x3E4 CALLER PUSH2 0x674 JUMP JUMPDEST ISZERO ISZERO PUSH2 0x3EF JUMPI PUSH1 0x0 DUP1 REVERT JUMPDEST PUSH1 0x1 SLOAD PUSH1 0x40 DUP1 MLOAD PUSH32 0x14AB903800000000000000000000000000000000000000000000000000000000 DUP2 MSTORE PUSH1 0x4 DUP2 ADD DUP6 SWAP1 MSTORE PUSH8 0xFFFFFFFFFFFFFFFF DUP5 AND PUSH1 0x24 DUP3 ADD MSTORE SWAP1 MLOAD PUSH1 0x1 PUSH1 0xA0 PUSH1 0x2 EXP SUB SWAP1 SWAP3 AND SWAP2 PUSH4 0x14AB9038 SWAP2 PUSH1 0x44 DUP1 DUP3 ADD SWAP3 PUSH1 0x0 SWAP3 SWAP1 SWAP2 SWAP1 DUP3 SWAP1 SUB ADD DUP2 DUP4 DUP8 DUP1 EXTCODESIZE ISZERO DUP1 ISZERO PUSH2 0x465 JUMPI PUSH1 0x0 DUP1 REVERT JUMPDEST POP GAS CALL ISZERO DUP1 ISZERO PUSH2 0x479 JUMPI RETURNDATASIZE PUSH1 0x0 DUP1 RETURNDATACOPY RETURNDATASIZE PUSH1 0x0 REVERT JUMPDEST POP POP POP POP POP POP JUMP JUMPDEST PUSH2 0x48A CALLER PUSH2 0x674 JUMP JUMPDEST ISZERO ISZERO PUSH2 0x495 JUMPI PUSH1 0x0 DUP1 REVERT JUMPDEST PUSH1 0x1 SLOAD PUSH1 0x40 DUP1 MLOAD PUSH32 0x1896F70A00000000000000000000000000000000000000000000000000000000 DUP2 MSTORE PUSH1 0x4 DUP2 ADD DUP6 SWAP1 MSTORE PUSH1 0x1 PUSH1 0xA0 PUSH1 0x2 EXP SUB DUP5 DUP2 AND PUSH1 0x24 DUP4 ADD MSTORE SWAP2 MLOAD SWAP2 SWAP1 SWAP3 AND SWAP2 PUSH4 0x1896F70A SWAP2 PUSH1 0x44 DUP1 DUP4 ADD SWAP3 PUSH1 0x0 SWAP3 SWAP2 SWAP1 DUP3 SWAP1 SUB ADD DUP2 DUP4 DUP8 DUP1 EXTCODESIZE ISZERO DUP1 ISZERO PUSH2 0x465 JUMPI PUSH1 0x0 DUP1 REVERT JUMPDEST PUSH2 0x479 DUP7 DUP7 DUP1 DUP1 PUSH1 0x1F ADD PUSH1 0x20 DUP1 SWAP2 DIV MUL PUSH1 0x20 ADD PUSH1 0x40 MLOAD SWAP1 DUP2 ADD PUSH1 0x40 MSTORE DUP1 SWAP4 SWAP3 SWAP2 SWAP1 DUP2 DUP2 MSTORE PUSH1 0x20 ADD DUP4 DUP4 DUP1 DUP3 DUP5 CALLDATACOPY POP POP PUSH1 0x2 SLOAD PUSH1 0x40 DUP1 MLOAD PUSH32 0x76A14D1D00000000000000000000000000000000000000000000000000000000 DUP2 MSTORE PUSH1 0x4 DUP2 ADD SWAP2 DUP3 MSTORE PUSH1 0x44 DUP2 ADD DUP13 SWAP1 MSTORE PUSH1 0x1 PUSH1 0xA0 PUSH1 0x2 EXP SUB SWAP1 SWAP3 AND SWAP6 POP PUSH4 0x76A14D1D SWAP5 POP DUP12 SWAP4 POP DUP11 SWAP3 POP DUP10 SWAP2 DUP10 SWAP2 SWAP1 DUP2 SWAP1 PUSH1 0x24 DUP2 ADD SWAP1 PUSH1 0x64 ADD DUP8 DUP8 DUP1 DUP3 DUP5 CALLDATACOPY SWAP1 SWAP2 ADD DUP5 DUP2 SUB DUP4 MSTORE DUP6 DUP2 MSTORE PUSH1 0x20 ADD SWAP1 POP DUP6 DUP6 DUP1 DUP3 DUP5 CALLDATACOPY DUP3 ADD SWAP2 POP POP SWAP7 POP POP POP POP POP POP POP PUSH1 0x0 PUSH1 0x40 MLOAD DUP1 DUP4 SUB DUP2 PUSH1 0x0 DUP8 DUP1 EXTCODESIZE ISZERO DUP1 ISZERO PUSH2 0x5D6 JUMPI PUSH1 0x0 DUP1 REVERT JUMPDEST POP GAS CALL ISZERO DUP1 ISZERO PUSH2 0x5EA JUMPI RETURNDATASIZE PUSH1 0x0 DUP1 RETURNDATACOPY RETURNDATASIZE PUSH1 0x0 REVERT JUMPDEST POP POP POP POP PUSH1 0x40 MLOAD RETURNDATASIZE PUSH1 0x0 DUP3 RETURNDATACOPY PUSH1 0x1F RETURNDATASIZE SWAP1 DUP2 ADD PUSH1 0x1F NOT AND DUP3 ADD PUSH1 0x40 MSTORE PUSH1 0x20 DUP2 LT ISZERO PUSH2 0x613 JUMPI PUSH1 0x0 DUP1 REVERT JUMPDEST DUP2 ADD SWAP1 DUP1 DUP1 MLOAD PUSH5 0x100000000 DUP2 GT ISZERO PUSH2 0x62B JUMPI PUSH1 0x0 DUP1 REVERT JUMPDEST DUP3 ADD PUSH1 0x20 DUP2 ADD DUP5 DUP2 GT ISZERO PUSH2 0x63E JUMPI PUSH1 0x0 DUP1 REVERT JUMPDEST DUP2 MLOAD PUSH5 0x100000000 DUP2 GT DUP3 DUP3 ADD DUP8 LT OR ISZERO PUSH2 0x658 JUMPI PUSH1 0x0 DUP1 REVERT JUMPDEST POP POP SWAP3 SWAP2 SWAP1 POP POP POP PUSH2 0x737 JUMP JUMPDEST PUSH1 0x3 SLOAD PUSH1 0x1 PUSH1 0xA0 PUSH1 0x2 EXP SUB AND DUP2 JUMP JUMPDEST PUSH1 0x0 SLOAD PUSH1 0x1 PUSH1 0xA0 PUSH1 0x2 EXP SUB SWAP2 DUP3 AND SWAP2 AND EQ SWAP1 JUMP JUMPDEST PUSH1 0x0 DUP2 JUMP JUMPDEST PUSH1 0x1 DUP2 JUMP JUMPDEST PUSH2 0x69B CALLER PUSH2 0x674 JUMP JUMPDEST ISZERO ISZERO PUSH2 0x6A6 JUMPI PUSH1 0x0 DUP1 REVERT JUMPDEST PUSH1 0x1 SLOAD PUSH1 0x40 DUP1 MLOAD PUSH32 0x5B0FC9C300000000000000000000000000000000000000000000000000000000 DUP2 MSTORE PUSH1 0x4 DUP2 ADD DUP6 SWAP1 MSTORE PUSH1 0x1 PUSH1 0xA0 PUSH1 0x2 EXP SUB DUP5 DUP2 AND PUSH1 0x24 DUP4 ADD MSTORE SWAP2 MLOAD SWAP2 SWAP1 SWAP3 AND SWAP2 PUSH4 0x5B0FC9C3 SWAP2 PUSH1 0x44 DUP1 DUP4 ADD SWAP3 PUSH1 0x0 SWAP3 SWAP2 SWAP1 DUP3 SWAP1 SUB ADD DUP2 DUP4 DUP8 DUP1 EXTCODESIZE ISZERO DUP1 ISZERO PUSH2 0x465 JUMPI PUSH1 0x0 DUP1 REVERT JUMPDEST PUSH1 0x1 SLOAD PUSH1 0x1 PUSH1 0xA0 PUSH1 0x2 EXP SUB AND DUP2 JUMP JUMPDEST PUSH1 0x2 SLOAD PUSH1 0x1 PUSH1 0xA0 PUSH1 0x2 EXP SUB AND DUP2 JUMP JUMPDEST PUSH1 0x6 DUP2 JUMP JUMPDEST PUSH1 0x0 DUP1 PUSH2 0x743 DUP5 PUSH2 0xB12 JUMP JUMPDEST SWAP2 POP PUSH2 0x74F DUP5 DUP5 PUSH2 0xB55 JUMP JUMPDEST PUSH1 0x1 SLOAD PUSH1 0x40 DUP1 MLOAD PUSH1 0x0 DUP1 DUP3 MSTORE PUSH1 0x20 DUP1 DUP4 ADD DUP9 SWAP1 MSTORE DUP4 MLOAD SWAP3 DUP4 SWAP1 SUB DUP5 ADD DUP4 KECCAK256 PUSH32 0x2571BE300000000000000000000000000000000000000000000000000000000 DUP5 MSTORE PUSH1 0x4 DUP5 ADD MSTORE SWAP3 MLOAD SWAP5 SWAP6 POP PUSH1 0x1 PUSH1 0xA0 PUSH1 0x2 EXP SUB DUP1 DUP8 AND SWAP6 SWAP5 AND SWAP4 PUSH4 0x2571BE3 SWAP4 PUSH1 0x24 DUP1 DUP6 ADD SWAP5 SWAP2 SWAP4 SWAP2 DUP4 SWAP1 SUB ADD SWAP1 DUP3 SWAP1 DUP8 DUP1 EXTCODESIZE ISZERO DUP1 ISZERO PUSH2 0x7CE JUMPI PUSH1 0x0 DUP1 REVERT JUMPDEST POP GAS CALL ISZERO DUP1 ISZERO PUSH2 0x7E2 JUMPI RETURNDATASIZE PUSH1 0x0 DUP1 RETURNDATACOPY RETURNDATASIZE PUSH1 0x0 REVERT JUMPDEST POP POP POP POP PUSH1 0x40 MLOAD RETURNDATASIZE PUSH1 0x20 DUP2 LT ISZERO PUSH2 0x7F8 JUMPI PUSH1 0x0 DUP1 REVERT JUMPDEST POP MLOAD PUSH1 0x1 PUSH1 0xA0 PUSH1 0x2 EXP SUB AND EQ ISZERO PUSH2 0x80E JUMPI PUSH1 0x0 DUP1 REVERT JUMPDEST PUSH1 0x40 DUP1 MLOAD PUSH32 0x7472757374000000000000000000000000000000000000000000000000000000 DUP2 MSTORE SWAP1 MLOAD SWAP1 DUP2 SWAP1 SUB PUSH1 0x5 ADD SWAP1 KECCAK256 DUP3 EQ ISZERO PUSH2 0x84C JUMPI PUSH1 0x0 DUP1 REVERT JUMPDEST PUSH1 0x1 SLOAD PUSH1 0x40 DUP1 MLOAD PUSH32 0x6AB592300000000000000000000000000000000000000000000000000000000 DUP2 MSTORE PUSH1 0x0 PUSH1 0x4 DUP3 ADD DUP2 SWAP1 MSTORE PUSH1 0x24 DUP3 ADD DUP7 SWAP1 MSTORE PUSH1 0x1 PUSH1 0xA0 PUSH1 0x2 EXP SUB DUP6 DUP2 AND PUSH1 0x44 DUP5 ADD MSTORE SWAP3 MLOAD SWAP3 SWAP1 SWAP4 AND SWAP3 PUSH4 0x6AB5923 SWAP3 PUSH1 0x64 DUP1 DUP5 ADD SWAP4 PUSH1 0x20 SWAP4 SWAP1 DUP4 SWAP1 SUB SWAP1 SWAP2 ADD SWAP1 DUP3 SWAP1 DUP8 DUP1 EXTCODESIZE ISZERO DUP1 ISZERO PUSH2 0x8C5 JUMPI PUSH1 0x0 DUP1 REVERT JUMPDEST POP GAS CALL ISZERO DUP1 ISZERO PUSH2 0x8D9 JUMPI RETURNDATASIZE PUSH1 0x0 DUP1 RETURNDATACOPY RETURNDATASIZE PUSH1 0x0 REVERT JUMPDEST POP POP POP POP PUSH1 0x40 MLOAD RETURNDATASIZE PUSH1 0x20 DUP2 LT ISZERO PUSH2 0x8EF JUMPI PUSH1 0x0 DUP1 REVERT JUMPDEST POP POP PUSH1 0x40 DUP1 MLOAD PUSH1 0x0 DUP1 DUP3 MSTORE PUSH1 0x20 DUP3 ADD DUP6 SWAP1 MSTORE DUP3 MLOAD SWAP2 DUP3 SWAP1 SUB SWAP1 SWAP3 ADD DUP2 KECCAK256 PUSH1 0x1 PUSH1 0xA0 PUSH1 0x2 EXP SUB DUP5 AND SWAP3 SWAP1 SWAP2 PUSH32 0x2BCD5C28F9326B5B185D4E4E6106A17635D0E4A137994DBD05812A9415D76B45 SWAP2 SWAP1 LOG3 POP POP POP POP JUMP JUMPDEST PUSH2 0x94C CALLER PUSH2 0x674 JUMP JUMPDEST ISZERO ISZERO PUSH2 0x957 JUMPI PUSH1 0x0 DUP1 REVERT JUMPDEST PUSH1 0x1 SLOAD PUSH1 0x40 DUP1 MLOAD PUSH32 0x6AB592300000000000000000000000000000000000000000000000000000000 DUP2 MSTORE PUSH1 0x0 PUSH1 0x4 DUP3 ADD DUP2 SWAP1 MSTORE PUSH1 0x24 DUP3 ADD DUP7 SWAP1 MSTORE PUSH1 0x1 PUSH1 0xA0 PUSH1 0x2 EXP SUB DUP6 DUP2 AND PUSH1 0x44 DUP5 ADD MSTORE SWAP3 MLOAD SWAP3 SWAP1 SWAP4 AND SWAP3 PUSH4 0x6AB5923 SWAP3 PUSH1 0x64 DUP1 DUP5 ADD SWAP4 PUSH1 0x20 SWAP4 SWAP1 DUP4 SWAP1 SUB SWAP1 SWAP2 ADD SWAP1 DUP3 SWAP1 DUP8 DUP1 EXTCODESIZE ISZERO DUP1 ISZERO PUSH2 0x9D0 JUMPI PUSH1 0x0 DUP1 REVERT JUMPDEST POP GAS CALL ISZERO DUP1 ISZERO PUSH2 0x9E4 JUMPI RETURNDATASIZE PUSH1 0x0 DUP1 RETURNDATACOPY RETURNDATASIZE PUSH1 0x0 REVERT JUMPDEST POP POP POP POP PUSH1 0x40 MLOAD RETURNDATASIZE PUSH1 0x20 DUP2 LT ISZERO PUSH2 0x9FA JUMPI PUSH1 0x0 DUP1 REVERT JUMPDEST POP POP POP POP JUMP JUMPDEST PUSH1 0x0 SLOAD PUSH1 0x1 PUSH1 0xA0 PUSH1 0x2 EXP SUB AND DUP2 JUMP JUMPDEST PUSH1 0x40 DUP1 MLOAD PUSH32 0x7472757374000000000000000000000000000000000000000000000000000000 DUP2 MSTORE SWAP1 MLOAD SWAP1 DUP2 SWAP1 SUB PUSH1 0x5 ADD SWAP1 KECCAK256 DUP2 JUMP JUMPDEST PUSH2 0xA4D CALLER PUSH2 0x674 JUMP JUMPDEST ISZERO ISZERO PUSH2 0xA58 JUMPI PUSH1 0x0 DUP1 REVERT JUMPDEST PUSH1 0x0 DUP1 SLOAD PUSH20 0xFFFFFFFFFFFFFFFFFFFFFFFFFFFFFFFFFFFFFFFF NOT AND PUSH1 0x1 PUSH1 0xA0 PUSH1 0x2 EXP SUB SWAP3 SWAP1 SWAP3 AND SWAP2 SWAP1 SWAP2 OR SWAP1 SSTORE JUMP JUMPDEST PUSH2 0xA90 CALLER PUSH2 0x674 JUMP JUMPDEST ISZERO ISZERO PUSH2 0xA9B JUMPI PUSH1 0x0 DUP1 REVERT JUMPDEST PUSH1 0x1 PUSH1 0xA0 PUSH1 0x2 EXP SUB DUP2 AND ISZERO ISZERO PUSH2 0xAB0 JUMPI PUSH1 0x0 DUP1 REVERT JUMPDEST PUSH1 0x3 DUP1 SLOAD PUSH20 0xFFFFFFFFFFFFFFFFFFFFFFFFFFFFFFFFFFFFFFFF NOT AND PUSH1 0x1 PUSH1 0xA0 PUSH1 0x2 EXP SUB DUP4 DUP2 AND SWAP2 SWAP1 SWAP2 OR SWAP2 DUP3 SWAP1 SSTORE PUSH1 0x40 MLOAD SWAP2 AND SWAP1 PUSH32 0x6E4C52923C1E70447ECC72995CE26BF2400D9C26B1A7C21AB433E7CAFF8D40A2 SWAP1 PUSH1 0x0 SWAP1 LOG2 POP JUMP JUMPDEST PUSH1 0x10 DUP2 JUMP JUMPDEST PUSH1 0x0 DUP1 PUSH2 0xB25 DUP4 DUP3 PUSH4 0xFFFFFFFF PUSH2 0xC3E AND JUMP JUMPDEST PUSH1 0xFF AND SWAP1 POP DUP1 PUSH1 0x2 ADD DUP4 MLOAD EQ ISZERO ISZERO PUSH2 0xB3C JUMPI PUSH1 0x0 DUP1 REVERT JUMPDEST PUSH2 0xB4E DUP4 PUSH1 0x1 DUP4 PUSH4 0xFFFFFFFF PUSH2 0xC5E AND JUMP JUMPDEST SWAP4 SWAP3 POP POP POP JUMP JUMPDEST PUSH1 0x0 PUSH2 0xB5F PUSH2 0x15AE JUMP JUMPDEST PUSH1 0x0 DUP1 PUSH2 0xB79 DUP7 MLOAD PUSH1 0x4 ADD DUP5 PUSH2 0xC7B SWAP1 SWAP2 SWAP1 PUSH4 0xFFFFFFFF AND JUMP JUMPDEST POP PUSH1 0x40 DUP1 MLOAD DUP1 DUP3 ADD SWAP1 SWAP2 MSTORE PUSH1 0x4 DUP2 MSTORE PUSH32 0x36E696300000000000000000000000000000000000000000000000000000000 PUSH1 0x20 DUP3 ADD MSTORE PUSH2 0xBBF SWAP1 DUP5 SWAP1 PUSH4 0xFFFFFFFF PUSH2 0xCB7 AND JUMP JUMPDEST POP PUSH2 0xBD0 DUP4 DUP8 PUSH4 0xFFFFFFFF PUSH2 0xCB7 AND JUMP JUMPDEST POP PUSH1 0x2 SLOAD DUP4 MLOAD PUSH2 0xBEA SWAP2 PUSH1 0x1 PUSH1 0xA0 PUSH1 0x2 EXP SUB AND SWAP1 DUP8 PUSH2 0xCD1 JUMP JUMPDEST SWAP1 SWAP3 POP SWAP1 POP DUP1 ISZERO ISZERO PUSH2 0xC31 JUMPI DUP3 MLOAD PUSH1 0x0 SWAP1 PUSH2 0xC04 SWAP1 PUSH2 0x1032 JUMP JUMPDEST PUSH12 0xFFFFFFFFFFFFFFFFFFFFFFFF NOT AND EQ ISZERO PUSH2 0xC1E JUMPI PUSH1 0x0 DUP1 REVERT JUMPDEST PUSH1 0x3 SLOAD PUSH1 0x1 PUSH1 0xA0 PUSH1 0x2 EXP SUB AND SWAP4 POP PUSH2 0xC35 JUMP JUMPDEST DUP2 SWAP4 POP JUMPDEST POP POP POP SWAP3 SWAP2 POP POP JUMP JUMPDEST DUP2 MLOAD PUSH1 0x0 SWAP1 PUSH1 0x1 DUP4 ADD GT ISZERO PUSH2 0xC52 JUMPI PUSH1 0x0 DUP1 REVERT JUMPDEST POP ADD PUSH1 0x1 ADD MLOAD PUSH1 0xFF AND SWAP1 JUMP JUMPDEST DUP3 MLOAD PUSH1 0x0 SWAP1 DUP4 DUP4 ADD GT ISZERO PUSH2 0xC71 JUMPI PUSH1 0x0 DUP1 REVERT JUMPDEST POP SWAP2 ADD PUSH1 0x20 ADD KECCAK256 SWAP1 JUMP JUMPDEST PUSH2 0xC83 PUSH2 0x15AE JUMP JUMPDEST PUSH1 0x20 DUP3 MOD ISZERO PUSH2 0xC98 JUMPI PUSH1 0x20 DUP3 MOD PUSH1 0x20 SUB DUP3 ADD SWAP2 POP JUMPDEST POP PUSH1 0x20 DUP3 ADD DUP2 SWAP1 MSTORE PUSH1 0x40 DUP1 MLOAD DUP1 DUP5 MSTORE PUSH1 0x0 DUP2 MSTORE DUP3 ADD SWAP1 MSTORE DUP2 JUMPDEST SWAP3 SWAP2 POP POP JUMP JUMPDEST PUSH2 0xCBF PUSH2 0x15AE JUMP JUMPDEST PUSH2 0xB4E DUP4 DUP5 PUSH1 0x0 ADD MLOAD MLOAD DUP5 DUP6 MLOAD PUSH2 0x11B6 JUMP JUMPDEST PUSH1 0x0 DUP1 PUSH2 0xCDC PUSH2 0x15AE JUMP JUMPDEST PUSH1 0x0 DUP1 PUSH2 0xCE7 PUSH2 0x15C6 JUMP JUMPDEST PUSH1 0x0 PUSH2 0xD00 DUP10 MLOAD PUSH1 0x5 ADD DUP7 PUSH2 0xC7B SWAP1 SWAP2 SWAP1 PUSH4 0xFFFFFFFF AND JUMP JUMPDEST POP PUSH1 0x40 DUP1 MLOAD DUP1 DUP3 ADD SWAP1 SWAP2 MSTORE PUSH1 0x5 DUP2 MSTORE PUSH32 0x45F656E73000000000000000000000000000000000000000000000000000000 PUSH1 0x20 DUP3 ADD MSTORE PUSH2 0xD46 SWAP1 DUP7 SWAP1 PUSH4 0xFFFFFFFF PUSH2 0xCB7 AND JUMP JUMPDEST POP PUSH2 0xD57 DUP6 DUP11 PUSH4 0xFFFFFFFF PUSH2 0xCB7 AND JUMP JUMPDEST POP DUP10 PUSH1 0x1 PUSH1 0xA0 PUSH1 0x2 EXP SUB AND PUSH4 0x87991BC PUSH1 0x10 DUP8 PUSH1 0x0 ADD MLOAD PUSH1 0x40 MLOAD DUP4 PUSH4 0xFFFFFFFF AND PUSH29 0x100000000000000000000000000000000000000000000000000000000 MUL DUP2 MSTORE PUSH1 0x4 ADD DUP1 DUP4 PUSH2 0xFFFF AND PUSH2 0xFFFF AND DUP2 MSTORE PUSH1 0x20 ADD DUP1 PUSH1 0x20 ADD DUP3 DUP2 SUB DUP3 MSTORE DUP4 DUP2 DUP2 MLOAD DUP2 MSTORE PUSH1 0x20 ADD SWAP2 POP DUP1 MLOAD SWAP1 PUSH1 0x20 ADD SWAP1 DUP1 DUP4 DUP4 PUSH1 0x0 JUMPDEST DUP4 DUP2 LT ISZERO PUSH2 0xDE4 JUMPI DUP2 DUP2 ADD MLOAD DUP4 DUP3 ADD MSTORE PUSH1 0x20 ADD PUSH2 0xDCC JUMP JUMPDEST POP POP POP POP SWAP1 POP SWAP1 DUP2 ADD SWAP1 PUSH1 0x1F AND DUP1 ISZERO PUSH2 0xE11 JUMPI DUP1 DUP3 SUB DUP1 MLOAD PUSH1 0x1 DUP4 PUSH1 0x20 SUB PUSH2 0x100 EXP SUB NOT AND DUP2 MSTORE PUSH1 0x20 ADD SWAP2 POP JUMPDEST POP SWAP4 POP POP POP POP PUSH1 0x60 PUSH1 0x40 MLOAD DUP1 DUP4 SUB DUP2 PUSH1 0x0 DUP8 DUP1 EXTCODESIZE ISZERO DUP1 ISZERO PUSH2 0xE31 JUMPI PUSH1 0x0 DUP1 REVERT JUMPDEST POP GAS CALL ISZERO DUP1 ISZERO PUSH2 0xE45 JUMPI RETURNDATASIZE PUSH1 0x0 DUP1 RETURNDATACOPY RETURNDATASIZE PUSH1 0x0 REVERT JUMPDEST POP POP POP POP PUSH1 0x40 MLOAD RETURNDATASIZE PUSH1 0x60 DUP2 LT ISZERO PUSH2 0xE5B JUMPI PUSH1 0x0 DUP1 REVERT JUMPDEST POP PUSH1 0x20 DUP2 ADD MLOAD PUSH1 0x40 SWAP1 SWAP2 ADD MLOAD SWAP5 POP SWAP3 POP PUSH12 0xFFFFFFFFFFFFFFFFFFFFFFFF NOT DUP5 AND ISZERO DUP1 ISZERO PUSH2 0xE87 JUMPI POP DUP8 MLOAD ISZERO JUMPDEST ISZERO PUSH2 0xE98 JUMPI PUSH1 0x0 DUP1 SWAP7 POP SWAP7 POP PUSH2 0x1025 JUMP JUMPDEST DUP8 PUSH1 0x40 MLOAD DUP1 DUP3 DUP1 MLOAD SWAP1 PUSH1 0x20 ADD SWAP1 DUP1 DUP4 DUP4 JUMPDEST PUSH1 0x20 DUP4 LT PUSH2 0xEC8 JUMPI DUP1 MLOAD DUP3 MSTORE PUSH1 0x1F NOT SWAP1 SWAP3 ADD SWAP2 PUSH1 0x20 SWAP2 DUP3 ADD SWAP2 ADD PUSH2 0xEA9 JUMP JUMPDEST MLOAD DUP2 MLOAD PUSH1 0x20 SWAP4 SWAP1 SWAP4 SUB PUSH2 0x100 EXP PUSH1 0x0 NOT ADD DUP1 NOT SWAP1 SWAP2 AND SWAP3 AND SWAP2 SWAP1 SWAP2 OR SWAP1 MSTORE PUSH1 0x40 MLOAD SWAP3 ADD DUP3 SWAP1 SUB SWAP1 SWAP2 KECCAK256 PUSH12 0xFFFFFFFFFFFFFFFFFFFFFFFF NOT SWAP1 DUP2 AND SWAP1 DUP9 AND EQ SWAP3 POP PUSH2 0xF14 SWAP2 POP POP JUMPI PUSH1 0x0 DUP1 REVERT JUMPDEST PUSH2 0xF25 DUP9 PUSH1 0x0 PUSH4 0xFFFFFFFF PUSH2 0x1270 AND JUMP JUMPDEST SWAP2 POP JUMPDEST PUSH2 0xF31 DUP3 PUSH2 0x128B JUMP JUMPDEST ISZERO ISZERO PUSH2 0x101D JUMPI TIMESTAMP DUP3 PUSH1 0x80 ADD MLOAD PUSH4 0xFFFFFFFF AND DUP5 ADD PUSH8 0xFFFFFFFFFFFFFFFF AND LT ISZERO ISZERO ISZERO PUSH2 0xFE4 JUMPI PUSH1 0x40 DUP1 MLOAD PUSH32 0x8C379A000000000000000000000000000000000000000000000000000000000 DUP2 MSTORE PUSH1 0x20 PUSH1 0x4 DUP3 ADD MSTORE PUSH1 0x3C PUSH1 0x24 DUP3 ADD MSTORE PUSH32 0x444E53207265636F7264206973207374616C653B2072656672657368206F7220 PUSH1 0x44 DUP3 ADD MSTORE PUSH32 0x64656C657465206974206265666F72652070726F63656564696E672E00000000 PUSH1 0x64 DUP3 ADD MSTORE SWAP1 MLOAD SWAP1 DUP2 SWAP1 SUB PUSH1 0x84 ADD SWAP1 REVERT JUMPDEST PUSH2 0xFF2 DUP9 DUP4 PUSH1 0xA0 ADD MLOAD PUSH2 0x1299 JUMP JUMPDEST SWAP1 POP PUSH1 0x1 PUSH1 0xA0 PUSH1 0x2 EXP SUB DUP2 AND ISZERO PUSH2 0x100F JUMPI DUP1 PUSH1 0x1 SWAP7 POP SWAP7 POP PUSH2 0x1025 JUMP JUMPDEST PUSH2 0x1018 DUP3 PUSH2 0x12FD JUMP JUMPDEST PUSH2 0xF28 JUMP JUMPDEST PUSH1 0x0 DUP1 SWAP7 POP SWAP7 POP JUMPDEST POP POP POP POP POP SWAP4 POP SWAP4 SWAP2 POP POP JUMP JUMPDEST PUSH1 0x0 PUSH2 0x103C PUSH2 0x15AE JUMP JUMPDEST PUSH1 0x0 PUSH2 0x1055 DUP5 MLOAD PUSH1 0x5 ADD DUP4 PUSH2 0xC7B SWAP1 SWAP2 SWAP1 PUSH4 0xFFFFFFFF AND JUMP JUMPDEST POP PUSH1 0x40 DUP1 MLOAD DUP1 DUP3 ADD SWAP1 SWAP2 MSTORE PUSH1 0x5 DUP2 MSTORE PUSH32 0x45F746E73000000000000000000000000000000000000000000000000000000 PUSH1 0x20 DUP3 ADD MSTORE PUSH2 0x109B SWAP1 DUP4 SWAP1 PUSH4 0xFFFFFFFF PUSH2 0xCB7 AND JUMP JUMPDEST POP PUSH2 0x10AC DUP3 DUP6 PUSH4 0xFFFFFFFF PUSH2 0xCB7 AND JUMP JUMPDEST POP PUSH1 0x2 SLOAD DUP3 MLOAD PUSH1 0x40 DUP1 MLOAD PUSH32 0x87991BC00000000000000000000000000000000000000000000000000000000 DUP2 MSTORE PUSH1 0x6 PUSH1 0x4 DUP3 ADD DUP2 DUP2 MSTORE PUSH1 0x24 DUP4 ADD SWAP4 DUP5 MSTORE DUP5 MLOAD PUSH1 0x44 DUP5 ADD MSTORE DUP5 MLOAD PUSH1 0x1 PUSH1 0xA0 PUSH1 0x2 EXP SUB SWAP1 SWAP7 AND SWAP6 PUSH4 0x87991BC SWAP6 SWAP3 SWAP5 SWAP3 SWAP4 SWAP2 SWAP3 SWAP2 PUSH1 0x64 ADD SWAP1 PUSH1 0x20 DUP6 ADD SWAP1 DUP1 DUP4 DUP4 PUSH1 0x0 JUMPDEST DUP4 DUP2 LT ISZERO PUSH2 0x1132 JUMPI DUP2 DUP2 ADD MLOAD DUP4 DUP3 ADD MSTORE PUSH1 0x20 ADD PUSH2 0x111A JUMP JUMPDEST POP POP POP POP SWAP1 POP SWAP1 DUP2 ADD SWAP1 PUSH1 0x1F AND DUP1 ISZERO PUSH2 0x115F JUMPI DUP1 DUP3 SUB DUP1 MLOAD PUSH1 0x1 DUP4 PUSH1 0x20 SUB PUSH2 0x100 EXP SUB NOT AND DUP2 MSTORE PUSH1 0x20 ADD SWAP2 POP JUMPDEST POP SWAP4 POP POP POP POP PUSH1 0x60 PUSH1 0x40 MLOAD DUP1 DUP4 SUB DUP2 PUSH1 0x0 DUP8 DUP1 EXTCODESIZE ISZERO DUP1 ISZERO PUSH2 0x117F JUMPI PUSH1 0x0 DUP1 REVERT JUMPDEST POP GAS CALL ISZERO DUP1 ISZERO PUSH2 0x1193 JUMPI RETURNDATASIZE PUSH1 0x0 DUP1 RETURNDATACOPY RETURNDATASIZE PUSH1 0x0 REVERT JUMPDEST POP POP POP POP PUSH1 0x40 MLOAD RETURNDATASIZE PUSH1 0x60 DUP2 LT ISZERO PUSH2 0x11A9 JUMPI PUSH1 0x0 DUP1 REVERT JUMPDEST POP PUSH1 0x40 ADD MLOAD SWAP5 SWAP4 POP POP POP POP JUMP JUMPDEST PUSH2 0x11BE PUSH2 0x15AE JUMP JUMPDEST PUSH1 0x0 DUP1 PUSH1 0x0 DUP6 MLOAD DUP6 GT ISZERO ISZERO ISZERO PUSH2 0x11D3 JUMPI PUSH1 0x0 DUP1 REVERT JUMPDEST PUSH1 0x20 DUP9 ADD MLOAD DUP9 MLOAD MLOAD DUP9 DUP8 ADD ADD GT ISZERO PUSH2 0x1201 JUMPI PUSH2 0x1201 DUP9 PUSH2 0x11F9 DUP11 PUSH1 0x20 ADD MLOAD DUP11 DUP10 ADD PUSH2 0x13D3 JUMP JUMPDEST PUSH1 0x2 MUL PUSH2 0x13EA JUMP JUMPDEST DUP8 MLOAD DUP1 MLOAD DUP9 PUSH1 0x20 DUP4 ADD ADD SWAP5 POP DUP1 DUP10 DUP9 ADD GT ISZERO PUSH2 0x121D JUMPI DUP9 DUP8 ADD DUP3 MSTORE JUMPDEST PUSH1 0x20 DUP9 ADD SWAP4 POP POP POP JUMPDEST PUSH1 0x20 DUP6 LT PUSH2 0x1248 JUMPI DUP2 MLOAD DUP4 MSTORE PUSH1 0x1F NOT SWAP1 SWAP5 ADD SWAP4 PUSH1 0x20 SWAP3 DUP4 ADD SWAP3 SWAP1 SWAP2 ADD SWAP1 PUSH2 0x1226 JUMP JUMPDEST POP MLOAD DUP2 MLOAD PUSH1 0x20 SWAP5 SWAP1 SWAP5 SUB PUSH2 0x100 EXP PUSH1 0x0 NOT ADD DUP1 NOT SWAP1 SWAP2 AND SWAP4 AND SWAP3 SWAP1 SWAP3 OR SWAP1 SWAP2 MSTORE POP SWAP2 SWAP3 SWAP2 POP POP JUMP JUMPDEST PUSH2 0x1278 PUSH2 0x15C6 JUMP JUMPDEST DUP3 DUP2 MSTORE PUSH1 0xC0 DUP2 ADD DUP3 SWAP1 MSTORE PUSH2 0xCB1 DUP2 PUSH2 0x12FD JUMP JUMPDEST DUP1 MLOAD MLOAD PUSH1 0x20 SWAP1 SWAP2 ADD MLOAD LT ISZERO SWAP1 JUMP JUMPDEST PUSH1 0x0 DUP1 PUSH1 0x0 JUMPDEST DUP5 MLOAD DUP5 LT ISZERO PUSH2 0x12F0 JUMPI PUSH2 0x12B8 DUP6 DUP6 PUSH4 0xFFFFFFFF PUSH2 0xC3E AND JUMP JUMPDEST PUSH1 0xFF AND SWAP2 POP PUSH1 0x1 DUP5 ADD SWAP4 POP PUSH2 0x12CE DUP6 DUP6 DUP5 PUSH2 0x1401 JUMP JUMPDEST SWAP1 POP PUSH1 0x1 PUSH1 0xA0 PUSH1 0x2 EXP SUB DUP2 AND ISZERO PUSH2 0x12E7 JUMPI DUP1 SWAP3 POP PUSH2 0x12F5 JUMP JUMPDEST SWAP3 DUP2 ADD SWAP3 PUSH2 0x129F JUMP JUMPDEST PUSH1 0x0 SWAP3 POP JUMPDEST POP POP SWAP3 SWAP2 POP POP JUMP JUMPDEST PUSH1 0xC0 DUP2 ADD MLOAD PUSH1 0x20 DUP3 ADD DUP2 SWAP1 MSTORE DUP2 MLOAD MLOAD PUSH1 0x0 SWAP2 DUP3 SWAP2 GT PUSH2 0x131B JUMPI PUSH2 0x13CE JUMP JUMPDEST PUSH2 0x132D DUP4 PUSH1 0x0 ADD MLOAD DUP5 PUSH1 0x20 ADD MLOAD PUSH2 0x1453 JUMP JUMPDEST PUSH1 0x20 DUP5 ADD MLOAD DUP5 MLOAD SWAP2 ADD SWAP3 POP PUSH2 0x1348 SWAP1 DUP4 PUSH4 0xFFFFFFFF PUSH2 0x149A AND JUMP JUMPDEST PUSH2 0xFFFF AND PUSH1 0x40 DUP5 ADD MSTORE DUP3 MLOAD PUSH1 0x2 SWAP3 SWAP1 SWAP3 ADD SWAP2 PUSH2 0x136A SWAP1 DUP4 PUSH4 0xFFFFFFFF PUSH2 0x149A AND JUMP JUMPDEST PUSH2 0xFFFF AND PUSH1 0x60 DUP5 ADD MSTORE DUP3 MLOAD PUSH1 0x2 SWAP3 SWAP1 SWAP3 ADD SWAP2 PUSH2 0x138C SWAP1 DUP4 PUSH4 0xFFFFFFFF PUSH2 0x14BB AND JUMP JUMPDEST PUSH4 0xFFFFFFFF SWAP1 DUP2 AND PUSH1 0x80 DUP6 ADD MSTORE DUP4 MLOAD PUSH1 0x4 SWAP4 SWAP1 SWAP4 ADD SWAP3 PUSH2 0x13AE SWAP2 DUP5 SWAP1 PUSH2 0x149A AND JUMP JUMPDEST PUSH1 0x2 DUP4 DUP2 ADD PUSH1 0xA0 DUP7 ADD DUP2 SWAP1 MSTORE PUSH2 0xFFFF SWAP3 SWAP1 SWAP3 AND SWAP4 DUP5 ADD ADD PUSH1 0xC0 DUP6 ADD MSTORE SWAP2 SWAP1 POP JUMPDEST POP POP POP JUMP JUMPDEST PUSH1 0x0 DUP2 DUP4 GT ISZERO PUSH2 0x13E4 JUMPI POP DUP2 PUSH2 0xCB1 JUMP JUMPDEST POP SWAP2 SWAP1 POP JUMP JUMPDEST DUP2 MLOAD PUSH2 0x13F6 DUP4 DUP4 PUSH2 0xC7B JUMP JUMPDEST POP PUSH2 0x9FA DUP4 DUP3 PUSH2 0xCB7 JUMP JUMPDEST PUSH1 0x0 PUSH2 0x1413 DUP5 DUP5 PUSH4 0xFFFFFFFF PUSH2 0x14BB AND JUMP JUMPDEST PUSH4 0xFFFFFFFF AND PUSH4 0x613D3078 EQ ISZERO ISZERO PUSH2 0x142D JUMPI POP PUSH1 0x0 PUSH2 0xB4E JUMP JUMPDEST PUSH1 0x2C DUP3 LT ISZERO PUSH2 0x143E JUMPI POP PUSH1 0x0 PUSH2 0xB4E JUMP JUMPDEST PUSH2 0x144B DUP5 DUP5 PUSH1 0x4 ADD PUSH2 0x14DE JUMP JUMPDEST SWAP5 SWAP4 POP POP POP POP JUMP JUMPDEST PUSH1 0x0 DUP2 DUP2 JUMPDEST DUP5 MLOAD DUP3 LT PUSH2 0x1462 JUMPI INVALID JUMPDEST PUSH2 0x1472 DUP6 DUP4 PUSH4 0xFFFFFFFF PUSH2 0xC3E AND JUMP JUMPDEST PUSH1 0xFF AND SWAP2 DUP3 ADD PUSH1 0x1 ADD SWAP2 SWAP1 POP DUP1 ISZERO ISZERO PUSH2 0x148A JUMPI PUSH2 0x148F JUMP JUMPDEST PUSH2 0x1458 JUMP JUMPDEST POP SWAP2 SWAP1 SWAP2 SUB SWAP3 SWAP2 POP POP JUMP JUMPDEST DUP2 MLOAD PUSH1 0x0 SWAP1 PUSH1 0x2 DUP4 ADD GT ISZERO PUSH2 0x14AE JUMPI PUSH1 0x0 DUP1 REVERT JUMPDEST POP ADD PUSH1 0x2 ADD MLOAD PUSH2 0xFFFF AND SWAP1 JUMP JUMPDEST DUP2 MLOAD PUSH1 0x0 SWAP1 PUSH1 0x4 DUP4 ADD GT ISZERO PUSH2 0x14CF JUMPI PUSH1 0x0 DUP1 REVERT JUMPDEST POP ADD PUSH1 0x4 ADD MLOAD PUSH4 0xFFFFFFFF AND SWAP1 JUMP JUMPDEST PUSH1 0x0 DUP1 PUSH1 0x0 DUP1 PUSH1 0x28 DUP6 DUP8 MLOAD SUB LT ISZERO PUSH2 0x14F9 JUMPI PUSH1 0x0 SWAP4 POP PUSH2 0xC35 JUMP JUMPDEST PUSH1 0x0 SWAP3 POP DUP5 SWAP2 POP JUMPDEST DUP5 PUSH1 0x28 ADD DUP3 LT ISZERO PUSH2 0x15A4 JUMPI PUSH1 0x10 SWAP1 SWAP3 MUL SWAP2 PUSH2 0x1522 DUP7 DUP4 PUSH4 0xFFFFFFFF PUSH2 0xC3E AND JUMP JUMPDEST PUSH1 0xFF AND SWAP1 POP PUSH1 0x30 DUP2 LT ISZERO DUP1 ISZERO PUSH2 0x1538 JUMPI POP PUSH1 0x3A DUP2 LT JUMPDEST ISZERO PUSH2 0x154A JUMPI PUSH1 0x30 DUP2 SUB DUP4 OR SWAP3 POP PUSH2 0x1599 JUMP JUMPDEST PUSH1 0x41 DUP2 LT ISZERO DUP1 ISZERO PUSH2 0x155B JUMPI POP PUSH1 0x47 DUP2 LT JUMPDEST ISZERO PUSH2 0x156D JUMPI PUSH1 0x37 DUP2 SUB DUP4 OR SWAP3 POP PUSH2 0x1599 JUMP JUMPDEST PUSH1 0x61 DUP2 LT ISZERO DUP1 ISZERO PUSH2 0x157E JUMPI POP PUSH1 0x67 DUP2 LT JUMPDEST ISZERO PUSH2 0x1590 JUMPI PUSH1 0x57 DUP2 SUB DUP4 OR SWAP3 POP PUSH2 0x1599 JUMP JUMPDEST PUSH1 0x0 SWAP4 POP PUSH2 0xC35 JUMP JUMPDEST PUSH1 0x1 SWAP1 SWAP2 ADD SWAP1 PUSH2 0x1501 JUMP JUMPDEST POP SWAP1 SWAP5 SWAP4 POP POP POP POP JUMP JUMPDEST PUSH1 0x40 DUP1 MLOAD DUP1 DUP3 ADD SWAP1 SWAP2 MSTORE PUSH1 0x60 DUP2 MSTORE PUSH1 0x0 PUSH1 0x20 DUP3 ADD MSTORE SWAP1 JUMP JUMPDEST PUSH1 0xE0 PUSH1 0x40 MLOAD SWAP1 DUP2 ADD PUSH1 0x40 MSTORE DUP1 PUSH1 0x60 DUP2 MSTORE PUSH1 0x20 ADD PUSH1 0x0 DUP2 MSTORE PUSH1 0x20 ADD PUSH1 0x0 PUSH2 0xFFFF AND DUP2 MSTORE PUSH1 0x20 ADD PUSH1 0x0 PUSH2 0xFFFF AND DUP2 MSTORE PUSH1 0x20 ADD PUSH1 0x0 PUSH4 0xFFFFFFFF AND DUP2 MSTORE PUSH1 0x20 ADD PUSH1 0x0 DUP2 MSTORE PUSH1 0x20 ADD PUSH1 0x0 DUP2 MSTORE POP SWAP1 JUMP STOP LOG1 PUSH6 0x627A7A723058 KECCAK256 0xd6 0x3f PUSH21 0x546DF567E2950623046F3D73A587373FD7A7C8606D PUSH28 0xEA468B3C64A63C002900000000000000000000000000000000000000 "},"methodIdentifiers":{"CLASS_INET()":"4b897d54","ROOT_NODE()":"4a9fe1c7","TRUST_NODE()":"b80067a5","TYPE_SOA()":"81413353","TYPE_TXT()":"ff8879dd","isOwner(address)":"2f54bf6e","oracle()":"7dc0d1d0","owner()":"8da5cb5b","proveAndRegisterTLD(bytes,bytes,bytes)":"245b79ad","registerTLD(bytes,bytes)":"87900f20","registrar()":"2b20e397","setOwner(bytes32,address)":"5b0fc9c3","setRegistrar(address)":"faab9d39","setResolver(bytes32,address)":"1896f70a","setSubnodeOwner(bytes32,address)":"8cb8ecec","setTTL(bytes32,uint64)":"14ab9038","tns()":"6c7a8d7e","transferOwnership(address)":"f2fde38b"}}}}}