{
  "_format": "hh-sol-artifact-1",
  "contractName": "ETHRegistrarController",
  "sourceName": "ethregistrar/contracts/ETHRegistrarController.sol",
  "abi": [
    {
      "inputs": [
        {
          "internalType": "contract BaseRegistrar",
          "name": "_base",
          "type": "address"
        },
        {
          "internalType": "contract PriceOracle",
          "name": "_prices",
          "type": "address"
        }
      ],
      "payable": false,
      "stateMutability": "nonpayable",
      "type": "constructor"
    },
    {
      "anonymous": false,
      "inputs": [
        {
          "indexed": false,
          "internalType": "string",
          "name": "name",
          "type": "string"
        },
        {
          "indexed": true,
          "internalType": "address",
          "name": "owner",
          "type": "address"
        },
        {
          "indexed": false,
          "internalType": "uint256",
          "name": "cost",
          "type": "uint256"
        },
        {
          "indexed": false,
          "internalType": "uint256",
          "name": "expires",
          "type": "uint256"
        }
      ],
      "name": "NameRegistered",
      "type": "event"
    },
    {
      "anonymous": false,
      "inputs": [
        {
          "indexed": false,
          "internalType": "string",
          "name": "name",
          "type": "string"
        },
        {
          "indexed": false,
          "internalType": "uint256",
          "name": "cost",
          "type": "uint256"
        },
        {
          "indexed": false,
          "internalType": "uint256",
          "name": "expires",
          "type": "uint256"
        }
      ],
      "name": "NameRenewed",
      "type": "event"
    },
    {
      "anonymous": false,
      "inputs": [
        {
          "indexed": true,
          "internalType": "address",
          "name": "oracle",
          "type": "address"
        }
      ],
      "name": "NewPriceOracle",
      "type": "event"
    },
    {
      "anonymous": false,
      "inputs": [
        {
          "indexed": true,
          "internalType": "address",
          "name": "previousOwner",
          "type": "address"
        },
        {
          "indexed": true,
          "internalType": "address",
          "name": "newOwner",
          "type": "address"
        }
      ],
      "name": "OwnershipTransferred",
      "type": "event"
    },
    {
      "constant": true,
      "inputs": [],
      "name": "MAX_COMMITMENT_AGE",
      "outputs": [
        {
          "internalType": "uint256",
          "name": "",
          "type": "uint256"
        }
      ],
      "payable": false,
      "stateMutability": "view",
      "type": "function"
    },
    {
      "constant": true,
      "inputs": [],
      "name": "MIN_COMMITMENT_AGE",
      "outputs": [
        {
          "internalType": "uint256",
          "name": "",
          "type": "uint256"
        }
      ],
      "payable": false,
      "stateMutability": "view",
      "type": "function"
    },
    {
      "constant": true,
      "inputs": [],
      "name": "MIN_REGISTRATION_DURATION",
      "outputs": [
        {
          "internalType": "uint256",
          "name": "",
          "type": "uint256"
        }
      ],
      "payable": false,
      "stateMutability": "view",
      "type": "function"
    },
    {
      "constant": true,
      "inputs": [
        {
          "internalType": "string",
          "name": "name",
          "type": "string"
        }
      ],
      "name": "available",
      "outputs": [
        {
          "internalType": "bool",
          "name": "",
          "type": "bool"
        }
      ],
      "payable": false,
      "stateMutability": "view",
      "type": "function"
    },
    {
      "constant": false,
      "inputs": [
        {
          "internalType": "bytes32",
          "name": "commitment",
          "type": "bytes32"
        }
      ],
      "name": "commit",
      "outputs": [],
      "payable": false,
      "stateMutability": "nonpayable",
      "type": "function"
    },
    {
      "constant": true,
      "inputs": [
        {
          "internalType": "bytes32",
          "name": "",
          "type": "bytes32"
        }
      ],
      "name": "commitments",
      "outputs": [
        {
          "internalType": "uint256",
          "name": "",
          "type": "uint256"
        }
      ],
      "payable": false,
      "stateMutability": "view",
      "type": "function"
    },
    {
      "constant": true,
      "inputs": [],
      "name": "isOwner",
      "outputs": [
        {
          "internalType": "bool",
          "name": "",
          "type": "bool"
        }
      ],
      "payable": false,
      "stateMutability": "view",
      "type": "function"
    },
    {
      "constant": true,
      "inputs": [
        {
          "internalType": "string",
          "name": "name",
          "type": "string"
        },
        {
          "internalType": "bytes32",
          "name": "secret",
          "type": "bytes32"
        }
      ],
      "name": "makeCommitment",
      "outputs": [
        {
          "internalType": "bytes32",
          "name": "",
          "type": "bytes32"
        }
      ],
      "payable": false,
      "stateMutability": "pure",
      "type": "function"
    },
    {
      "constant": true,
      "inputs": [],
      "name": "owner",
      "outputs": [
        {
          "internalType": "address",
          "name": "",
          "type": "address"
        }
      ],
      "payable": false,
      "stateMutability": "view",
      "type": "function"
    },
    {
      "constant": false,
      "inputs": [
        {
          "internalType": "string",
          "name": "name",
          "type": "string"
        },
        {
          "internalType": "address",
          "name": "owner",
          "type": "address"
        },
        {
          "internalType": "uint256",
          "name": "duration",
          "type": "uint256"
        },
        {
          "internalType": "bytes32",
          "name": "secret",
          "type": "bytes32"
        }
      ],
      "name": "register",
      "outputs": [],
      "payable": true,
      "stateMutability": "payable",
      "type": "function"
    },
    {
      "constant": false,
      "inputs": [
        {
          "internalType": "string",
          "name": "name",
          "type": "string"
        },
        {
          "internalType": "uint256",
          "name": "duration",
          "type": "uint256"
        }
      ],
      "name": "renew",
      "outputs": [],
      "payable": true,
      "stateMutability": "payable",
      "type": "function"
    },
    {
      "constant": false,
      "inputs": [],
      "name": "renounceOwnership",
      "outputs": [],
      "payable": false,
      "stateMutability": "nonpayable",
      "type": "function"
    },
    {
      "constant": true,
      "inputs": [
        {
          "internalType": "string",
          "name": "name",
          "type": "string"
        },
        {
          "internalType": "uint256",
          "name": "duration",
          "type": "uint256"
        }
      ],
      "name": "rentPrice",
      "outputs": [
        {
          "internalType": "uint256",
          "name": "",
          "type": "uint256"
        }
      ],
      "payable": false,
      "stateMutability": "view",
      "type": "function"
    },
    {
      "constant": false,
      "inputs": [
        {
          "internalType": "contract PriceOracle",
          "name": "_prices",
          "type": "address"
        }
      ],
      "name": "setPriceOracle",
      "outputs": [],
      "payable": false,
      "stateMutability": "nonpayable",
      "type": "function"
    },
    {
      "constant": false,
      "inputs": [
        {
          "internalType": "address",
          "name": "newOwner",
          "type": "address"
        }
      ],
      "name": "transferOwnership",
      "outputs": [],
      "payable": false,
      "stateMutability": "nonpayable",
      "type": "function"
    },
    {
      "constant": true,
      "inputs": [
        {
          "internalType": "string",
          "name": "name",
          "type": "string"
        }
      ],
      "name": "valid",
      "outputs": [
        {
          "internalType": "bool",
          "name": "",
          "type": "bool"
        }
      ],
      "payable": false,
      "stateMutability": "view",
      "type": "function"
    },
    {
      "constant": false,
      "inputs": [],
      "name": "withdraw",
      "outputs": [],
      "payable": false,
      "stateMutability": "nonpayable",
      "type": "function"
    }
  ],
  "bytecode": "0x608060405234801561001057600080fd5b506040516112383803806112388339818101604052604081101561003357600080fd5b508051602090910151600061004f6001600160e01b036100ca16565b600080546001600160a01b0319166001600160a01b0383169081178255604051929350917f8be0079c531659141344cd1fd0a4f28419497f9722a3daafe3b4186f6b6457e0908290a350600180546001600160a01b039384166001600160a01b031991821617909155600280549290931691161790556100ce565b3390565b61115b806100dd6000396000f3fe6080604052600436106100fe5760003560e01c80638a95b09f116100955780639791c097116100645780639791c09714610420578063acf1a841146104d1578063aeb8ce9b1461053f578063f14fcbc8146105f0578063f2fde38b1461061a576100fe565b80638a95b09f1461039c5780638ccb9ea6146103b15780638da5cb5b146103c65780638f32d59b146103f7576100fe565b80637711c1e5116100d15780637711c1e514610189578063839df9451461023c57806383e7f6ff1461026657806385f6d15514610319576100fe565b80632e4f692a146101035780633ccfd60b1461012a578063530e784f14610141578063715018a614610174575b600080fd5b34801561010f57600080fd5b5061011861064d565b60408051918252519081900360200190f35b34801561013657600080fd5b5061013f610652565b005b34801561014d57600080fd5b5061013f6004803603602081101561016457600080fd5b50356001600160a01b03166106c8565b34801561018057600080fd5b5061013f61075f565b34801561019557600080fd5b50610118600480360360408110156101ac57600080fd5b810190602081018135600160201b8111156101c657600080fd5b8201836020820111156101d857600080fd5b803590602001918460018302840111600160201b831117156101f957600080fd5b91908080601f01602080910402602001604051908101604052809392919081815260200183838082843760009201919091525092955050913592506107f0915050565b34801561024857600080fd5b506101186004803603602081101561025f57600080fd5b5035610823565b34801561027257600080fd5b506101186004803603604081101561028957600080fd5b810190602081018135600160201b8111156102a357600080fd5b8201836020820111156102b557600080fd5b803590602001918460018302840111600160201b831117156102d657600080fd5b91908080601f0160208091040260200160405190810160405280939291908181526020018383808284376000920191909152509295505091359250610835915050565b61013f6004803603608081101561032f57600080fd5b810190602081018135600160201b81111561034957600080fd5b82018360208201111561035b57600080fd5b803590602001918460018302840111600160201b8311171561037c57600080fd5b91935091506001600160a01b0381351690602081013590604001356109a7565b3480156103a857600080fd5b50610118610c81565b3480156103bd57600080fd5b50610118610c88565b3480156103d257600080fd5b506103db610c8f565b604080516001600160a01b039092168252519081900360200190f35b34801561040357600080fd5b5061040c610c9e565b604080519115158252519081900360200190f35b34801561042c57600080fd5b5061040c6004803603602081101561044357600080fd5b810190602081018135600160201b81111561045d57600080fd5b82018360208201111561046f57600080fd5b803590602001918460018302840111600160201b8311171561049057600080fd5b91908080601f016020809104026020016040519081016040528093929190818152602001838380828437600092019190915250929550610cc2945050505050565b61013f600480360360408110156104e757600080fd5b810190602081018135600160201b81111561050157600080fd5b82018360208201111561051357600080fd5b803590602001918460018302840111600160201b8311171561053457600080fd5b919350915035610cd6565b34801561054b57600080fd5b5061040c6004803603602081101561056257600080fd5b810190602081018135600160201b81111561057c57600080fd5b82018360208201111561058e57600080fd5b803590602001918460018302840111600160201b831117156105af57600080fd5b91908080601f016020809104026020016040519081016040528093929190818152602001838380828437600092019190915250929550610e79945050505050565b3480156105fc57600080fd5b5061013f6004803603602081101561061357600080fd5b5035610f13565b34801561062657600080fd5b5061013f6004803603602081101561063d57600080fd5b50356001600160a01b0316610f47565b603c81565b61065a610c9e565b610699576040805162461bcd60e51b81526020600482018190526024820152600080516020611107833981519152604482015290519081900360640190fd5b60405133904780156108fc02916000818181858888f193505050501580156106c5573d6000803e3d6000fd5b50565b6106d0610c9e565b61070f576040805162461bcd60e51b81526020600482018190526024820152600080516020611107833981519152604482015290519081900360640190fd5b600280546001600160a01b0319166001600160a01b0383811691909117918290556040519116907ff261845a790fe29bbd6631e2ca4a5bdc83e6eed7c3271d9590d97287e00e912390600090a250565b610767610c9e565b6107a6576040805162461bcd60e51b81526020600482018190526024820152600080516020611107833981519152604482015290519081900360640190fd5b600080546040516001600160a01b03909116907f8be0079c531659141344cd1fd0a4f28419497f9722a3daafe3b4186f6b6457e0908390a3600080546001600160a01b0319169055565b81516020928301206040805180850192909252818101929092528151808203830181526060909101909152805191012090565b60036020526000908152604090205481565b815160208084019190912060025460015460408051636b727d4360e11b81526004810185905290516000956001600160a01b03948516946350e9a715948a9491169263d6e4fa8692602480840193919291829003018186803b15801561089a57600080fd5b505afa1580156108ae573d6000803e3d6000fd5b505050506040513d60208110156108c457600080fd5b50516040516001600160e01b031960e085901b168152602481018290526044810188905260606004820190815283516064830152835189928291608490910190602087019080838360005b8381101561092757818101518382015260200161090f565b50505050905090810190601f1680156109545780820380516001836020036101000a031916815260200191505b5094505050505060206040518083038186803b15801561097357600080fd5b505afa158015610987573d6000803e3d6000fd5b505050506040513d602081101561099d57600080fd5b5051949350505050565b60006109ea86868080601f0160208091040260200160405190810160405280939291908181526020018383808284376000920191909152508692506107f0915050565b905042603c6003600084815260200190815260200160002054011115610a0f57600080fd5b600081815260036020526040902054426202a3009091011080610a6e5750610a6c86868080601f016020809104026020016040519081016040528093929190818152602001838380828437600092019190915250610e7992505050565b155b15610aa65760405133903480156108fc02916000818181858888f19350505050158015610a9f573d6000803e3d6000fd5b5050610c7a565b60008181526003602090815260408083208390558051601f8901839004830281018301909152878152610af5918990899081908401838280828437600092019190915250889250610835915050565b90506224ea00841015610b0757600080fd5b80341015610b1457600080fd5b600087876040518083838082843760408051939091018390038320600154633f2891eb60e21b8552600485018290526001600160a01b038e81166024870152604486018e905292519198506000975091909116945063fca247ac93506064808401936020935082900301818787803b158015610b8f57600080fd5b505af1158015610ba3573d6000803e3d6000fd5b505050506040513d6020811015610bb957600080fd5b50516040805160208101869052908101829052606080825281018a90529091506001600160a01b038816907ff7ab1b84e0afb8ee4014a7fc4343c995a6eed5d4a096d59940f33ef56efc5851908b908b90879086908060808101868680828437600083820152604051601f909101601f191690920182900397509095505050505050a282341115610c755760405133903485900380156108fc02916000818181858888f19350505050158015610c73573d6000803e3d6000fd5b505b505050505b5050505050565b6224ea0081565b6202a30081565b6000546001600160a01b031690565b600080546001600160a01b0316610cb3610f97565b6001600160a01b031614905090565b60006003610ccf83610f9b565b1192915050565b6000610d1984848080601f016020809104026020016040519081016040528093929190818152602001838380828437600092019190915250869250610835915050565b905080341015610d2857600080fd5b60008484604051808383808284376040805193909101839003832060015463c475abff60e01b855260048501829052602485018b90529151909750600096506001600160a01b03909116945063c475abff93506044808401936020935082900301818787803b158015610d9a57600080fd5b505af1158015610dae573d6000803e3d6000fd5b505050506040513d6020811015610dc457600080fd5b5051905034831015610e015760405133903485900380156108fc02916000818181858888f19350505050158015610dff573d6000803e3d6000fd5b505b7f983587df6b7b703c7d9c0d9fdb64ad88e85b07e5663a41f2ff95d8313abd66068686858460405180806020018481526020018381526020018281038252868682818152602001925080828437600083820152604051601f909101601f191690920182900397509095505050505050a1505050505050565b80516020820120600090610e8c83610cc2565b8015610f0c5750600154604080516312dc929d60e31b81526004810184905290516001600160a01b03909216916396e494e891602480820192602092909190829003018186803b158015610edf57600080fd5b505afa158015610ef3573d6000803e3d6000fd5b505050506040513d6020811015610f0957600080fd5b50515b9392505050565b600081815260036020526040902054426202a30090910110610f3457600080fd5b6000908152600360205260409020429055565b610f4f610c9e565b610f8e576040805162461bcd60e51b81526020600482018190526024820152600080516020611107833981519152604482015290519081900360640190fd5b6106c581611040565b3390565b8051600090600183810191840101825b8183101561103857825160ff166080811015610fcc5760018401935061102f565b60e08160ff161015610fe35760028401935061102f565b60f08160ff161015610ffa5760038401935061102f565b60f88160ff1610156110115760048401935061102f565b60fc8160ff1610156110285760058401935061102f565b6006840193505b50600101610fab565b949350505050565b6001600160a01b0381166110855760405162461bcd60e51b81526004018080602001828103825260268152602001806110e16026913960400191505060405180910390fd5b600080546040516001600160a01b03808516939216917f8be0079c531659141344cd1fd0a4f28419497f9722a3daafe3b4186f6b6457e091a3600080546001600160a01b0319166001600160a01b039290921691909117905556fe4f776e61626c653a206e6577206f776e657220697320746865207a65726f20616464726573734f776e61626c653a2063616c6c6572206973206e6f7420746865206f776e6572a265627a7a72315820aa936c697243b118e00fa8c76fc476f0e83c8b8ded845c5d6d0d43f1340f8f2264736f6c63430005110032",
  "linkReferences": {},
  "deployedLinkReferences": {}
}