{
  "_format": "hh-sol-artifact-1",
  "contractName": "TNSRegistrarController",
  "sourceName": "ethregistrar/contracts/ETHRegistrarController.sol",
  "abi": [
    {
      "inputs": [
        {
          "internalType": "contract BaseRegistrar",
          "name": "_base",
          "type": "address"
        },
        {
          "internalType": "contract PriceOracle",
          "name": "_prices",
          "type": "address"
        },
        {
          "internalType": "address payable",
          "name": "_treasury",
          "type": "address"
        }
      ],
      "payable": false,
      "stateMutability": "nonpayable",
      "type": "constructor"
    },
    {
      "anonymous": false,
      "inputs": [
        {
          "indexed": false,
          "internalType": "string",
          "name": "name",
          "type": "string"
        },
        {
          "indexed": true,
          "internalType": "address",
          "name": "owner",
          "type": "address"
        },
        {
          "indexed": false,
          "internalType": "uint256",
          "name": "cost",
          "type": "uint256"
        },
        {
          "indexed": false,
          "internalType": "uint256",
          "name": "expires",
          "type": "uint256"
        }
      ],
      "name": "NameRegistered",
      "type": "event"
    },
    {
      "anonymous": false,
      "inputs": [
        {
          "indexed": false,
          "internalType": "string",
          "name": "name",
          "type": "string"
        },
        {
          "indexed": false,
          "internalType": "uint256",
          "name": "cost",
          "type": "uint256"
        },
        {
          "indexed": false,
          "internalType": "uint256",
          "name": "expires",
          "type": "uint256"
        }
      ],
      "name": "NameRenewed",
      "type": "event"
    },
    {
      "anonymous": false,
      "inputs": [
        {
          "indexed": true,
          "internalType": "address",
          "name": "oracle",
          "type": "address"
        }
      ],
      "name": "NewPriceOracle",
      "type": "event"
    },
    {
      "anonymous": false,
      "inputs": [
        {
          "indexed": true,
          "internalType": "address",
          "name": "treasury",
          "type": "address"
        }
      ],
      "name": "NewTreasury",
      "type": "event"
    },
    {
      "anonymous": false,
      "inputs": [
        {
          "indexed": true,
          "internalType": "address",
          "name": "previousOwner",
          "type": "address"
        },
        {
          "indexed": true,
          "internalType": "address",
          "name": "newOwner",
          "type": "address"
        }
      ],
      "name": "OwnershipTransferred",
      "type": "event"
    },
    {
      "constant": true,
      "inputs": [],
      "name": "MAX_COMMITMENT_AGE",
      "outputs": [
        {
          "internalType": "uint256",
          "name": "",
          "type": "uint256"
        }
      ],
      "payable": false,
      "stateMutability": "view",
      "type": "function"
    },
    {
      "constant": true,
      "inputs": [],
      "name": "MIN_COMMITMENT_AGE",
      "outputs": [
        {
          "internalType": "uint256",
          "name": "",
          "type": "uint256"
        }
      ],
      "payable": false,
      "stateMutability": "view",
      "type": "function"
    },
    {
      "constant": true,
      "inputs": [],
      "name": "MIN_REGISTRATION_DURATION",
      "outputs": [
        {
          "internalType": "uint256",
          "name": "",
          "type": "uint256"
        }
      ],
      "payable": false,
      "stateMutability": "view",
      "type": "function"
    },
    {
      "constant": true,
      "inputs": [
        {
          "internalType": "string",
          "name": "name",
          "type": "string"
        }
      ],
      "name": "available",
      "outputs": [
        {
          "internalType": "bool",
          "name": "",
          "type": "bool"
        }
      ],
      "payable": false,
      "stateMutability": "view",
      "type": "function"
    },
    {
      "constant": false,
      "inputs": [
        {
          "internalType": "bytes32",
          "name": "commitment",
          "type": "bytes32"
        }
      ],
      "name": "commit",
      "outputs": [],
      "payable": false,
      "stateMutability": "nonpayable",
      "type": "function"
    },
    {
      "constant": true,
      "inputs": [
        {
          "internalType": "bytes32",
          "name": "",
          "type": "bytes32"
        }
      ],
      "name": "commitments",
      "outputs": [
        {
          "internalType": "uint256",
          "name": "",
          "type": "uint256"
        }
      ],
      "payable": false,
      "stateMutability": "view",
      "type": "function"
    },
    {
      "constant": true,
      "inputs": [],
      "name": "isOwner",
      "outputs": [
        {
          "internalType": "bool",
          "name": "",
          "type": "bool"
        }
      ],
      "payable": false,
      "stateMutability": "view",
      "type": "function"
    },
    {
      "constant": true,
      "inputs": [
        {
          "internalType": "string",
          "name": "name",
          "type": "string"
        },
        {
          "internalType": "bytes32",
          "name": "secret",
          "type": "bytes32"
        }
      ],
      "name": "makeCommitment",
      "outputs": [
        {
          "internalType": "bytes32",
          "name": "",
          "type": "bytes32"
        }
      ],
      "payable": false,
      "stateMutability": "pure",
      "type": "function"
    },
    {
      "constant": true,
      "inputs": [],
      "name": "owner",
      "outputs": [
        {
          "internalType": "address",
          "name": "",
          "type": "address"
        }
      ],
      "payable": false,
      "stateMutability": "view",
      "type": "function"
    },
    {
      "constant": false,
      "inputs": [
        {
          "internalType": "string",
          "name": "name",
          "type": "string"
        },
        {
          "internalType": "address",
          "name": "owner",
          "type": "address"
        },
        {
          "internalType": "uint256",
          "name": "duration",
          "type": "uint256"
        },
        {
          "internalType": "bytes32",
          "name": "secret",
          "type": "bytes32"
        }
      ],
      "name": "register",
      "outputs": [],
      "payable": true,
      "stateMutability": "payable",
      "type": "function"
    },
    {
      "constant": false,
      "inputs": [
        {
          "internalType": "string",
          "name": "name",
          "type": "string"
        },
        {
          "internalType": "uint256",
          "name": "duration",
          "type": "uint256"
        }
      ],
      "name": "renew",
      "outputs": [],
      "payable": true,
      "stateMutability": "payable",
      "type": "function"
    },
    {
      "constant": false,
      "inputs": [],
      "name": "renounceOwnership",
      "outputs": [],
      "payable": false,
      "stateMutability": "nonpayable",
      "type": "function"
    },
    {
      "constant": true,
      "inputs": [
        {
          "internalType": "string",
          "name": "name",
          "type": "string"
        },
        {
          "internalType": "uint256",
          "name": "duration",
          "type": "uint256"
        }
      ],
      "name": "rentPrice",
      "outputs": [
        {
          "internalType": "uint256",
          "name": "",
          "type": "uint256"
        }
      ],
      "payable": false,
      "stateMutability": "view",
      "type": "function"
    },
    {
      "constant": false,
      "inputs": [
        {
          "internalType": "contract PriceOracle",
          "name": "_prices",
          "type": "address"
        }
      ],
      "name": "setPriceOracle",
      "outputs": [],
      "payable": false,
      "stateMutability": "nonpayable",
      "type": "function"
    },
    {
      "constant": false,
      "inputs": [
        {
          "internalType": "address payable",
          "name": "_treasury",
          "type": "address"
        }
      ],
      "name": "setTreasury",
      "outputs": [],
      "payable": false,
      "stateMutability": "nonpayable",
      "type": "function"
    },
    {
      "constant": false,
      "inputs": [
        {
          "internalType": "address",
          "name": "newOwner",
          "type": "address"
        }
      ],
      "name": "transferOwnership",
      "outputs": [],
      "payable": false,
      "stateMutability": "nonpayable",
      "type": "function"
    },
    {
      "constant": true,
      "inputs": [],
      "name": "treasury",
      "outputs": [
        {
          "internalType": "address payable",
          "name": "",
          "type": "address"
        }
      ],
      "payable": false,
      "stateMutability": "view",
      "type": "function"
    },
    {
      "constant": true,
      "inputs": [
        {
          "internalType": "string",
          "name": "name",
          "type": "string"
        }
      ],
      "name": "valid",
      "outputs": [
        {
          "internalType": "bool",
          "name": "",
          "type": "bool"
        }
      ],
      "payable": false,
      "stateMutability": "view",
      "type": "function"
    },
    {
      "constant": false,
      "inputs": [],
      "name": "withdraw",
      "outputs": [],
      "payable": false,
      "stateMutability": "nonpayable",
      "type": "function"
    }
  ],
  "bytecode": "0x608060405234801561001057600080fd5b506040516114c43803806114c48339818101604052606081101561003357600080fd5b508051602082015160409092015190919060006100576001600160e01b036100e316565b600080546001600160a01b0319166001600160a01b0383169081178255604051929350917f8be0079c531659141344cd1fd0a4f28419497f9722a3daafe3b4186f6b6457e0908290a350600180546001600160a01b039485166001600160a01b0319918216179091556002805493851693821693909317909255600380549190931691161790556100e7565b3390565b6113ce806100f66000396000f3fe6080604052600436106101145760003560e01c80638a95b09f116100a0578063acf1a84111610064578063acf1a841146104fc578063aeb8ce9b1461056a578063f0f442601461061b578063f14fcbc81461064e578063f2fde38b1461067857610114565b80638a95b09f146103e35780638ccb9ea6146103f85780638da5cb5b1461040d5780638f32d59b146104225780639791c0971461044b57610114565b8063715018a6116100e7578063715018a6146101bb5780637711c1e5146101d0578063839df9451461028357806383e7f6ff146102ad57806385f6d1551461036057610114565b80632e4f692a146101195780633ccfd60b14610140578063530e784f1461015757806361d027b31461018a575b600080fd5b34801561012557600080fd5b5061012e6106ab565b60408051918252519081900360200190f35b34801561014c57600080fd5b506101556106b0565b005b34801561016357600080fd5b506101556004803603602081101561017a57600080fd5b50356001600160a01b031661075a565b34801561019657600080fd5b5061019f6107f1565b604080516001600160a01b039092168252519081900360200190f35b3480156101c757600080fd5b50610155610800565b3480156101dc57600080fd5b5061012e600480360360408110156101f357600080fd5b810190602081018135600160201b81111561020d57600080fd5b82018360208201111561021f57600080fd5b803590602001918460018302840111600160201b8311171561024057600080fd5b91908080601f0160208091040260200160405190810160405280939291908181526020018383808284376000920191909152509295505091359250610891915050565b34801561028f57600080fd5b5061012e600480360360208110156102a657600080fd5b50356108c4565b3480156102b957600080fd5b5061012e600480360360408110156102d057600080fd5b810190602081018135600160201b8111156102ea57600080fd5b8201836020820111156102fc57600080fd5b803590602001918460018302840111600160201b8311171561031d57600080fd5b91908080601f01602080910402602001604051908101604052809392919081815260200183838082843760009201919091525092955050913592506108d6915050565b6101556004803603608081101561037657600080fd5b810190602081018135600160201b81111561039057600080fd5b8201836020820111156103a257600080fd5b803590602001918460018302840111600160201b831117156103c357600080fd5b91935091506001600160a01b038135169060208101359060400135610a48565b3480156103ef57600080fd5b5061012e610dd5565b34801561040457600080fd5b5061012e610ddc565b34801561041957600080fd5b5061019f610de3565b34801561042e57600080fd5b50610437610df2565b604080519115158252519081900360200190f35b34801561045757600080fd5b506104376004803603602081101561046e57600080fd5b810190602081018135600160201b81111561048857600080fd5b82018360208201111561049a57600080fd5b803590602001918460018302840111600160201b831117156104bb57600080fd5b91908080601f016020809104026020016040519081016040528093929190818152602001838380828437600092019190915250929550610e16945050505050565b6101556004803603604081101561051257600080fd5b810190602081018135600160201b81111561052c57600080fd5b82018360208201111561053e57600080fd5b803590602001918460018302840111600160201b8311171561055f57600080fd5b919350915035610e2b565b34801561057657600080fd5b506104376004803603602081101561058d57600080fd5b810190602081018135600160201b8111156105a757600080fd5b8201836020820111156105b957600080fd5b803590602001918460018302840111600160201b831117156105da57600080fd5b91908080601f01602080910402602001604051908101604052809392919081815260200183838082843760009201919091525092955061105b945050505050565b34801561062757600080fd5b506101556004803603602081101561063e57600080fd5b50356001600160a01b03166110f5565b34801561065a57600080fd5b506101556004803603602081101561067157600080fd5b5035611186565b34801561068457600080fd5b506101556004803603602081101561069b57600080fd5b50356001600160a01b03166111ba565b603c81565b6106b8610df2565b6106f7576040805162461bcd60e51b8152602060048201819052602482015260008051602061137a833981519152604482015290519081900360640190fd5b6003546040516000916001600160a01b03169047908381818185875af1925050503d8060008114610744576040519150601f19603f3d011682016040523d82523d6000602084013e610749565b606091505b505090508061075757600080fd5b50565b610762610df2565b6107a1576040805162461bcd60e51b8152602060048201819052602482015260008051602061137a833981519152604482015290519081900360640190fd5b600280546001600160a01b0319166001600160a01b0383811691909117918290556040519116907ff261845a790fe29bbd6631e2ca4a5bdc83e6eed7c3271d9590d97287e00e912390600090a250565b6003546001600160a01b031681565b610808610df2565b610847576040805162461bcd60e51b8152602060048201819052602482015260008051602061137a833981519152604482015290519081900360640190fd5b600080546040516001600160a01b03909116907f8be0079c531659141344cd1fd0a4f28419497f9722a3daafe3b4186f6b6457e0908390a3600080546001600160a01b0319169055565b81516020928301206040805180850192909252818101929092528151808203830181526060909101909152805191012090565b60046020526000908152604090205481565b815160208084019190912060025460015460408051636b727d4360e11b81526004810185905290516000956001600160a01b03948516946350e9a715948a9491169263d6e4fa8692602480840193919291829003018186803b15801561093b57600080fd5b505afa15801561094f573d6000803e3d6000fd5b505050506040513d602081101561096557600080fd5b50516040516001600160e01b031960e085901b168152602481018290526044810188905260606004820190815283516064830152835189928291608490910190602087019080838360005b838110156109c85781810151838201526020016109b0565b50505050905090810190601f1680156109f55780820380516001836020036101000a031916815260200191505b5094505050505060206040518083038186803b158015610a1457600080fd5b505afa158015610a28573d6000803e3d6000fd5b505050506040513d6020811015610a3e57600080fd5b5051949350505050565b6000610a8b86868080601f016020809104026020016040519081016040528093929190818152602001838380828437600092019190915250869250610891915050565b905042603c6004600084815260200190815260200160002054011115610ab057600080fd5b600081815260046020526040902054426202a3009091011080610b0f5750610b0d86868080601f01602080910402602001604051908101604052809392919081815260200183838082843760009201919091525061105b92505050565b155b15610b7057604051600090339034908381818185875af1925050503d8060008114610b56576040519150601f19603f3d011682016040523d82523d6000602084013e610b5b565b606091505b5050905080610b6957600080fd5b5050610dce565b60008181526004602090815260408083208390558051601f8901839004830281018301909152878152610bbf9189908990819084018382808284376000920191909152508892506108d6915050565b90506224ea00841015610bd157600080fd5b80341015610bde57600080fd5b600087876040518083838082843760408051939091018390038320600154633f2891eb60e21b8552600485018290526001600160a01b038e81166024870152604486018e905292519198506000975091909116945063fca247ac93506064808401936020935082900301818787803b158015610c5957600080fd5b505af1158015610c6d573d6000803e3d6000fd5b505050506040513d6020811015610c8357600080fd5b50516040805160208101869052908101829052606080825281018a90529091506001600160a01b038816907ff7ab1b84e0afb8ee4014a7fc4343c995a6eed5d4a096d59940f33ef56efc5851908b908b90879086908060808101868680828437600083820152604051601f909101601f191690920182900397509095505050505050a26003546040516000916001600160a01b03169085908381818185875af1925050503d8060008114610d53576040519150601f19603f3d011682016040523d82523d6000602084013e610d58565b606091505b5050905080610d6657600080fd5b83341115610dc857604051600090339034879003908381818185875af1925050503d8060008114610db3576040519150601f19603f3d011682016040523d82523d6000602084013e610db8565b606091505b5050905080610dc657600080fd5b505b50505050505b5050505050565b6224ea0081565b6202a30081565b6000546001600160a01b031690565b600080546001600160a01b0316610e0761120a565b6001600160a01b031614905090565b60006003610e238361120e565b101592915050565b6000610e6e84848080601f0160208091040260200160405190810160405280939291908181526020018383808284376000920191909152508692506108d6915050565b905080341015610e7d57600080fd5b60008484604051808383808284376040805193909101839003832060015463c475abff60e01b855260048501829052602485018b90529151909750600096506001600160a01b03909116945063c475abff93506044808401936020935082900301818787803b158015610eef57600080fd5b505af1158015610f03573d6000803e3d6000fd5b505050506040513d6020811015610f1957600080fd5b50516003546040519192506000916001600160a01b039091169085908381818185875af1925050503d8060008114610f6d576040519150601f19603f3d011682016040523d82523d6000602084013e610f72565b606091505b5050905080610f8057600080fd5b83341115610fe257604051600090339034879003908381818185875af1925050503d8060008114610fcd576040519150601f19603f3d011682016040523d82523d6000602084013e610fd2565b606091505b5050905080610fe057600080fd5b505b7f983587df6b7b703c7d9c0d9fdb64ad88e85b07e5663a41f2ff95d8313abd66068787868560405180806020018481526020018381526020018281038252868682818152602001925080828437600083820152604051601f909101601f191690920182900397509095505050505050a150505050505050565b8051602082012060009061106e83610e16565b80156110ee5750600154604080516312dc929d60e31b81526004810184905290516001600160a01b03909216916396e494e891602480820192602092909190829003018186803b1580156110c157600080fd5b505afa1580156110d5573d6000803e3d6000fd5b505050506040513d60208110156110eb57600080fd5b50515b9392505050565b6110fd610df2565b61113c576040805162461bcd60e51b8152602060048201819052602482015260008051602061137a833981519152604482015290519081900360640190fd5b600380546001600160a01b0319166001600160a01b0383169081179091556040517fafa147634b29e2c7bd53ce194256b9f41cfb9ba3036f2b822fdd1d965beea08690600090a250565b600081815260046020526040902054426202a300909101106111a757600080fd5b6000908152600460205260409020429055565b6111c2610df2565b611201576040805162461bcd60e51b8152602060048201819052602482015260008051602061137a833981519152604482015290519081900360640190fd5b610757816112b3565b3390565b8051600090600183810191840101825b818310156112ab57825160ff16608081101561123f576001840193506112a2565b60e08160ff161015611256576002840193506112a2565b60f08160ff16101561126d576003840193506112a2565b60f88160ff161015611284576004840193506112a2565b60fc8160ff16101561129b576005840193506112a2565b6006840193505b5060010161121e565b949350505050565b6001600160a01b0381166112f85760405162461bcd60e51b81526004018080602001828103825260268152602001806113546026913960400191505060405180910390fd5b600080546040516001600160a01b03808516939216917f8be0079c531659141344cd1fd0a4f28419497f9722a3daafe3b4186f6b6457e091a3600080546001600160a01b0319166001600160a01b039290921691909117905556fe4f776e61626c653a206e6577206f776e657220697320746865207a65726f20616464726573734f776e61626c653a2063616c6c6572206973206e6f7420746865206f776e6572a265627a7a723158200437ced4f0d68c9fc12ebf6a0c949f11200bc498de7c052616e50a22e0ae635c64736f6c63430005110032",
  "linkReferences": {},
  "deployedLinkReferences": {}
}