{
  "_format": "hh-sol-artifact-1",
  "contractName": "Resolver",
  "sourceName": "resolvers/Resolver.sol",
  "abi": [
    {
      "inputs": [
        {
          "internalType": "contract TNS",
          "name": "_tns",
          "type": "address"
        },
        {
          "internalType": "address",
          "name": "_trustedController",
          "type": "address"
        },
        {
          "internalType": "address",
          "name": "_trustedReverseRegistrar",
          "type": "address"
        }
      ],
      "stateMutability": "nonpayable",
      "type": "constructor"
    },
    {
      "inputs": [],
      "name": "Unauthorised",
      "type": "error"
    },
    {
      "anonymous": false,
      "inputs": [
        {
          "indexed": true,
          "internalType": "bytes32",
          "name": "node",
          "type": "bytes32"
        },
        {
          "indexed": false,
          "internalType": "address",
          "name": "a",
          "type": "address"
        }
      ],
      "name": "AddrChanged",
      "type": "event"
    },
    {
      "anonymous": false,
      "inputs": [
        {
          "indexed": true,
          "internalType": "bytes32",
          "name": "node",
          "type": "bytes32"
        },
        {
          "indexed": false,
          "internalType": "uint256",
          "name": "coinType",
          "type": "uint256"
        },
        {
          "indexed": false,
          "internalType": "bytes",
          "name": "newAddress",
          "type": "bytes"
        }
      ],
      "name": "AddressChanged",
      "type": "event"
    },
    {
      "anonymous": false,
      "inputs": [
        {
          "indexed": true,
          "internalType": "address",
          "name": "owner",
          "type": "address"
        },
        {
          "indexed": true,
          "internalType": "address",
          "name": "operator",
          "type": "address"
        },
        {
          "indexed": false,
          "internalType": "bool",
          "name": "approved",
          "type": "bool"
        }
      ],
      "name": "ApprovalForAll",
      "type": "event"
    },
    {
      "anonymous": false,
      "inputs": [
        {
          "indexed": false,
          "internalType": "address",
          "name": "owner",
          "type": "address"
        },
        {
          "indexed": true,
          "internalType": "bytes32",
          "name": "node",
          "type": "bytes32"
        },
        {
          "indexed": true,
          "internalType": "address",
          "name": "delegate",
          "type": "address"
        },
        {
          "indexed": true,
          "internalType": "bool",
          "name": "approved",
          "type": "bool"
        }
      ],
      "name": "Approved",
      "type": "event"
    },
    {
      "anonymous": false,
      "inputs": [
        {
          "indexed": true,
          "internalType": "bytes32",
          "name": "node",
          "type": "bytes32"
        },
        {
          "indexed": false,
          "internalType": "bytes",
          "name": "hash",
          "type": "bytes"
        }
      ],
      "name": "ContenthashChanged",
      "type": "event"
    },
    {
      "anonymous": false,
      "inputs": [
        {
          "indexed": true,
          "internalType": "bytes32",
          "name": "node",
          "type": "bytes32"
        },
        {
          "indexed": false,
          "internalType": "string",
          "name": "name",
          "type": "string"
        }
      ],
      "name": "NameChanged",
      "type": "event"
    },
    {
      "anonymous": false,
      "inputs": [
        {
          "indexed": true,
          "internalType": "bytes32",
          "name": "node",
          "type": "bytes32"
        },
        {
          "indexed": true,
          "internalType": "string",
          "name": "indexedKey",
          "type": "string"
        },
        {
          "indexed": false,
          "internalType": "string",
          "name": "key",
          "type": "string"
        },
        {
          "indexed": false,
          "internalType": "string",
          "name": "value",
          "type": "string"
        }
      ],
      "name": "TextChanged",
      "type": "event"
    },
    {
      "anonymous": false,
      "inputs": [
        {
          "indexed": true,
          "internalType": "bytes32",
          "name": "node",
          "type": "bytes32"
        },
        {
          "indexed": false,
          "internalType": "uint64",
          "name": "newVersion",
          "type": "uint64"
        }
      ],
      "name": "VersionChanged",
      "type": "event"
    },
    {
      "inputs": [
        {
          "internalType": "bytes32",
          "name": "node",
          "type": "bytes32"
        }
      ],
      "name": "addr",
      "outputs": [
        {
          "internalType": "address payable",
          "name": "",
          "type": "address"
        }
      ],
      "stateMutability": "view",
      "type": "function"
    },
    {
      "inputs": [
        {
          "internalType": "bytes32",
          "name": "node",
          "type": "bytes32"
        },
        {
          "internalType": "uint256",
          "name": "coinType",
          "type": "uint256"
        }
      ],
      "name": "addr",
      "outputs": [
        {
          "internalType": "bytes",
          "name": "",
          "type": "bytes"
        }
      ],
      "stateMutability": "view",
      "type": "function"
    },
    {
      "inputs": [
        {
          "internalType": "bytes32",
          "name": "node",
          "type": "bytes32"
        },
        {
          "internalType": "address",
          "name": "delegate",
          "type": "address"
        },
        {
          "internalType": "bool",
          "name": "approved",
          "type": "bool"
        }
      ],
      "name": "approve",
      "outputs": [],
      "stateMutability": "nonpayable",
      "type": "function"
    },
    {
      "inputs": [
        {
          "internalType": "bytes32",
          "name": "node",
          "type": "bytes32"
        }
      ],
      "name": "clearRecords",
      "outputs": [],
      "stateMutability": "nonpayable",
      "type": "function"
    },
    {
      "inputs": [
        {
          "internalType": "bytes32",
          "name": "node",
          "type": "bytes32"
        }
      ],
      "name": "contenthash",
      "outputs": [
        {
          "internalType": "bytes",
          "name": "",
          "type": "bytes"
        }
      ],
      "stateMutability": "view",
      "type": "function"
    },
    {
      "inputs": [
        {
          "internalType": "address",
          "name": "nodeOwner",
          "type": "address"
        },
        {
          "internalType": "bytes32",
          "name": "node",
          "type": "bytes32"
        },
        {
          "internalType": "address",
          "name": "delegate",
          "type": "address"
        }
      ],
      "name": "isApprovedFor",
      "outputs": [
        {
          "internalType": "bool",
          "name": "",
          "type": "bool"
        }
      ],
      "stateMutability": "view",
      "type": "function"
    },
    {
      "inputs": [
        {
          "internalType": "address",
          "name": "account",
          "type": "address"
        },
        {
          "internalType": "address",
          "name": "operator",
          "type": "address"
        }
      ],
      "name": "isApprovedForAll",
      "outputs": [
        {
          "internalType": "bool",
          "name": "",
          "type": "bool"
        }
      ],
      "stateMutability": "view",
      "type": "function"
    },
    {
      "inputs": [
        {
          "internalType": "bytes[]",
          "name": "data",
          "type": "bytes[]"
        }
      ],
      "name": "multicall",
      "outputs": [
        {
          "internalType": "bytes[]",
          "name": "results",
          "type": "bytes[]"
        }
      ],
      "stateMutability": "nonpayable",
      "type": "function"
    },
    {
      "inputs": [
        {
          "internalType": "bytes32",
          "name": "nodehash",
          "type": "bytes32"
        },
        {
          "internalType": "bytes[]",
          "name": "data",
          "type": "bytes[]"
        }
      ],
      "name": "multicallWithNodeCheck",
      "outputs": [
        {
          "internalType": "bytes[]",
          "name": "results",
          "type": "bytes[]"
        }
      ],
      "stateMutability": "nonpayable",
      "type": "function"
    },
    {
      "inputs": [
        {
          "internalType": "bytes32",
          "name": "node",
          "type": "bytes32"
        }
      ],
      "name": "name",
      "outputs": [
        {
          "internalType": "string",
          "name": "",
          "type": "string"
        }
      ],
      "stateMutability": "view",
      "type": "function"
    },
    {
      "inputs": [],
      "name": "owner",
      "outputs": [
        {
          "internalType": "address",
          "name": "",
          "type": "address"
        }
      ],
      "stateMutability": "view",
      "type": "function"
    },
    {
      "inputs": [
        {
          "internalType": "bytes32",
          "name": "",
          "type": "bytes32"
        }
      ],
      "name": "recordVersions",
      "outputs": [
        {
          "internalType": "uint64",
          "name": "",
          "type": "uint64"
        }
      ],
      "stateMutability": "view",
      "type": "function"
    },
    {
      "inputs": [
        {
          "internalType": "bytes32",
          "name": "node",
          "type": "bytes32"
        },
        {
          "internalType": "uint256",
          "name": "coinType",
          "type": "uint256"
        },
        {
          "internalType": "bytes",
          "name": "a",
          "type": "bytes"
        }
      ],
      "name": "setAddr",
      "outputs": [],
      "stateMutability": "nonpayable",
      "type": "function"
    },
    {
      "inputs": [
        {
          "internalType": "bytes32",
          "name": "node",
          "type": "bytes32"
        },
        {
          "internalType": "address",
          "name": "a",
          "type": "address"
        }
      ],
      "name": "setAddr",
      "outputs": [],
      "stateMutability": "nonpayable",
      "type": "function"
    },
    {
      "inputs": [
        {
          "internalType": "address",
          "name": "operator",
          "type": "address"
        },
        {
          "internalType": "bool",
          "name": "approved",
          "type": "bool"
        }
      ],
      "name": "setApprovalForAll",
      "outputs": [],
      "stateMutability": "nonpayable",
      "type": "function"
    },
    {
      "inputs": [
        {
          "internalType": "bytes32",
          "name": "node",
          "type": "bytes32"
        },
        {
          "internalType": "bytes",
          "name": "hash",
          "type": "bytes"
        }
      ],
      "name": "setContenthash",
      "outputs": [],
      "stateMutability": "nonpayable",
      "type": "function"
    },
    {
      "inputs": [
        {
          "internalType": "bytes32",
          "name": "node",
          "type": "bytes32"
        },
        {
          "internalType": "string",
          "name": "newName",
          "type": "string"
        }
      ],
      "name": "setName",
      "outputs": [],
      "stateMutability": "nonpayable",
      "type": "function"
    },
    {
      "inputs": [
        {
          "internalType": "bytes32",
          "name": "node",
          "type": "bytes32"
        },
        {
          "internalType": "string",
          "name": "key",
          "type": "string"
        },
        {
          "internalType": "string",
          "name": "value",
          "type": "string"
        }
      ],
      "name": "setText",
      "outputs": [],
      "stateMutability": "nonpayable",
      "type": "function"
    },
    {
      "inputs": [
        {
          "internalType": "address",
          "name": "_controller",
          "type": "address"
        }
      ],
      "name": "setTrustedController",
      "outputs": [],
      "stateMutability": "nonpayable",
      "type": "function"
    },
    {
      "inputs": [
        {
          "internalType": "address",
          "name": "_reverseRegistrar",
          "type": "address"
        }
      ],
      "name": "setTrustedReverseRegistrar",
      "outputs": [],
      "stateMutability": "nonpayable",
      "type": "function"
    },
    {
      "inputs": [
        {
          "internalType": "bytes4",
          "name": "interfaceID",
          "type": "bytes4"
        }
      ],
      "name": "supportsInterface",
      "outputs": [
        {
          "internalType": "bool",
          "name": "",
          "type": "bool"
        }
      ],
      "stateMutability": "pure",
      "type": "function"
    },
    {
      "inputs": [
        {
          "internalType": "bytes32",
          "name": "node",
          "type": "bytes32"
        },
        {
          "internalType": "string",
          "name": "key",
          "type": "string"
        }
      ],
      "name": "text",
      "outputs": [
        {
          "internalType": "string",
          "name": "",
          "type": "string"
        }
      ],
      "stateMutability": "view",
      "type": "function"
    },
    {
      "inputs": [],
      "name": "tns",
      "outputs": [
        {
          "internalType": "contract TNS",
          "name": "",
          "type": "address"
        }
      ],
      "stateMutability": "view",
      "type": "function"
    },
    {
      "inputs": [
        {
          "internalType": "address",
          "name": "newOwner",
          "type": "address"
        }
      ],
      "name": "transferOwnership",
      "outputs": [],
      "stateMutability": "nonpayable",
      "type": "function"
    },
    {
      "inputs": [],
      "name": "trustedController",
      "outputs": [
        {
          "internalType": "address",
          "name": "",
          "type": "address"
        }
      ],
      "stateMutability": "view",
      "type": "function"
    },
    {
      "inputs": [],
      "name": "trustedReverseRegistrar",
      "outputs": [
        {
          "internalType": "address",
          "name": "",
          "type": "address"
        }
      ],
      "stateMutability": "view",
      "type": "function"
    }
  ],
  "bytecode": "0x60a06040523480156200001157600080fd5b5060405162001b7838038062001b78833981016040819052620000349162000091565b6001600160a01b03928316608052600080549284166001600160a01b03199384161790556001805491909316908216179091556002805490911633179055620000e5565b6001600160a01b03811681146200008e57600080fd5b50565b600080600060608486031215620000a757600080fd5b8351620000b48162000078565b6020850151909350620000c78162000078565b6040850151909250620000da8162000078565b809150509250925092565b608051611a70620001086000396000818161027f01526110450152611a706000f3fe608060405234801561001057600080fd5b506004361061018e5760003560e01c80638da5cb5b116100de578063d5fa2b0011610097578063e985e9c511610071578063e985e9c5146103f1578063ed7c2a521461042d578063f1cb7e0614610440578063f2fde38b1461045357600080fd5b8063d5fa2b001461038a578063d700ff331461039d578063e32954eb146103de57600080fd5b80638da5cb5b146102da578063a22cb465146102ed578063a4b91a0114610300578063a9784b3e14610313578063ac9650d814610357578063bc1c58d11461037757600080fd5b806359d1d43c1161014b5780636c7a8d7e116101255780636c7a8d7e1461027a5780636fbe0b06146102a157806377372213146102b45780638b95dd71146102c757600080fd5b806359d1d43c1461023457806362c50a1314610254578063691f34311461026757600080fd5b806301ffc9a71461019357806310f13a8c146101bb5780632c4c098e146101d0578063304e6ade146101e35780633603d758146101f65780633b3b57de14610209575b600080fd5b6101a66101a136600461117d565b610466565b60405190151581526020015b60405180910390f35b6101ce6101c93660046111ef565b6104ee565b005b6101ce6101de366004611280565b6105b4565b6101ce6101f136600461129d565b610609565b6101ce6102043660046112e8565b61068a565b61021c6102173660046112e8565b610741565b6040516001600160a01b0390911681526020016101b2565b61024761024236600461129d565b610773565b6040516101b29190611347565b60015461021c906001600160a01b031681565b6102476102753660046112e8565b610838565b61021c7f000000000000000000000000000000000000000000000000000000000000000081565b60005461021c906001600160a01b031681565b6101ce6102c236600461129d565b6108da565b6101ce6102d5366004611370565b61094d565b60025461021c906001600160a01b031681565b6101ce6102fb366004611448565b610a27565b6101ce61030e36600461147d565b610ae1565b6101a66103213660046114bb565b6001600160a01b039283166000908152600960209081526040808320948352938152838220929094168152925290205460ff1690565b61036a610365366004611541565b610ba4565b6040516101b29190611582565b6102476103853660046112e8565b610cbe565b6101ce6103983660046115e4565b610cdb565b6103c66103ab3660046112e8565b6004602052600090815260409020546001600160401b031681565b6040516001600160401b0390911681526020016101b2565b61036a6103ec366004611614565b610d16565b6101a66103ff366004611652565b6001600160a01b03918216600090815260086020908152604080832093909416825291909152205460ff1690565b6101ce61043b366004611280565b610eb5565b61024761044e366004611680565b610f01565b6101ce610461366004611280565b610faf565b60006001600160e01b031982166301ffc9a760e01b148061049757506001600160e01b0319821663195e053b60e31b145b806104b257506001600160e01b0319821663691f343160e01b145b806104cd57506001600160e01b03198216631674750f60e21b145b806104e857506001600160e01b0319821663bc1c58d160e01b145b92915050565b846104f881610ffb565b61051557604051636bd1573560e11b815260040160405180910390fd5b828260056000898152602001908152602001600020878760405161053a9291906116a2565b9081526020016040518091039020918261055592919061173a565b5084846040516105669291906116a2565b6040518091039020867f448bc014f1536726cf8d54ff3d6481ed3cbc683c2591ca204274009afa09b1a1878787876040516105a49493929190611822565b60405180910390a3505050505050565b6002546001600160a01b031633146105e75760405162461bcd60e51b81526004016105de90611854565b60405180910390fd5b600180546001600160a01b0319166001600160a01b0392909216919091179055565b8261061381610ffb565b61063057604051636bd1573560e11b815260040160405180910390fd5b600084815260066020526040902061064983858361173a565b50837fe379c1624ed7e714cc0937528a32359d69d5281337765313dba4e081b72d7578848460405161067c929190611878565b60405180910390a250505050565b8061069481610ffb565b6106b157604051636bd1573560e11b815260040160405180910390fd5b600082815260046020526040812080546001600160401b0316916106d4836118aa565b82546101009290920a6001600160401b038181021990931691831602179091556000848152600460209081526040918290205491519190921681528492507fc6621ccb8f3f5a04bb6502154b2caf6adf5983fe76dfef1cfc9c42e3579db444910160405180910390a25050565b60008061074f83603c610f01565b905080516000036107635750600092915050565b61076c8161112e565b9392505050565b60606005600085815260200190815260200160002083836040516107989291906116a2565b908152602001604051809103902080546107b1906116b2565b80601f01602080910402602001604051908101604052809291908181526020018280546107dd906116b2565b801561082a5780601f106107ff5761010080835404028352916020019161082a565b820191906000526020600020905b81548152906001019060200180831161080d57829003601f168201915b505050505090509392505050565b6000818152600760205260409020805460609190610855906116b2565b80601f0160208091040260200160405190810160405280929190818152602001828054610881906116b2565b80156108ce5780601f106108a3576101008083540402835291602001916108ce565b820191906000526020600020905b8154815290600101906020018083116108b157829003601f168201915b50505050509050919050565b826108e481610ffb565b61090157604051636bd1573560e11b815260040160405180910390fd5b600084815260076020526040902061091a83858361173a565b50837fb7d29e911041e8d9b843369e890bcb72c9388692ba48b65ac54e7214c4c348f7848460405161067c929190611878565b8261095781610ffb565b61097457604051636bd1573560e11b815260040160405180910390fd5b837f65412581168e88a1e60c6459d7f44ae83ad0832e670826c05a4e2476b57af75284846040516109a69291906118d0565b60405180910390a282603c036109fd57837f52d7d861f09ab3d26239d492e8968629f95e9e318cf0b73bfddc441522a15fd26109e18461112e565b6040516001600160a01b03909116815260200160405180910390a25b60008481526003602090815260408083208684529091529020610a2083826118e9565b5050505050565b6001600160a01b0382163303610a755760405162461bcd60e51b815260206004820152601360248201527221b0b73737ba1030b8383937bb329039b2b63360691b60448201526064016105de565b3360008181526008602090815260408083206001600160a01b03871680855290835292819020805460ff191686151590811790915590519081529192917f17307eab39ab6107e8899845ad3d59bd9653f200f220920489ca2b5937696c31910160405180910390a35050565b6001600160a01b0382163303610b2f5760405162461bcd60e51b815260206004820152601360248201527221b0b73737ba1030b8383937bb329039b2b63360691b60448201526064016105de565b33600081815260096020908152604080832087845282528083206001600160a01b03871680855290835292819020805460ff191686151590811790915590519384529286917ff0ddb3b04746704017f9aa8bd728fcc2c1d11675041205350018915f5e4750a0910160405180910390a4505050565b6060816001600160401b03811115610bbe57610bbe61135a565b604051908082528060200260200182016040528015610bf157816020015b6060815260200190600190039081610bdc5790505b50905060005b82811015610cb75760008030868685818110610c1557610c156119a8565b9050602002810190610c2791906119be565b604051610c359291906116a2565b600060405180830381855af49150503d8060008114610c70576040519150601f19603f3d011682016040523d82523d6000602084013e610c75565b606091505b509150915081610c8457600080fd5b80848481518110610c9757610c976119a8565b602002602001018190525050508080610caf90611a04565b915050610bf7565b5092915050565b6000818152600660205260409020805460609190610855906116b2565b81610ce581610ffb565b610d0257604051636bd1573560e11b815260040160405180910390fd5b610d1183603c6102d58561114d565b505050565b6060816001600160401b03811115610d3057610d3061135a565b604051908082528060200260200182016040528015610d6357816020015b6060815260200190600190039081610d4e5790505b50905060005b82811015610ead576000848483818110610d8557610d856119a8565b9050602002810190610d9791906119be565b8080601f0160208091040260200160405190810160405280939291908181526020018383808284376000920191909152505050602482015191925050868114610df357604051636bd1573560e11b815260040160405180910390fd5b60008030888887818110610e0957610e096119a8565b9050602002810190610e1b91906119be565b604051610e299291906116a2565b600060405180830381855af49150503d8060008114610e64576040519150601f19603f3d011682016040523d82523d6000602084013e610e69565b606091505b509150915081610e7857600080fd5b80868681518110610e8b57610e8b6119a8565b6020026020010181905250505050508080610ea590611a04565b915050610d69565b509392505050565b6002546001600160a01b03163314610edf5760405162461bcd60e51b81526004016105de90611854565b600080546001600160a01b0319166001600160a01b0392909216919091179055565b60008281526003602090815260408083208484529091529020805460609190610f29906116b2565b80601f0160208091040260200160405190810160405280929190818152602001828054610f55906116b2565b8015610fa25780601f10610f7757610100808354040283529160200191610fa2565b820191906000526020600020905b815481529060010190602001808311610f8557829003601f168201915b5050505050905092915050565b6002546001600160a01b03163314610fd95760405162461bcd60e51b81526004016105de90611854565b600280546001600160a01b0319166001600160a01b0392909216919091179055565b600080546001600160a01b031633148061101f57506001546001600160a01b031633145b1561102c57506001919050565b6040516302571be360e01b8152600481018390526000907f00000000000000000000000000000000000000000000000000000000000000006001600160a01b0316906302571be390602401602060405180830381865afa158015611094573d6000803e3d6000fd5b505050506040513d601f19601f820116820180604052508101906110b89190611a1d565b90506001600160a01b0381163314806110f457506001600160a01b038116600090815260086020908152604080832033845290915290205460ff165b8061076c57506001600160a01b0381166000908152600960209081526040808320868452825280832033845290915290205460ff1661076c565b6000815160141461113e57600080fd5b5060200151600160601b900490565b604080516014808252818301909252606091602082018180368337505050600160601b9290920260208301525090565b60006020828403121561118f57600080fd5b81356001600160e01b03198116811461076c57600080fd5b60008083601f8401126111b957600080fd5b5081356001600160401b038111156111d057600080fd5b6020830191508360208285010111156111e857600080fd5b9250929050565b60008060008060006060868803121561120757600080fd5b8535945060208601356001600160401b038082111561122557600080fd5b61123189838a016111a7565b9096509450604088013591508082111561124a57600080fd5b50611257888289016111a7565b969995985093965092949392505050565b6001600160a01b038116811461127d57600080fd5b50565b60006020828403121561129257600080fd5b813561076c81611268565b6000806000604084860312156112b257600080fd5b8335925060208401356001600160401b038111156112cf57600080fd5b6112db868287016111a7565b9497909650939450505050565b6000602082840312156112fa57600080fd5b5035919050565b6000815180845260005b818110156113275760208185018101518683018201520161130b565b506000602082860101526020601f19601f83011685010191505092915050565b60208152600061076c6020830184611301565b634e487b7160e01b600052604160045260246000fd5b60008060006060848603121561138557600080fd5b833592506020840135915060408401356001600160401b03808211156113aa57600080fd5b818601915086601f8301126113be57600080fd5b8135818111156113d0576113d061135a565b604051601f8201601f19908116603f011681019083821181831017156113f8576113f861135a565b8160405282815289602084870101111561141157600080fd5b8260208601602083013760006020848301015280955050505050509250925092565b8035801515811461144357600080fd5b919050565b6000806040838503121561145b57600080fd5b823561146681611268565b915061147460208401611433565b90509250929050565b60008060006060848603121561149257600080fd5b8335925060208401356114a481611268565b91506114b260408501611433565b90509250925092565b6000806000606084860312156114d057600080fd5b83356114db81611268565b92506020840135915060408401356114f281611268565b809150509250925092565b60008083601f84011261150f57600080fd5b5081356001600160401b0381111561152657600080fd5b6020830191508360208260051b85010111156111e857600080fd5b6000806020838503121561155457600080fd5b82356001600160401b0381111561156a57600080fd5b611576858286016114fd565b90969095509350505050565b6000602080830181845280855180835260408601915060408160051b870101925083870160005b828110156115d757603f198886030184526115c5858351611301565b945092850192908501906001016115a9565b5092979650505050505050565b600080604083850312156115f757600080fd5b82359150602083013561160981611268565b809150509250929050565b60008060006040848603121561162957600080fd5b8335925060208401356001600160401b0381111561164657600080fd5b6112db868287016114fd565b6000806040838503121561166557600080fd5b823561167081611268565b9150602083013561160981611268565b6000806040838503121561169357600080fd5b50508035926020909101359150565b8183823760009101908152919050565b600181811c908216806116c657607f821691505b6020821081036116e657634e487b7160e01b600052602260045260246000fd5b50919050565b601f821115610d1157600081815260208120601f850160051c810160208610156117135750805b601f850160051c820191505b818110156117325782815560010161171f565b505050505050565b6001600160401b038311156117515761175161135a565b6117658361175f83546116b2565b836116ec565b6000601f84116001811461179957600085156117815750838201355b600019600387901b1c1916600186901b178355610a20565b600083815260209020601f19861690835b828110156117ca57868501358255602094850194600190920191016117aa565b50868210156117e75760001960f88860031b161c19848701351681555b505060018560011b0183555050505050565b81835281816020850137506000828201602090810191909152601f909101601f19169091010190565b6040815260006118366040830186886117f9565b82810360208401526118498185876117f9565b979650505050505050565b6020808252600a908201526927b7363c9037bbb732b960b11b604082015260600190565b60208152600061188c6020830184866117f9565b949350505050565b634e487b7160e01b600052601160045260246000fd5b60006001600160401b038083168181036118c6576118c6611894565b6001019392505050565b82815260406020820152600061188c6040830184611301565b81516001600160401b038111156119025761190261135a565b6119168161191084546116b2565b846116ec565b602080601f83116001811461194b57600084156119335750858301515b600019600386901b1c1916600185901b178555611732565b600085815260208120601f198616915b8281101561197a5788860151825594840194600190910190840161195b565b50858210156119985787850151600019600388901b60f8161c191681555b5050505050600190811b01905550565b634e487b7160e01b600052603260045260246000fd5b6000808335601e198436030181126119d557600080fd5b8301803591506001600160401b038211156119ef57600080fd5b6020019150368190038213156111e857600080fd5b600060018201611a1657611a16611894565b5060010190565b600060208284031215611a2f57600080fd5b815161076c8161126856fea264697066735822122081c74cd61021beaeff81359b2927695f6a40b3060a63da1e1eb364f7861df21b64736f6c63430008110033",
  "linkReferences": {},
  "deployedLinkReferences": {}
}